:100000007AC0000094C0000092C000000C94CA089E
:100010000C94B9088CC000008AC0000088C00000A1
:1000200086C0000084C0000082C000000C94DB0881
:100030000C94E6087CC000007AC0000078C0000084
:1000400076C0000074C0000072C0000070C00000E4
:100050006EC000006CC000006AC0000068C00000F4
:1000600066C0000064C0000062C0000060C0000004
:100070005EC000005CC000005AC0000058C0000014
:1000800056C000000C94F1080C94150950C00000F3
:100090004EC000004CC000004AC0000048C0000034
:1000A0000C94130F44C0000042C0000040C0000088
:1000B0000C9439090664EC1B3C04BC163E3BE5B9C4
:1000C0003CC93C37C29E5A3D660498083EEA69AA7C
:1000D000AA3E000000803F05A84CCDB2D44EB938EE
:1000E00036A9020C50B9918688083CA6AAAA2ABE55
:1000F000000000803F0011241FBECFEFD8E0DEBF1C
:10010000CDBF12E0A0E0B1E0EAEEF5E702C0059055
:100110000D92A632B107D9F723E0A6E2B2E001C002
:100120001D92A53CB207E1F7AFD10C94F33A0C94C1
:1001300048090C948D0D883631F08C3631F08337B8
:1001400031F083E0089580E0089581E0089582E031
:100150000895009741F0EFECF7E03197F1F700C018
:1001600000000197F6CF0895FF920F931F93CF934E
:10017000DF9300D0CDB7DEB78C01F62E611108C039
:100180008091F70294E6899F802D1124F8018083E5
:1001900080911101F8018183809110018283809107
:1001A0001301838360910C0170910D0180910E0108
:1001B00090910F01CE0101960E9423108981F801D0
:1001C00084838A81858380911201868360910801EE
:1001D0007091090180910A0190910B01CE01019665
:1001E0000E9423108981F80187838A81808780910A
:1001F000140181878091450282878091070183875E
:1002000080914302848780913F0285878091060117
:100210008687809142028787FF2039F180913B02D7
:1002200090913C0220913D0230913E02308B218B17
:10023000928B838B80913A02848B809136029091CD
:1002400037022091380230913902358B268B978BFB
:10025000808F80913202909133022091340230914C
:100260003502318F228F938F848F0F900F90DF9103
:10027000CF911F910F91FF900895CF93DF9300D0FE
:10028000CDB7DEB780919A028093110180919B02D5
:100290008093100180919C028093130180919D02B4
:1002A000898380919E028A83CE0101960E941C1050
:1002B000A0E0B0E080930C0190930D01A0930E019B
:1002C000B0930F0180919F02809312018091A00250
:1002D00089838091A1028A83CE0101960E941C101D
:1002E000A0E0B0E08093080190930901A0930A0177
:1002F000B0930B0181E09091A202911101C080E0C6
:100300008093140181E09091A302911101C080E0DB
:10031000809345028091A4028093070181E090912F
:10032000A502911101C080E0809343028091A60252
:1003300080933F028091A7028093060181E0909113
:10034000A802911101C080E0809342026091A9024D
:100350007091AA028091AB029091AC020E94883900
:1003600060933B0270933C0280933D0290933E0267
:100370008091AD0280933A026091AE027091AF021B
:100380008091B0029091B1020E9488396093360248
:100390007093370280933802909339026091B202D1
:1003A0007091B3028091B4029091B5020E94883995
:1003B000609332027093330280933402909335023B
:1003C0000F900F90DF91CF910895882311F0739AC9
:1003D000089573980895CF92DF92EF92FF920F9352
:1003E0001F93CF93DF936B017C01C42FD22F81E049
:1003F000ECDF8601C601ADDEDD23D1F0CF3FC1F4D5
:100400000E94D110C0E0C33608F0C0E08C2F0E94DB
:10041000EA10C8019EDECF5FF6CFC8019ADE80E009
:10042000D4DFC80196DE81E0D0DF1C160CF4C15089
:10043000C111F3CFDF91CF911F910F91FF90EF90FA
:10044000DF90CF9008954EE150E069E972E080E2DC
:1004500090E00E943F106DE170E089E992E00E9417
:10046000670D811105C081E090919B02911180E0A0
:100470009091B602891739F020E044E064E670E01C
:1004800080E090E0A8CFF9CECF93DF9300D000D0EA
:100490001F92CDB7DEB74DDE0E948D10429A38987C
:1004A00040980E94271083B18095881F8827881F55
:1004B0008093400282E090E00E942A10813089F00F
:1004C000809140020BD790934D0280934C0201968D
:1004D000B1F48091400202D790934D0280934C0278
:1004E0000EC081E090E00E942A1090E090934D02AF
:1004F00080934C0260E082E090E00E943110809195
:100500004C0290914D02181619063CF020E04FEF76
:1005100064EF71E080E090E00FC09C012850310949
:100520002037310518F40E94090F07C020E04FEF73
:1005300064E670E080E090E04EDF78942698399A87
:10054000419A8091680081608093680080916B007F
:10055000806480936B006091070170E042E050E09E
:1005600081E993E00E94CE0D26E04EE162E08EE448
:1005700092E00E94FB0A3B984398389A8091680069
:1005800082608093680080916C00886080936C002A
:100590004EE150E069E972E080E690E00E943F1091
:1005A0006DE170E089E992E00E94670D811105C05C
:1005B00081E090919B02911180E09091B6028917A1
:1005C00011F041DF01C059DE40E150E069E872E01E
:1005D00080E091E00E943F108EEE92E090938802BE
:1005E00080938702E0903002F090310280913202D5
:1005F0008983909133029D831091340200913502DA
:100600008090360290903702A0903802B090390264
:10061000C0903A0240903B0250903C0260903D02F4
:1006200070903E028091100186DD9091110141E0B1
:10063000933609F040E0EF92FF920F931F93AD8144
:10064000AF93B981BF9383017201282F6FEB73E0E1
:100650008EEE92E00E94B6350F900F900F900F90A3
:100660000F900F90811107C021E04FEF65E070E01F
:1006700080E090E0B0DE10922B026FEB73E080918F
:100680008702909188020E9458352091060188EED9
:1006900093E0289F2001299F500C1124052C000C69
:1006A0006608770880911201803711F40E94AB1020
:1006B00080911301803711F40E94D11080911101B3
:1006C000833611F40E94F71088EE282E83E0382E2E
:1006D000809128028111FCCF0E949A10809186029D
:1006E000882309F4EEC2909171028091C0039111A8
:1006F0006EC18E3239F4269A2E9A88EC90E029DD6C
:100700002698DDC2883621F4429810924202D7C260
:10071000883409F04BC0429A8FE99FE00197F1F7C6
:1007200000C000000091300210913102909132021D
:100730009D83D0903302E0903402F0903502809097
:10074000360290903702A0903802B0903902C090E3
:100750003A0280913B0290913C02A0913D02B091FF
:100760003E0289839A83AB83BC8380911001E3DCD2
:100770009091110141E0933609F040E00F931F93EF
:10078000FF92EF92DF929D819F93E980FA800B8127
:100790001C81282F6FEB73E0809187029091880273
:1007A0000E94B635A1E0A09342024EC0883509F000
:1007B00052C0429884E690E0CCDC429A8FE99FE0F8
:1007C0000197F1F700C000001091300290913102C2
:1007D0009D83D0903202E0903302F0903402009179
:1007E00035028090360290903702A0903802B09087
:1007F0003902C0903A0280913B0290913C02A09154
:100800003D02B0913E0289839A83AB83BC83809181
:10081000100191DC9091110141E0933609F040E024
:100820001F939D819F930F93FF92EF92DF92E98038
:10083000FA800B811C81282F6FEB73E08091870277
:10084000909188020E94B6350F900F900F900F90F4
:100850000F900F9034C2803721F4A1E0A0934102A1
:100860002EC2873721F561E089E992E07DDC6DE1F8
:1008700070E089E992E00E94670D8093B602809152
:1008800044024EE150E069E972E081110BC080E65C
:1008900090E00E94621040E150E069E872E080E080
:1008A00091E002C080E290E00E94621008C28A37A4
:1008B00011F4C9DD04C2843521F4B1E0B0934302E0
:1008C0001AC1843741F4109243028091110183369A
:1008D00009F0F5C10BC18537C9F421E02093280246
:1008E00040E06FEB73E080918702909188020E9454
:1008F00098352AE332E04BE352E06FEB73E08091EE
:100900008702909188020E9430351AC08535E9F43B
:1009100081E08093280240E06FEB73E080918702D2
:10092000909188020E94983520E332E041E352E042
:100930006FEB73E080918702909188020E944E35A0
:1009400020E0813009F06CC165C1863421F491E06A
:1009500090931401B4C1863619F410921401AFC1FA
:10096000863569F46091070170E042E050E081E96A
:1009700093E00E94CE0DA1E0A0934502A0C186376E
:1009800019F4109245029BC1833641F48093110102
:1009900080914302882309F4A9C091C1833721F4CF
:1009A000B3E7B0931101A2C0833509F088C18091EB
:1009B0001101833709F083C143E752E06FEB73E025
:1009C00080918702909188020E94623578C19130AF
:1009D00009F09BC08130D9F48091DB0281116FC195
:1009E00060914C0281E090E00E94311061E082E071
:1009F00090E00E943110F89498E088E10FB6F894E6
:100A0000A895809360000FBE90936000FFCF813760
:100A100029F48091DB028093060151C1813529F4CC
:100A20008091DB0280933F024AC1893651F4809164
:100A3000DB029EEF980F9B3008F041C180930701C5
:100A40003EC18C36E1F40E94F3108091DB0280936A
:100A5000130181E0BADC809113018F3611F480E03C
:100A6000B4DC80911301863611F481E0AEDC809114
:100A70001301803709F023C10E94D11020C18736AD
:100A8000C9F40E94CD108091DB028093120140983E
:100A9000809112018F3609F4409A809112018636B6
:100AA00009F4409880911201803709F008C10E9432
:100AB000AB1005C18D3609F002C18091DB02809335
:100AC000100140E06FEB73E0809187029091880203
:100AD0000E949835809110012EDB482F6FEB73E058
:100AE00080918702909188020E9493348091110135
:100AF00041E0833609F040E06FEB73E080918702BC
:100B0000909188020E949835DAC0923009F09FC017
:100B10008F3679F48BED92E00E941C10A0E0B0E0DB
:100B20008093080190930901A0930A01B0930B01EF
:100B3000C6C0853679F48BED92E00E941C10A0E0CF
:100B4000B0E080930C0190930D01A0930E01B0933F
:100B50000F01B5C08136E9F521E02093280240E07D
:100B60006FEB73E080918702909188020E94983524
:100B70002AE332E04BE352E06FEB73E080918702AF
:100B8000909188020E943035811121C020E332E02B
:100B900041E352E06FEB73E080918702909188020D
:100BA0000E944E35811113C08BED92E00E941C1003
:100BB00026E332E0AC016FEB73E080918702909105
:100BC00088020E943A35811102C020E029C020E04D
:100BD00021C0883709F073C081E08093280240E08B
:100BE0006FEB73E080918702909188020E949835A4
:100BF0008BED92E00E941C1022E332E0AC016FEB1F
:100C000073E080918702909188020E94443520E031
:100C1000882331F044E064EF71E080E090E005C0AB
:100C200041E068EC70E080E090E0D5DB809111015C
:100C300041E0833609F040E06FEB73E0809187027A
:100C4000909188020E9498351092280238C0963000
:100C500049F58332A1F58091DB02813281F58091E3
:100C6000DC02833261F58091DD02813241F58091B1
:100C7000DE02833221F58091DF02813201F580911D
:100C8000E0028332E1F48091440291E0892780936D
:100C9000440280914402882391F00E94D110109266
:100CA0002F020DC0903159F48E3649F480E1EBEDFE
:100CB000F2E0A9E8B2E001900D928A95E1F7109276
:100CC0008602809143028823D9F0809129028823EB
:100CD000B9F01092290280910601829D2001839D26
:100CE000500C1124052C000C6608770843E752E0ED
:100CF0006FEB73E080918702909188020E946235C9
:100D000080912902811120C0809140028823E1F066
:100D1000809143028823C1F0A1E04A1A510861087A
:100D20007108141415041604170474F0B1E0B0939C
:100D3000290280910601829D2001839D500C11247F
:100D4000052C000C6608770880912B02882309F493
:100D500070C180911101833611F40E940411109228
:100D60002B028091430281114198809113018D36AD
:100D700029F480914402811101C027DB8091120186
:100D80008D3629F480914402811101C0409A43E7D5
:100D900052E06FEB73E080918702909188020E948D
:100DA0008036809185028093ED028430A9F0809195
:100DB000730290917402909347028093460280914F
:100DC0007F0290918002A0918102B0918202B09343
:100DD000B802A093B70208C01092470210924602D0
:100DE0001092B8021092B702809146029091470289
:100DF000803A9F4020F01092470210924602809164
:100E000046029091470201974E9730F48EE190E0B0
:100E10009093470280934602809146029091470248
:100E20009093DA028093D9029093EC028093EB02C4
:100E3000009761F120911401222339F06EE472E0F1
:100E40006CD59093EC028093EB028091450288234D
:100E5000E9F06BEE72E081E993E0CED66091070194
:100E6000E0919103F091920320E080E090E062171E
:100E700031F041915191840F951F2F5FF8CF70E0B1
:100E80000E9436397093EC026093EB028091440229
:100E90008111E1C0809113018437D1F48091EB027C
:100EA0009091EC0240910C0150910D0160910E0166
:100EB00070910F018C0120E030E04017510762076C
:100EC000730720F0892B11F080E001C081E07DDA0A
:100ED000809112018437C9F48091EB029091EC0269
:100EE000409108015091090160910A0170910B0134
:100EF0008C0120E030E0401751076207730720F0B3
:100F0000892B11F0409A01C04098809113018D36D1
:100F100011F481E05ADA809112018D3609F440987B
:100F2000809143028111419A8091850283508230E1
:100F300008F472C00091EB021091EC026801E12C00
:100F4000F12C80910C0190910D01A0910E01B091B6
:100F50000F018C159D05AE05BF0518F410922702F0
:100F600027C001151105D1F380910C0190910D015D
:100F7000A0910E01B0910F0180900C0190900D0195
:100F8000A0900E01B0900F019C01AD012C193D09FC
:100F90004E095F09A4E6B0E00E949E39A5019401C4
:100FA0002E513109410951090E944A3920932702E3
:100FB0008091080190910901A0910A01B0910B0163
:100FC0008C159D05AE05BF0548F1012B39F18091C7
:100FD000080190910901A0910A01B0910B01809044
:100FE000080190900901A0900A01B0900B019C01AA
:100FF000AD012C193D094E095F09A4E6B0E00E943D
:101000009E39A50194012E513109410951090E94CF
:101010004A392093260204C0109227021092260219
:10102000809127020E94EA10809126020E94C4103B
:1010300012C08091430281110EC080912A02882340
:1010400051F010922A026FEB73E080918702909129
:1010500088020E94583580914402882309F438CBD5
:1010600080912C0290912D0201968536910528F4ED
:1010700090932D0280932C0204C010922D021092A6
:101080002C0280912C0290912D02892B09F020CB0B
:1010900090912E0280912F02992311F0815001C06E
:1010A0008F5F80932F0280912F0284363CF083E67D
:1010B00080932F0291E090932E0206C087FF04C018
:1010C00010922F0210922E0280912F020E94EA109D
:1010D000FFCACF93C42F91E0909386028093C00300
:1010E00050E08BED92E00E94E33AC0937102CF9101
:1010F0000895282FCB01223729F46091EB027091DB
:10110000EC0226C0223529F46091B7027091B80232
:101110001FC0253431F42091ED02FB01208381E0D2
:101120000895243649F420E1E9E8F2E0DB0101907A
:101130000D922A95E1F704C0223621F460E014D81C
:1011400080E108952A3639F46091D9027091DA026B
:101150007AD782E008952E3451F42AE0EAE1F2E0F1
:10116000DB0101900D922A95E1F78AE0089580E075
:1011700008951F920F920FB60F9211248F933399F7
:1011800003C081E080932B028F910F900FBE0F90D0
:101190001F9018951F920F920FB60F9211248F93E4
:1011A0001E9903C081E0809329028F910F900FBE9A
:1011B0000F901F9018951F920F920FB60F92112447
:1011C000409A0F900FBE0F901F9018951F920F928C
:1011D0000FB60F92112440980F900FBE0F901F90E2
:1011E00018951F920F920FB60F9211242F933F93D1
:1011F0004F935F936F937F938F939F93AF93BF931F
:10120000EF93FF9380E0E1D8FF91EF91BF91AF9111
:101210009F918F917F916F915F914F913F912F910E
:101220000F900FBE0F901F9018951F920F920FB640
:101230000F9211242F933F934F935F936F937F935C
:101240008F939F93AF93BF93EF93FF9381E0BDD8AC
:10125000FF91EF91BF91AF919F918F917F916F918E
:101260005F914F913F912F910F900FBE0F901F9064
:1012700018951F920F920FB60F9211248F9381E051
:1012800080932A028F910F900FBE0F901F90189598
:101290001F920F920FB60F92112400000F900FBEF5
:1012A0000F901F9018954AD04CD08823A9F08091B8
:1012B00015018F5FA5D0BAD090E020911501309133
:1012C00016012F5F3F4F8217930721F481E098D0DA
:1012D00081E008958EEF94D080E008958823A1F0F6
:1012E00088E090E09093160180931501DCDF811176
:1012F00020C02FEF83EC99E0215080409040E1F72F
:1013000000C00000D0DF15C0A6D0F8D0882389F037
:101310005DD1282F30E0309316012093150140D184
:1013200055D1813019F38FEF9FEF90931601809381
:1013300015018091150190911601089539984198F1
:101340000895F894399840E251EA67E070E085E04A
:101350008A95F1F7000096B1892F827091FD06C041
:10136000415051096109710991F71BC0399A41989F
:10137000EFEBF3E03197F1F700C0000039983998AE
:10138000419AFAEBFA95F1F700C086B18695817023
:1013900091E08927E3E3F3E03197F1F700C0000023
:1013A00078940895F894399A419880FF08C080E1B4
:1013B0008A95F1F739988AEA8A95F1F709C080EAA7
:1013C0008A95F1F739983998419A8AE18A95F1F727
:1013D00000C078940895F894399A419880E18A95EC
:1013E000F1F739983998419A98E19A95F1F786B1D1
:1013F00092E99A95F1F700C07894869581700895E6
:101400000F931F93CF93DF93082FC8E0D0E011E034
:1014100081E0902F912309F480E0C4DF110F219720
:10142000B9F7DF91CF911F910F9108950F931F93FB
:10143000CF93DF9308E010E0C0E0D1E0CCDF811172
:10144000CD2BDD0F01501109C9F78C2FDF91CF9102
:101450001F910F91089526982E980895269823B1EC
:1014600026FB222720F9462F572FBC0193B181E09C
:10147000392F307496FF80E0281791F041155105FF
:101480006105710519F4789480E00895311106C062
:101490004150510961097109282FE8CF81E0089571
:1014A000411551056105710599F7EDCF269823B1D6
:1014B00026FB222720F9462F572FBC0193B181E04C
:1014C000392F307496FF80E0281791F041155105AF
:1014D0006105710519F4789480E00895332331F0A3
:1014E0004150510961097109282FE8CF81E0089521
:1014F000411551056105710599F7EDCFF8942698CE
:1015000026982E9A60E271EA87E090E0A7DF8823B0
:1015100079F085E58A95F1F70000269A2E9887E103
:1015200091E00197F1F700C00000269826982E9AC6
:10153000789481E00895CF93C82FF8942698269840
:101540002E9A60E970ED83E090E0B0DF882371F0BF
:10155000C0FF04C088E78A95F1F708C0269A2E9844
:1015600088E78A95F1F7269826982E9A789481E054
:10157000CF910895F894269826982E9A60E970EDF8
:1015800083E090E093DF882341F088E78A95F1F7C4
:1015900083B186FB882780F901C080E078940895A4
:1015A0000F931F93CF93DF93082FC8E0D0E011E093
:1015B00081E0902F912309F480E0BDDF110F219786
:1015C000B9F7DF91CF911F910F9108950F931F935A
:1015D000CF93DF9308E010E0C0E0D1E0CBDF8111D2
:1015E000CD2BDD0F01501109C9F78C2FDF91CF9161
:1015F0001F910F9108952F923F924F925F926F9299
:101600007F928F929F92AF92BF92CF92DF92EF9292
:10161000FF920F931F93CF93DF93CDB7DEB76697FB
:101620000FB6F894DEBF0FBECDBF9E8B8D8B122FF1
:101630006695262E312CDC012D923C92642F70E0B1
:1016400080E090E00E948C376B017C01ED89FE897F
:101650006283738384839583612F70E080E090E0E0
:101660000E948C37AD89BE8916966D937D938D93BC
:101670009C9319972BED3FE049E450E40E941A38FF
:10168000A70196010E94F8360E94833869837A8305
:101690008B839C83ED89FE89628773878487958716
:1016A0009B01AC010E941A386B017C01AD89BE8997
:1016B0001E966D937D938D939C935197FD01128A95
:1016C000138A148A158A5101AA0CBB1CAA0CBB1CD4
:1016D000C5010E94C2392C01AD89BE8956968C93F2
:1016E000569757965C92C5010E94C2393C01ED891C
:1016F000FE89808F718EC5010E94C2398C01AD892F
:10170000BE895A968C935A975B961C9364E070E05E
:10171000C1010E94A8394C01ED89FE89848F958E04
:1017200064E070E0C1010E94A8395C01AD89BE8906
:101730005E968C935E975F96BC9264E070E0C10108
:101740000E94A839ED89FE8980A391A34D825E8213
:101750006F82788609871A878B869C86AD86BE86BF
:101760008F87988B00E010E0C101032C000CAA0BBE
:10177000BB0B898B9A8BAB8BBC8B021513050CF0C2
:10178000B3C0B801012E000C880B990B0E948E3754
:101790009B01AC010E94943620E030E040E85FE31A
:1017A0000E9494362BED3FE049E450E40E941A3841
:1017B0004B015C0169897A898B899C890E948E37EB
:1017C00020E030E040E850E40E941A389B01AC0170
:1017D000C501B4010E94F8360E947D384B015C01BE
:1017E000AD89BE8952966D937D938D939C93559749
:1017F00029813A814B815C81CA01B9010E949436EA
:10180000A50194010E941A382B013C019B01AC01F7
:10181000C701B6010E94943620E030E040E85FE363
:101820000E9494364B015C01ED89FE8962837383CB
:10183000848395839B01AC01C701B6010E94F836F1
:10184000AD81BE816D937D938D939D93BE83AD835A
:10185000A701960160E070E080E89FE30E94933664
:101860009B01AC010E949436A50194010E94F836B8
:10187000EF81F8856193719381939193F887EF835A
:10188000A3019201C701B6010E94933620E030E027
:1018900040E85FE30E9494369058A50194010E94AD
:1018A000F836A985BA856D937D938D939D93BA87FC
:1018B000A987EB85FC851192119211921192FC87F8
:1018C000EB87AD85BE851D921D921D921D92BE8730
:1018D000AD87EF85F8891192119211921192F88BD0
:1018E000EF870F5F1F4F49CF66960FB6F894DEBFA4
:1018F0000FBECDBFDF91CF911F910F91FF90EF9061
:10190000DF90CF90BF90AF909F908F907F906F901F
:101910005F904F903F902F9008952F923F924F925B
:101920005F926F927F928F929F92AF92BF92CF926F
:10193000DF92EF92FF920F931F93CF93DF9300D02C
:1019400000D000D0CDB7DEB78B01BC0180E090E0C5
:101950000E948C374B015C01D8010D90BC91A02DE9
:10196000BC83AB831E821D82212C312C8B819C81F8
:10197000281639060CF08DC0F801848D958D2D81C7
:101980003E81280F391F3A832983C68CD78C8D81DD
:101990009E81C80ED91EE0A0F1A0E80EF91E008CB1
:1019A000F18DE02DE80FF91FD6012D913D914D915C
:1019B0005C9160817181828193810E941A382B0130
:1019C0003C01D8015A96ED91FC915B972D813E81A7
:1019D000E20FF31FD7012D913D914D915C916081F4
:1019E0007181828193810E941A389B01AC01C301ED
:1019F000B2010E949436A50194010E9494364B01D5
:101A00005C01E981FA816083718382839383D601CB
:101A10004D905D906D907C90A3019201C301B20145
:101A20000E949436A50194010E949436F70120810A
:101A30003181428153810E949436D8015696ED91AE
:101A4000FC9157972D813E81E20FF31F2081318158
:101A5000428153810E941A384B015C01D7014D929B
:101A60005D926D927C921397E981FA8180819181D8
:101A7000A281B381F60180839183A283B383FFEFB8
:101A80002F1A3F0A2D813E812C5F3F4F3E832D83CD
:101A90006DCFC501B4010E946037CB0126960FB609
:101AA000F894DEBF0FBECDBFDF91CF911F910F9194
:101AB000FF90EF90DF90CF90BF90AF909F908F906E
:101AC0007F906F905F904F903F902F900895680F98
:101AD000791F20E030E08617970789F0FC014191DB
:101AE000CF01342748E050E037FF03C02058F3E827
:101AF0003F27220F331F41505109B1F7ECCF832FFD
:101B000008953D9A459845983C9A4498449885C3D1
:101B100069987198689870988EC38DE3809365007A
:101B20008FEF8093640094B114B895B185B997B1E3
:101B3000907897B998B19F6798B99AB11AB89BB144
:101B40008BB98DB1807F8DB98EB18F608EB926989B
:101B50002E98279827982F9A389840983998419826
:101B60003A9A42983B98439853985B9855985D9859
:101B70006B9A739A40E060E881E690E0C7D213BEAA
:101B800015BE68D3BEDFC4DF5498529850986A9847
:101B9000569857982098219822980895CF92DF92CE
:101BA000EF92FF920F931F93CF93DF93EC016B01A2
:101BB0007A01649F8001659F100D749F100D1124A0
:101BC000C8010E94C23999838883080F191F1B839B
:101BD0000A83DD82CC821F821E82F986E8869B877B
:101BE0008A879D878C87DF91CF911F910F91FF90FE
:101BF000EF90DF90CF900895CF93DF93EC018E812B
:101C00009F812C813D81488559858217930791F4E6
:101C10002C853D85240F351F3D872C87EA81FB816C
:101C20002E173F0721F4288139813D872C870197A2
:101C30009F838E838A859B850E94E33A2A853B8514
:101C400088859985820F931F9B878A872A813B818C
:101C50008217930721F4888199819B878A878E81D7
:101C60009F8101969F838E83DF91CF910895D5C286
:101C70001092BC0094EA9093BC009091BC0097FF36
:101C8000FCCF9091B900987F983011F081E00895D1
:101C90008093BB0084E88093BC0081EA96E8A1E0D1
:101CA000B0E02091BC0027FD04C00197A109B10953
:101CB000C1F78091B900887F883111F0803431F705
:101CC00080E008958093BB0084E88093BC0081EAA3
:101CD00096E8A1E0B0E02091BC0027FD04C0019788
:101CE000A109B109C1F79091B900987F81E09832BC
:101CF00009F480E0089584EC8093BC0081EA96E8C2
:101D0000A1E0B0E02091BC0027FD04C00197A1092B
:101D1000B109C1F78091BB00089584E88093BC00AD
:101D200081EA96E8A1E0B0E02091BC0027FD04C064
:101D30000197A109B109C1F78091BB000895DF9215
:101D4000EF92FF920F931F93CF93DF93C62FD42E62
:101D5000052F79018DDF182F882311F011E011C0B4
:101D60008C2FB0DFCD2DD02FEC0EFD1ECE15DF0554
:101D700029F08991A7DF8823C9F3F0CF84E9809304
:101D8000BC00812FDF91CF911F910F91FF90EF90B9
:101D9000DF900895AF92BF92CF92DF92FF920F93A0
:101DA0001F93CF93DF93C82FD62F6A01890160DF7D
:101DB000882319F0FF24F3941DC08D2F83DF8C2F0F
:101DC000816056DFF82E8111F5CF5601E801219789
:101DD000C5018C199D098C179D0728F48CDFF5012E
:101DE00081935F01F5CFCC0DDD1D97DF888384E9FA
:101DF0008093BC008F2DDF91CF911F910F91FF90A9
:101E0000DF90CF90BF90AF90089584E98093BC009D
:101E100008959FEF90937002880F8093DA0085EC0D
:101E20008093DC0008951F920F920FB60F92112439
:101E30002F933F934F935F936F937F938F939F93D2
:101E4000AF93BF93EF93FF938091D900887F883938
:101E500009F4A0C0F0F4803709F4A1C088F4882305
:101E600009F498C0803609F09AC08FEF8093700211
:101E700010924B021092720281E080934A028FC04E
:101E8000883809F487C08039B1F0803809F087C0FC
:101E900012C0883B09F468C038F4803A09F47FC066
:101EA000883A09F441C07BC0883C09F473C0883F7C
:101EB00009F075C06FC08091DB00209170022F3F48
:101EC00031F480937002A5D0811169C01DC090913A
:101ED0007202E92FF0E0E156FC4F80839F5F909300
:101EE000720280914902981778F080914902981304
:101EF00007C0409149026FE973E0822FEAD804C01D
:101F00008091DC0085684CC0809170025CD0809329
:101F1000490280914902811142C040E06FE973E0BB
:101F200080917002D6D83BC08091700272D0882315
:101F300021F080914A02811103C082E780937002F0
:101F400069EB72E080917002D4D8809348021092BD
:101F50004A028091B9028093DB0081E080934B02BA
:101F60008091DC00856C1CC0E0914B02809148029E
:101F7000E81760F4F0E0E754FD4F80818093DB00C8
:101F800080914B028F5F80934B0209C08FEF80934B
:101F9000DB0005C08091DC008B7B8093DC0085EC4E
:101FA0008093DC00FF91EF91BF91AF919F918F9152
:101FB0007F916F915F914F913F912F910F900FBE45
:101FC0000F901F901895982F8936E9F084E9890FB2
:101FD0008230C8F09536A9F09736A9F09F3689F07F
:101FE000913679F0983769F0892F8F7D813559F0D6
:101FF0009E3659F0933259F081E0913049F080E0FB
:10200000089582E0089581E0089580E1089586E0D2
:102010000895982F8F7D823569F0953459F0943664
:1020200049F0892F877F823629F081E09E3419F0AC
:1020300080E0089581E00895FC01808191819827D6
:10204000892798270895FC017083618308951FBA3A
:1020500080E00895F999FECF92BD81BDF89A80B5D0
:102060000895F999FECF92BD81BD60BD0FB6F89479
:102070000F92FA9AF99A0F900FBE80E00895CF92CE
:10208000DF92EF92FF920F931F93CF93DF938B0119
:102090007A01EB016C01C61AD70AC6018C0F9D1F8D
:1020A0002C2F201B30E02E153F0518F4D3DF899329
:1020B000F4CFDF91CF911F910F91FF90EF90DF90C0
:1020C000CF900895CF92DF92EF92FF920F931F93DC
:1020D000CF93DF938B017A01EB016C01C61AD70A0B
:1020E000C6018C0F9D1F2C2F201B30E02E153F05A5
:1020F00018F46991B6DFF4CF80E0DF91CF911F91A2
:102100000F91FF90EF90DF90CF9008952FB7F89444
:10211000FC01608340832FBF0895EAE7F0E08081EF
:102120008F77808380E880BFEEE7F0E080818F6367
:102130008083089583B7817F83BF83B7816083BF26
:1021400083B7816083BF889583B78E7F83BF83B752
:102150008E7F83BF0895E4E6F0E08081877F8083EF
:102160008BE08093810083E690E0909389008093D8
:10217000880080E490E090938B0080938A0086E052
:1021800080936F0080E00895833608F082E690E047
:1021900090938B0080938A00089588E0809381005B
:1021A0000895E5E6F0E080818E7F80838BE0809368
:1021B000910083E690E0909399008093980080E4EA
:1021C00090E090939B0080939A0086E0809371004A
:1021D00080E00895833608F082E690E090939B00BB
:1021E00080939A00089588E0809391000895E5E631
:1021F000F0E08081877F808383E08093A10081E08D
:102200008093720080E008951092A5001092A400BF
:10221000089588E08093A1000895E4E6F0E08081CD
:102220008F77808384E08093BC0082E08093B80045
:102230001092B9000895E5E6F0E080818F7D8083FB
:1022400085E48093DC008FE08093DA001092DD005B
:1022500080E0089584B7877F84BF41E268E180E62B
:1022600090E054DF80E008950C948C1C633041F0C2
:1022700018F4623028F008C02CEE260F223020F42B
:10228000FC01608780E0089588EF08950C94782918
:102290000C9423280C945229DF92EF92FF920F9313
:1022A0001F93CF93DF931F92CDB7DEB77C01162F1C
:1022B000D42E1982AE014F5F5F4F61E00E946034FF
:1022C000082F81114FC0898191E0D9121AC01230B4
:1022D00091F038F4112361F0113069F5182F18626C
:1022E0002CC0133059F0143031F5182F106825C068
:1022F000182F106122C0182F14601FC0182F1064EF
:102300001CC0123091F038F4112361F0113099F4AF
:10231000182F177D12C0133059F0143061F4182FA4
:102320001F770BC0182F1F7E08C0182F1B7F05C0FA
:10233000182F1F7B02C00CEF15C0811799F0412F99
:1023400061E0C7010E941434082F81110BC0F7010E
:10235000E158FF4F1083F7014185528563857485ED
:10236000C70194DF802F0F90DF91CF911F910F91C4
:10237000FF90EF90DF900895F9016230A1F028F40A
:10238000662351F0613059F004C0633081F064304D
:1023900091F010828CEF0895429541700FC043FB7D
:1023A000442740F90BC042FB442740F907C046FBD5
:1023B000442740F903C0441F4427441F408380E062
:1023C0000895CF92DF92FF920F931F93CF93DF93E5
:1023D0001F92CDB7DEB78C01F62E6A011982AE01CD
:1023E0004F5F5F4F61E00E946034811105C096012C
:1023F00049816F2DC801C0DF0F90DF91CF911F91F0
:102400000F91FF90DF90CF9008950F931F93CF937C
:10241000DF931F92CDB7DEB78B011982AE014F5FFC
:102420005F4F61E00E946034811116C0998194FB76
:10243000222720F9F801208393FB222720F9228309
:1024400092FB222720F9218396FB222720F9238360
:10245000991F9927991F94830F90DF91CF911F9116
:102460000F910895CF92DF92EF92FF920F931F93F7
:10247000CF93DF9300D0CDB7DEB78C016A017B012B
:10248000AE014F5F5F4F68EF0E946B34811117C040
:10249000A981BA819601109729F0A7010E949E395F
:1024A0009B0101C0C701AC0164E0C8010E942A344D
:1024B000811105C0F801C586D686E786F08A0F909F
:1024C0000F90DF91CF911F910F91FF90EF90DF90D0
:1024D000CF900895CF92DF92EF92FF921F93CF9308
:1024E000DF9300D000D000D0CDB7DEB77C016B0108
:1024F000AE014B5F5F4F68EF0E946B34182F811164
:1025000026C0AE014F5F5F4F64E0C7010E94763482
:10251000182F81111CC02D813E812115310569F0D4
:1025200040E050E069817A818B819C810E944A3928
:10253000F6012083318342835383F60180819181A8
:10254000A281B381F70185879687A787B08B812FFA
:1025500026960FB6F894DEBF0FBECDBFDF91CF91A8
:102560001F91FF90EF90DF90CF9008951F93CF932E
:10257000DF93EC01162F662369F0FC01E656FF4F4E
:1025800080819181883E934029F44C895D896E89D0
:102590007F8903C040E050E0BA0183E076956795FB
:1025A000579547958A95D1F760E2CE010E941F3476
:1025B000811106C0111102C0198A02C091E0998BE5
:1025C000DF91CF911F910895FC018189FB018083E8
:1025D00080E00895CF92DF92EF92FF92CF93DF9346
:1025E000FC012189211106C0448B558B668B778BAA
:1025F00080E022C0FC01E656FF4F20813181283E59
:10260000334059F46A017B0123E0F694E794D794B0
:10261000C7942A95D1F7960102C020E030E06A0104
:102620007B01EC01A90160E20E941F34811104C00A
:10263000CC8ADD8AEE8AFF8ADF91CF91FF90EF90FE
:10264000DF90CF900895EF92FF920F931F93CF9357
:10265000DF9300D0CDB7DEB77C018B01AE014F5FB9
:102660005F4F60E20E946B34811125C049815A811D
:102670004115510569F4F7014489558966897789BF
:10268000F8014083518362837383F701118A13C079
:1026900093E0440F551F9A95E1F760E070E0F80170
:1026A0004083518362837383F701448B558B668B20
:1026B000778B91E0918B0F900F90DF91CF911F91CD
:1026C0000F91FF90EF900895FF920F931F93CF9378
:1026D000DF93EB01F42E6630710588F4442389F012
:1026E000FB013A96EE0FFF1FEE0FFF1FE80FF91FD9
:1026F000408151816281738120E031E007C08CEF1D
:1027000043C021E030E040E050E0BA018C01C3302A
:10271000D10519F4F801378F2EC0C430D10578F4F3
:10272000C130D105C1F489E07695679557954795F5
:102730008A95D1F764E4C8010E941F3409C0C430EF
:10274000D10591F4220F4EEF60E6C8010E943534A6
:1027500081111AC010C0C230D10519F0F801348FB0
:102760000AC0F801368F07C0C530D105B9F72295E8
:10277000207F4FEEE9CFC00FD11FF11002C01C8E99
:1027800002C081E08C8F80E0DF91CF911F910F918B
:10279000FF9008956630710520F0FA0110828CEFE9
:1027A0000895FC01E60FF71F848DFA01808380E015
:1027B0000895CF92DF92EF92FF920F931F93CF93E2
:1027C000DF938C01EB0169017A01FC01E60FF71F31
:1027D000848D81110DC02A96CC0FDD1FCC0FDD1F1B
:1027E000C00FD11FC882D982EA82FB8280E03EC03E
:1027F0006230710541F180F42097F9F06130710584
:10280000A1F5BA01A90199E0769567955795479585
:102810009A95D1F764E423C063307105D1F0663036
:10282000710518F5BA01A90189E076956795579564
:1028300047958A95D1F764E612C0F80120A731A721
:1028400042A753A7C8CFF80120AB31AB42AB53AB83
:10285000C2CFF80124AB35AB46AB57ABBCCFC801F8
:102860000E941F34811102C0B6CF8CEFDF91CF914F
:102870001F910F91FF90EF90DF90CF900895EF920E
:10288000FF920F931F93CF93DF9300D0CDB7DEB7A6
:102890008C017A0162307105A1F138F4611571057E
:1028A00059F06130710571F055C06330710579F1EF
:1028B0006630710590F14EC0FC0180A591A5A2A5DE
:1028C000B3A54AC0AE014F5F5F4F64E40E946B3412
:1028D000811148C0998120E030E0392F330FA901E0
:1028E00060E070E0232B49F5F80144A555A566A5E5
:1028F00077A5F7014083518362837383F801158EB6
:1029000031C0FC0180A991A9A2A9B3A925C0FC01ED
:1029100084A995A9A6A9B7A91FC0AE014F5F5F4FB3
:1029200064E60E946B3481111DC0298180E090E033
:10293000922F990FA0E0B0E00FC0F70140835183C0
:1029400062837383F80144A755A766A777A791E030
:10295000958F08C08CEF06C0F70180839183A28316
:10296000B38380E00F900F90DF91CF911F910F9173
:10297000FF90EF900895EF92FF920F931F93CF93E4
:10298000DF931F92CDB7DEB78C017B01AE014F5FA5
:102990005F4F61E00E946034811113C09981F8019A
:1029A000E158FF4F908397FF04C091E0F7019083B7
:1029B00002C0F7011082F7019081F801E05CFF4F3F
:1029C00090830F90DF91CF911F910F91FF90EF9027
:1029D00008958F929F92AF92BF92CF92DF92EF9223
:1029E000FF920F931F93CF93DF938C01EB01FC01B8
:1029F000808588836B5F7F4FC8016CDD81114CC07F
:102A00001986BE01645F7F4FC8011DDE811144C07D
:102A1000BE01605F7F4FC801B5D781113DC06E0117
:102A2000F0E2CF0ED11C48018CE1880E911C5E01B2
:102A3000E4E1AE0EB11CE12CF12CA601B701C801F6
:102A40001EDF811129C0F40181914F01F5018193AD
:102A50005F01FFEFEF1AFF0A84E0C80ED11CE6E029
:102A6000EE16F10451F7BE01685C7F4FC80183DFA9
:102A7000811112C0BE016F5F7F4FC801DF91CF91FE
:102A80001F910F91FF90EF90DF90CF90BF90AF908C
:102A90009F908F900C94402ADF91CF911F910F91BE
:102AA000FF90EF90DF90CF90BF90AF909F908F906E
:102AB0000895EF92FF920F931F93CF93DF93CDB7BB
:102AC000DEB7EA970FB6F894DEBF0FBECDBF8C011C
:102AD00021E04EEF69E80E943534811105C040E0E5
:102AE00068E8C8010E941434F801E559FF4F1082CC
:102AF00088EE93E0BF969183808380E991E03296DF
:102B00009183808385E89BE6A1E0B0E032968083E4
:102B10009183A283B38384EA90E7A9E0B0E0EA540A
:102B2000F10980839183A283B383F801148A158A03
:102B3000168A178ABE016F5F7F4FC8014ADFF82EE1
:102B400081110AC0198289E3FE013196D8011896D5
:102B500001900D928A95E1F784E690E0F801EE5736
:102B6000FF4F9183808384E893E032969183808342
:102B700084EF91E032969183808380E09AE03396EF
:102B80009183808381E07096808341E060E8C80192
:102B90000E941434E82E41E06FEFC8010E94143403
:102BA0008E29F82A40E060E0C8010E941434F82A17
:102BB000AE01465C5F4F61E9C8010E946034F82AAB
:102BC0008AADF801E857FF4F808341E060E0C8011B
:102BD0000E941434F82A40E06FEFC8010E941434B8
:102BE000F82A40E060E8C8010E9414348F29E12CE3
:102BF000F12C811158C041E0B701C80165DDFFEF3C
:102C0000EF1AFF0A96E0E916F10499F781114BC01B
:102C1000F801168E178E40E064E070E0C80154DDC4
:102C2000811141C040E065E070E0C8014DDD8111D7
:102C30003AC020E030E042E150E060E070E0C801DE
:102C4000B8DD811130C020E030E440E050E061E0C8
:102C500070E0C801AEDD811126C020E030E043E223
:102C600050E062E070E0C801A4DD81111CC020E0EA
:102C700030E0A90163E070E0C8019BDD811113C061
:102C80008FEFF801E158FF4F80834FEF61E0C801FB
:102C90000E94143491E0F801E058FF4F90838111B5
:102CA00002C072971082EA960FB6F894DEBF0FBE8C
:102CB000CDBFDF91CF911F910F91FF90EF900895BD
:102CC00021E00C94F8204BC45EC5CF92DF92EF92C6
:102CD000FF920F931F93CF93DF931F92CDB7DEB771
:102CE0008C01FC01F08441E060E80E94143441E072
:102CF0006FEFC8010E94143440E060E0C8010E94F8
:102D00001434F801E857FF4F408161E9C8010E947F
:102D1000143441E060E0C8010E94143440E06FEFD9
:102D2000C8010E94143440E060E8C8010E941434D5
:102D3000F1E0FF1691F1FF1628F083E0F8123AC097
:102D400044E02CC041E060E0C8010E94143491E0EE
:102D50009983811132C0C12CD12C76019FEFC91A01
:102D6000D90AE90AF90A998190FF10C081110EC0B1
:102D7000E8ECCE16D104E104F104F1F0AE014F5FAE
:102D80005F4F60E0C8010E946034E8CFF8ECCF16D6
:102D9000D104E104F10489F40FC042E060E0C8010D
:102DA0000E941434811109C0F801E058FF4F94E0EB
:102DB000908303C088EF01C089EF0F90DF91CF911E
:102DC0001F910F91FF90EF90DF90CF9008950F9398
:102DD0001F93CF93DF93EC01062F1885111115C0B7
:102DE00074DF002351F0811113C0CE010E944823EB
:102DF00081110EC0112319F006C0811109C0C058FD
:102E0000DF4F83E0888380E003C06623E1F3EDCFEA
:102E1000DF91CF911F910F910895CF93DF93EC0134
:102E200040E060E00E94143441E06FEFCE010E9468
:102E3000143440E060E0CE010E94143440E061E9C7
:102E4000CE010E94143441E060E0CE010E941434AF
:102E500040E06FEFCE010E941434811104C0C058CD
:102E6000DF4F93E09883DF91CF9108953F924F9287
:102E70005F926F927F928F929F92AF92BF92CF920A
:102E8000DF92EF92FF920F931F93CF93DF93CDB713
:102E9000DEB761970FB6F894DEBF0FBECDBF5C0101
:102EA0004B010CE010E020E030E0AE014F5F5F4FDF
:102EB00064E10E94FC338111BBC06B8570E0762F0A
:102EC00066278C85680F711DE885F0E0FE2FEE27E0
:102ED000FF0F2F01612C712CD40114964D925D923D
:102EE0006D927C9217978A8590E0982F8827990F8A
:102EF0008C0120E030E018960D931D932D933C93A8
:102F00001B970B8110E0102F00278C81080F111DDB
:102F100051961C930E9350973980D501A656BF4FFA
:102F20002D913C91283EB3E03B07E9F1629FC0013F
:102F3000639F900D729F900D11248C509E4F68EEF0
:102F400073E00E943639D50154968D919D910D9074
:102F5000BC91A02D8E879F87A88BB98BD5015196E8
:102F60002C91222301F1089F6001099FD00C189F2A
:102F7000D00C1124CD2CDD24E12CF12C4C145D045B
:102F80006E047F0471F09F01DB010E948F39A30161
:102F900092012C193D094E095F090E944A39B90175
:102FA00002C060EE7AE8F40171836083CE010D9671
:102FB0006C017401A3019201632DC5010E941031BF
:102FC000811136C09D85D40152969C93F501E55739
:102FD000FF4F4081518162817381F401448755879D
:102FE0006687778760807180A281B381C480D58035
:102FF000E680F78040855185628573852089318917
:1030000085010F5B1F4FF801718260823296B18398
:10301000A0833296C082D182E282F38234964083CA
:1030200051836283738338963183208332969083F1
:1030300061960FB6F894DEBF0FBECDBFDF91CF9182
:103040001F910F91FF90EF90DF90CF90BF90AF90C6
:103050009F908F907F906F905F904F903F900895DA
:10306000EF92FF920F931F93CF93DF931F92CDB7F1
:10307000DEB77C0100E041E06BE0C7010E94143440
:10308000182F40E06BE0C7010E941434182BAE01EA
:103090004F5F5F4F63E1C7010E946034812B0F5F78
:1030A0009981977029F0033029F0882321F303C018
:1030B000033009F484EF0F90DF91CF911F910F91AE
:1030C000FF90EF900895EF92FF921F93CF93DF93BD
:1030D000EC017B01142F1886642F79DE112389F00F
:1030E00081110FC0B701CE01C1DE81110AC040E0DD
:1030F00050E0BA01CE01DF91CF911F91FF90EF9088
:10310000AFCFDF91CF911F91FF90EF900895EF9295
:10311000FF920F93CF93611180C0443161F400237B
:1031200011F041E001C040E164E8CF910F91FF90C0
:10313000EF900C941434C22F7C01453109F05AC031
:1031400041E06FEF0E941434C82F40E060E0C701F7
:103150000E941434C82B40E06FEFC7010E94143462
:10316000C82B41E060E8C7010E941434C82B42E03C
:1031700065E8C7010E941434C82B44E06FEFC70113
:103180000E941434C82B40E06DECC7010E94143437
:10319000C82B41E16CECC7010E941434C82B47E0F6
:1031A0006FEFC7010E941434C82B40E06EEBC701DB
:1031B0000E941434C82B46E06FEFC7010E941434FC
:1031C000C82B49E06CECC7010E941434C82B40E0C6
:1031D0006FEFC7010E941434C82B41E06FEFC701A5
:1031E0000E941434C82B40E060E0C7010E941434F0
:1031F0008C2B36C0223069F030F4222381F021304C
:1032000071F541E00DC0233031F0243041F544E048
:1032100007C042E005C043E003C086EF21C040E0A4
:103220006AE0C7010E94143481111AC0002311F012
:1032300020E101C020E04FEE64E8C7010E94353470
:1032400081110EC0F701E65AFF4FC08340E050E005
:10325000BA01C701CF910F91FF90EF9001CF85EF99
:10326000CF910F91FF90EF900895CF92DF92EF9260
:10327000FF920F931F93CF93DF93CDB7DEB7C65462
:10328000D1090FB6F894DEBF0FBECDBF7C01162F5B
:10329000CE0101966C0189E3F60111928A95E9F756
:1032A00024961FAE1EAE249727961FAE279726960C
:1032B0001FAE269722961CAE1DAE1EAE1FAE2297E5
:1032C00061E0C7010E94F323111123C0F701E35904
:1032D000FF4F2081223090F43197408150E060E030
:1032E00070E0213031F4413251056105710530F44F
:1032F0000EC04D3051056105710548F0AE014B5BC4
:103300005F4FBE01625C7F4FC701A0D702C0C701FB
:103310008BD58111B9C0F701E756FF4F808181112C
:1033200004C032976081718102C067E171E0C7011A
:103330000E94242B8111A8C000E024E040E060E05E
:10334000C701E5DE8111A0C041E06FEFC7010E9417
:103350001434182FAE014E5B5F4F64E8C7010E9422
:103360006B34182B40E06FEFC7010E941434812B9F
:1033700009F08AC0F701EC5AFF4F24968EAD9FAD3D
:10338000249724E0880F991F2A95E1F7A0E0B0E088
:1033900080839183A283B383B601C7011ADB8111B5
:1033A00073C089E3F601D701189601900D928A95B2
:1033B000E1F7AE014A5B5F4F61E0C7010E946034F4
:1033C000811162C027968FAD2797F701E158FF4F13
:1033D000808340E060E0C7010E944C11811154C01D
:1033E00040E062E0C7010E944C1181114DC083E0B2
:1033F000F701E058FF4F8083AE014C5B5F4F60E008
:10340000C7010E94522981113FC025968FAD259793
:10341000F701EC59FF4F8083AE014C5B5F4F61E0D9
:10342000C7010E94522981112FC025968FAD259783
:10343000F701E15AFF4F8083AE01465C5F4F63E0C6
:10344000C7010E94782681111FC08AAD9BADACAD2B
:10345000BDADF701E05AFF4F80839183A283B38310
:10346000AE01465C5F4F64E0C7010E94782681117F
:103470000BC0F701E55AFF4F4AAD5BAD6CAD7DADBA
:103480004083518362837383CA5BDF4F0FB6F89426
:10349000DEBF0FBECDBFDF91CF911F910F91FF9087
:1034A000EF90DF90CF9008950F931F93CF93DF930A
:1034B0001F92CDB7DEB78B01AE014F5F5F4F63E167
:1034C0000E9460349981492F477050E060E070E0BD
:1034D000F8014083518362837383987109F08AEF06
:1034E0000F90DF91CF911F910F9108950F931F932C
:1034F000CF93DF9300D000D0CDB7DEB78B01FC01B6
:10350000E65AFF4F2081243071F4BE016F5F7F4F78
:10351000CBDF49815A816B817C8144305105610543
:10352000710581F40BC0AE014F5F5F4F64E10E94F3
:103530006034811109C0998190FF04C091E0F801C5
:10354000908302C0F80110820F900F900F900F909F
:10355000DF91CF911F910F91089566C477C62F9286
:103560003F924F925F926F927F928F929F92AF9213
:10357000BF92CF92DF92EF92FF920F931F93CF9360
:10358000DF93CDB7DEB7A1970FB6F894DEBF0FBEBD
:10359000CDBF411551056105710509F445C039A339
:1035A00028A34C8F5D8F6E8F7F8F1C0160E00E947F
:1035B000B6128111CFC040E063E070E0C10184D851
:1035C0008111C8C022E32C8BC12CD12C7601412C57
:1035D000512C320100E010E0A12CB12C41E0BE01E1
:1035E0006F5F7F4FC1016FDD811120C08B89811119
:1035F00015C089819A81A80EB91E8D819E81AF81E7
:10360000B885480E591E6A1E7B1E8A88912C080DAB
:10361000191D3FEFC31AD30AE30AF30A4C8941503C
:103620004C8B4111DBCF09C08CEF94C0CD28CE2844
:10363000CF2809F08FC08AEF8DC0C114D104E104F6
:10364000F104C9F3C801A0E0B0E077276627A7011D
:1036500096010E944A39DA01C9019058AF4FBF4F15
:103660009D01442755272C8B3D8B4E8B5F8B232B45
:10367000242B252B09F459C08C8D9D8DAE8DBF8DCB
:103680009058AF4FBF4F9D0144275527288F398F42
:103690004A8F5B8F232B242B252B09F446C0C501B1
:1036A000A0E0B0E077276627A70196010E944A397B
:1036B00049015A018C8D9D8DAE8DBF8D281739071C
:1036C0004A075B0790F5C301B201A70196010E946A
:1036D0004A39CA01B9012C893D894E895F890E9406
:1036E0004A3969017A01C501B401288D398D4A8DA5
:1036F0005B8D0E944A3980E090E0A1E0B0E04C018F
:103700005D01821A930AA40AB50AA5019401C701B2
:10371000B6010E9427396B017C0120E8D20EE11C22
:10372000F11C6701EE24FF2403C0C12CD12C7601CB
:10373000A8A1B9A1CD92DD92ED92FC92139761E020
:10374000C1010E94B612811105C0B701A601C101D5
:103750000E94EA12A1960FB6F894DEBF0FBECDBF4D
:10376000DF91CF911F910F91FF90EF90DF90CF905D
:10377000BF90AF909F908F907F906F905F904F9091
:103780003F902F9008952F923F924F925F926F92A9
:103790007F928F929F92AF92BF92CF92DF92EF92E1
:1037A000FF920F931F93CF93DF93CDB7DEB764974C
:1037B0000FB6F894DEBF0FBECDBF411551056105B0
:1037C000710509F444C019016A017B018C0140E0D4
:1037D00050E0BA010E943411811185C0AE014C5EE7
:1037E0005F4F60E0C8010E94E11181117CC040E0A0
:1037F00060E0C8010E944C11811175C040E063E097
:1038000070E0C8010E94641381116DC042E3842EF0
:10381000912C412C512C3201A12CB12C41E0BE0144
:103820006F5F7F4FC8014FDC811113C08B898111FD
:1038300009C089819A81A80EB91E8FEF481A580ACB
:10384000680A780AE1E08E1A910841F709C08CEF06
:103850004AC045284628472809F045C08AEF43C09A
:103860004114510461047104C9F3F0E8DF0EE11C56
:10387000F11C6701EE24FF24C501A0E0B0E077272A
:103880006627A30192010E944A39DA01C9019058C2
:10389000AF4FBF4FCD01AA27BB27A7019601281B19
:1038A000390B4A0B5B0BA8EEB3E00E949E39F10185
:1038B0006083718382839383F801608F718F828F1D
:1038C000938FF1014081518162817381C8010E940F
:1038D0003411811108C09C89992329F041E060E0EE
:1038E000C8010E944C1164960FB6F894DEBF0FBE5B
:1038F000CDBFDF91CF911F910F91FF90EF90DF909F
:10390000CF90BF90AF909F908F907F906F905F907F
:103910004F903F902F900895CF93DF93EC01CB0110
:10392000BA0169312CEC720727E0820791055CF43B
:10393000611520E3720728EF82072FEF920774F0DA
:1039400097FF05C00FC068E17CEC87E090E02AEFAC
:1039500030E040E050E00E946C390DC060E070E360
:1039600088EF9FEF2AEF30E040E050E00E946C3992
:10397000305F4F4F5F4FA90168E2CE01DF91CF91D9
:103980000C941F340F931F93CF93DF9300D0CDB7C8
:10399000DEB78B01AE014F5F5F4F68E20E946B3470
:1039A000811117C029813A813F70211598E03907AC
:1039B00008F030519AEF929FA001939F500D11246F
:1039C000052E000C660B770BF80140835183628350
:1039D00073830F900F90DF91CF911F910F910895F6
:1039E0003F924F925F926F927F928F929F92AF928F
:1039F000BF92CF92DF92EF92FF920F931F93CF93DC
:103A0000DF93CDB7DEB728970FB6F894DEBF0FBEB1
:103A1000CDBF9E838D83F886EF82CC24CA94DC2CA4
:103A20007601AF81B885CD92DD92ED92FC9213972D
:103A30004801590193E0B694A794979487949A9576
:103A4000D1F7D901C80187709927AA27BB27898395
:103A50009A83AB83BC832401350123E0440C551CBD
:103A6000661C771C2A95D1F775016401312CC416A8
:103A7000D506E606F70608F040C031103EC0ED81DD
:103A8000FE81EC0DFD1D8081C814D904EA04FB04FD
:103A900061F490E0098002C0959587950A94E2F759
:103AA00009811A812B813C8103C000E010E098015C
:103AB00080FF0EC0040D151D261D371DAF81B88572
:103AC0000D931D932D933C931397332433940AC085
:103AD00086950F5F1F4F2F4F3F4F0830110521056F
:103AE000310531F7BFEFCB1ADB0AEB0AFB0AE8E03E
:103AF0004E0E511C611C711CBACF28960FB6F8945B
:103B0000DEBF0FBECDBFDF91CF911F910F91FF9010
:103B1000EF90DF90CF90BF90AF909F908F907F906D
:103B20006F905F904F903F900895DC01CB0126E0AD
:103B3000B695A795979587952A95D1F7BC01660FFD
:103B4000771F660F771FFB01E65FFD4F81E0408125
:103B5000518162817381452B462B472B09F480E00C
:103B60000895CF92DF92EF92FF920F931F93680117
:103B70007901E3E0F694E794D794C794EA95D1F7F6
:103B80000770112722273327C416D506E606F70645
:103B900070F4FC01EC0DFD1D81E090E001C0880F88
:103BA0000A95EAF79081892B808380E001C08EEC32
:103BB0001F910F91FF90EF90DF90CF9008950F939A
:103BC0001F93AB0106E010E020E030E060EB0E94C4
:103BD000E4331F910F9108950F931F93AB0106E0FB
:103BE00010E020E030E060EB0E94FC331F910F9169
:103BF00008952F923F924F925F926F927F928F9291
:103C00009F92AF92BF92CF92DF92EF92FF920F936B
:103C10001F93CF93DF93CDB7DEB765970FB6F894B8
:103C2000DEBF0FBECDBF9A8B898B6B8B5D8B4C8BB0
:103C30002F87388B170128012AA53BA54CA55DA528
:103C40002F83388749875A871B861C861D861E86C8
:103C50002B853C854D855E858EA59FA5A8A9B9A914
:103C6000281739074A075B07B9F0AE01495F5F4F74
:103C70007A010AA51BA52CA53DA5B201A1018C893D
:103C80009D89AEDE6F80788489849A845FEF6516A3
:103C900075068506950611F480E028C0C401B301BD
:103CA0006A0D7B1D8C1D9D1D40DF9B8989131DC0E6
:103CB00094018301B201A1018F85988952DFA4018B
:103CC00093012F5F3F4F4F4F5F4F2AA73BA74CA752
:103CD0005DA78B859C85AD85BE850196A11DB11D17
:103CE0008B879C87AD87BE87B3CF8EECEAA9FBA9F3
:103CF0002AA53BA54CA55DA5208331834283538330
:103D0000811123C06F85788989899A8958DF81114B
:103D10001CC0BE016F5F7F4F89899A895DDFAF85C7
:103D2000B889FE01319640E050E0BA0142155305D2
:103D30006405750551F02D919191291305C04F5FD0
:103D40005F4F6F4F7F4FF2CF8EEC65960FB6F894B2
:103D5000DEBF0FBECDBFDF91CF911F910F91FF90BE
:103D6000EF90DF90CF90BF90AF909F908F907F901B
:103D70006F905F904F903F902F900895AF92BF92B9
:103D8000DF92EF92FF920F931F93CF93DF93CDB704
:103D9000DEB763970FB6F894DEBF0FBECDBF8C01C0
:103DA0005B017C018FE7E80EF11CF701D08040EC4D
:103DB00061E0C8010E941434811126C041E0BE01B7
:103DC0006F5F7F4FC8017FD981111EC041E06FEF47
:103DD000C8010E941434811117C0A50166EBC80107
:103DE0000E946B34811110C040E06FEFC8010E9447
:103DF0001434811109C04D2D61E0C8010E941434B2
:103E0000811102C0F701D08263960FB6F894DEBF2D
:103E10000FBECDBFDF91CF911F910F91FF90EF901B
:103E2000DF90BF90AF9008954F925F926F927F9214
:103E30008F929F92AF92BF92CF92DF92EF92FF92BA
:103E40000F931F93CF93DF9300D000D0CDB7DEB791
:103E50004C01642E152F062FB72E722E41E06FEF06
:103E60000E94143481111AC040E06FE4C4010E9422
:103E70001434811113C04CE26EE4C4010E94143466
:103E800081110CC040E06FEFC4010E941434811115
:103E900005C044EB66EBC4010E941434240123E7FF
:103EA000420E511CF201108231961082319610821E
:103EB000319610823196108231961082C12CD12C0D
:103EC00076017720A9F0C701B6016C547F4F8F4F60
:103ED0009F4F2BDE81110CC02CE2C216D104E104ED
:103EE000F10431F0FFEFCF1ADF0AEF0AFF0AEBCF40
:103EF000CE0101969F938F93BF920F931F936F9262
:103F0000FF92EF92DF92CF9284EBA82EB12CC12CBE
:103F1000D12C16E0E12EF12C00E010E09201A4017A
:103F200047585F4F672DC40164DE0FB6F894DEBFBB
:103F30000FBECDBF811109C0F401E259FF4F91E0DE
:103F4000908332976082319670820F900F900F901D
:103F50000F90DF91CF911F910F91FF90EF90DF9025
:103F6000CF90BF90AF909F908F907F906F905F9019
:103F70004F900895CF93DF93EC01462F416060E0AE
:103F80000E941434811112C0CE0182D381110EC05F
:103F900040E050E0BA01CE0163D8811107C040E093
:103FA00060E0CE01DF91CF910C941434DF91CF917A
:103FB00008955F926F927F928F929F92AF92BF927D
:103FC000CF92DF92EF92FF920F931F93CF93DF93E5
:103FD0001F92CDB7DEB74C01562EB42ED22E38012B
:103FE000198241E06FEF0E941434182F40E060E026
:103FF000C4010E941434182B40E06FEFC4010E94EA
:104000001434182B552091F0CC2031F0A3016BEC27
:10401000C4010E946034182BAA20C9F0AE014F5F82
:104020005F4F6EEEC4010E94603410C0CC2031F0AE
:104030004B2D6BECC4010E941434182BAA2039F0CC
:104040002D2D40E86EEEC4010E943534182B41E05E
:104050006FEFC4010E941434182B41E060E0C401EA
:104060000E941434182B40E06FEFC4010E941434F6
:1040700099819F7EF7019083812B0F90DF91CF91E3
:104080001F910F91FF90EF90DF90CF90BF90AF9076
:104090009F908F907F906F905F9008958F929F92E6
:1040A000AF92BF92CF92DF92EF92FF920F931F9346
:1040B000CF93DF931F92CDB7DEB74C018B01F42E67
:1040C000B22E1982222329F0FC01E158FF4FD08043
:1040D00001C0D12C41E061E0C4010E94143481117F
:1040E00014C060E4C40146DF81110FC091E0F912F1
:1040F0000CC0A12CCC24C394FE0131967F0120E09A
:1041000040E061E0C40155DF02C0F8011082811176
:104110000DC0BB2059F04D2D61E0C4010E94143444
:10412000811104C0F401E158FF4FD0820F90DF915C
:10413000CF911F910F91FF90EF90DF90CF90BF90A4
:10414000AF909F908F9008958F929F92AF92BF9261
:10415000CF92DF92EF92FF920F931F93CF93DF9353
:104160001F92CDB7DEB74C017B01142FB22E222354
:1041700029F0FC01E158FF4FD08001C0D12C42E072
:1041800061E0C4010E941434811113C060E0C401D5
:10419000F1DE81110EC0113061F4AA24A394C12C68
:1041A0008E010F5F1F4F20E040E061E0C40101DF9E
:1041B00002C0F701108281110DC0BB2059F04D2DB6
:1041C00061E0C4010E941434811104C0F401E1587B
:1041D000FF4FD0820F90DF91CF911F910F91FF90F1
:1041E000EF90DF90CF90BF90AF909F908F90089509
:1041F000CF92DF92EF92FF920F931F93CF93DF93B3
:10420000EC016A01E22E8C0101581F4FF801F08089
:1042100020E04E2D43DF811110C020E04E2DB6016D
:10422000CE0192DF811109C04F2D61E0CE010E94C5
:104230001434811102C0F801F082DF91CF911F91F7
:104240000F91FF90EF90DF90CF9008952F923F92C3
:104250004F925F926F927F928F929F92AF92BF9296
:10426000CF92DF92EF92FF920F931F93CF93DF9342
:10427000CDB7DEB7A8970FB6F894DEBF0FBECDBF9F
:104280004C017CA36BA35EA34DA31B861C861D86DD
:104290001E861F82188619861A861A8A198AFC01B8
:1042A000E757FF4F208131813C8B2B8B1C0133E77B
:1042B000230E311CD1011C922C01B4E74B0E511C72
:1042C000F20110823196108231961082319610825E
:1042D0003196108241E06FEF0E9414348111BFC10A
:1042E00040E06FE4C4010E9414348111B8C14CE273
:1042F0006EE4C4010E9414348111B1C140E06FEF3B
:10430000C4010E9414348111AAC144EB66EBC401BC
:104310000E9414348111A3C140E060E8C4010E94EE
:10432000143481119CC120E0AE014F5E5F4FBE018D
:104330006E5E7F4FC4015CDF811191C11B861C86BC
:104340001D861E86940127583F4F3A8F298F3E01C4
:104350003BE0630E711C7F926F921F921F921F921F
:1043600083E08F931F921F921F921F9244EBA42E03
:10437000B12CC12CD12C16E0E12EF12C00E010E084
:104380009101498D5A8D60E0C40133DC0FB6F89479
:10439000DEBF0FBECDBF811162C1AB84BC84CD84B2
:1043A000DE84BE01615F7F4FC401E8DC811157C12B
:1043B0008F859889AB89BC89A817B90708F05DC0BB
:1043C000F1011082D2011C92329610823196108235
:1043D0003196108231961082C601B5016C547F4F20
:1043E0008F4F9F4FA2DB882319F17F926F921F920C
:1043F0001F921F9283E08F93DF92CF92BF92AF9272
:1044000024EBA22EB12CC12CD12C16E0E12EF12CE4
:1044100000E010E09101498D5A8D61E0C401E9DBB3
:104420000FB6F894DEBF0FBECDBF811118C10CC00E
:10443000FCE2AF16B104C104D104B8F6BFEFAB1A69
:10444000BB0ACB0ADB0AC8CFAB84BC84CD84DE8434
:10445000BE01615F7F4FC40191DC811100C18F8576
:1044600098892B893C892817390780F421E093E04B
:10447000492E512C612C712C0DC020E0412C512C67
:1044800032011D8A1E8A1F8A188E0CC020E0412C22
:10449000512C320181E090E0A0E0B0E08D8B9E8B4A
:1044A000AF8BB88F8F859889AB89BC898A179B079A
:1044B00008F0BBC026E0F101DE01119601900D92DB
:1044C0002A95E1F7AB89BC898A1B9B0B97FF03C038
:1044D0009195819591099C01990F440B550B2F8F54
:1044E00038A349A35AA383E0482E512C612C712C88
:1044F000A4014D585F4F58A74FA3CE0107967C01EA
:104500009601850146E050E060E070E0898D9A8D6B
:1045100067DACF80D884E984FA849FEFC916D90678
:10452000E906F90609F49AC0C701B6016C547F4F39
:104530008F4F9F4FFADA90E0A0E0B0E02D893E89DE
:104540004F89588D82179307A407B50709F06CC0EF
:10455000D301C2010196A11DB11D8B8F9C8FAD8F20
:10456000BE8F9701860146E050E060E070E0C10137
:10457000F8DA811174C0560167019FEFA91AB90AD0
:10458000C90AD90AB101C4011ADB811168C0BE0190
:10459000615F7F4FC401F2DB811161C08F85988913
:1045A000AC01AB89BC894A1B5B0B57FF03C051951B
:1045B00041955109052E000C660B770BEB89FC89A0
:1045C000E817F907D8F48F8D98A1A9A1BAA184178B
:1045D0009507A607B70720F5BE016F5F7F4FC4019F
:1045E000EEDA96E0FE013196D401AD58BF4F01904E
:1045F0000D929A95E1F78823B9F031C086E0EFA1DA
:10460000F8A5DE01119601900D928A95E1F74B8C89
:104610005C8C6D8C7E8C4F8F58A369A37AA36DCF71
:104620004B8C5C8C6D8C7E8C2D89ABA1BCA14D928A
:104630005D926D927C921397EDA1FEA12083F4010F
:10464000E259FF4F81E0808332978C918083ADA146
:10465000BEA18C913196808380E001C08EECA8963B
:104660000FB6F894DEBF0FBECDBFDF91CF911F9183
:104670000F91FF90EF90DF90CF90BF90AF909F9001
:104680008F907F906F905F904F903F902F90089504
:10469000EF92FF920F931F93CF93DF931F92CDB7AB
:1046A000DEB77C01198200E010E0BE016F5F7F4F32
:1046B000C7010E94761A81110DC09981913051F085
:1046C0000F5F1F4F083C110521F0C7010E94813484
:1046D000ECCF89EF0F90DF91CF911F910F91FF9059
:1046E000EF900895CF92DF92EF92FF920F931F9376
:1046F0008B019C0140E050E060E070E40417150776
:104700002607370740F4A2E07695679557954795B9
:10471000AA95D1F7F3CF80E090E0DC014115510577
:1047200061057105F9F06C017D01C40ED51EE61E10
:10473000F71EB695A795979587950C151D052E051F
:104740003F0540F00C191D092E093F09840F951FE4
:10475000A61FB71FE2E07695679557954795EA95AE
:10476000D1F7DCCFBC01CD011F910F91FF90EF90ED
:10477000DF90CF900895CF92DF92EF92FF921F9338
:10478000CF93DF931F92CDB7DEB77C0140E063E8A3
:104790000E941434182F811117C0C12CD12CAE01E6
:1047A0004F5F5F4F63E8C7010E946034182F898113
:1047B00081110AC0111108C08FEFC81AD80A88ECFD
:1047C000C816D10461F719EF41E063E8C7010E9400
:1047D0001434812B0F90DF91CF911F91FF90EF90B8
:1047E000DF90CF9008952F923F924F925F926F92F9
:1047F0007F928F929F92AF92BF92CF92DF92EF9271
:10480000FF920F931F93CF93DF93CDB7DEB72E9711
:104810000FB6F894DEBF0FBECDBF9C0125593F4FA8
:104820003D872C87F901C080F7E0CF1609F450C10D
:10483000E62E8C0141E060E80E941434F82E41E03D
:104840006FEFC8010E941434F82A40E060E0C8010C
:104850000E941434F82A46E06FEFC8010E94143415
:10486000F82AAE01455F5F4F63E8C8010E946034DB
:10487000F82A4B85446063E8C8010E941434F82A82
:1048800047E06FEFC8010E941434F82A41E061E864
:10489000C8010E941434F82AC8010E948134F82A01
:1048A00041E060E8C8010E941434F82A2E2D2170DE
:1048B000222EE0FE54C0C0FC52C04BE664E9C801A1
:1048C0000E941434D82EC80156DF8D29F82AAE0173
:1048D000495F5F4F60E9C8010E947634F82A8F81F2
:1048E0009885A985BA85392F3F77332EEFE0B695A5
:1048F000A79597958795EA95D1F7E82FE170DE2E79
:1049000044E264E9C8010E941434F82AC80133DF84
:10491000F82AAE01495F5F4F60E9C8010E94763412
:10492000F82A8F81988529853A8539832A839B8344
:104930008C8345E264E9C8010E941434F82AC80156
:104940001ADFF82AAE01495F5F4F60E9C8010E9493
:104950007634F82A89859A859D838E8302C0D12C6E
:10496000312CFE2DF470FE87E2FE76C0C2FC74C0CE
:1049700043E764E9C8010E941434B82EC801FBDE85
:104980008B29F82AAE01495F5F4F60E9C8010E9498
:104990007634F82A8F809884A984BA84BA2CA92CFA
:1049A000982C8824240135016624772444E764E99F
:1049B000C8010E941434F82AC801DDDEF82AAE01CD
:1049C000495F5F4F60E9C8010E947634F82A8F8002
:1049D0009884A984BA848B2C9924AA24BB24842883
:1049E0009528A628B72845E764E9C8010E94143431
:1049F000F82AC801C0DEF82AAE01495F5F4F60E9BE
:104A0000C8010E947634F82A4F80588469847A84D9
:104A1000762C652C542C44246624772446E764E9DC
:104A2000C8010E941434F82AC801A5DEF82AAE0194
:104A3000495F5F4F60E9C8010E947634F82A8F8190
:104A40009885A985BA858B2F9927AA27BB27482A3D
:104A5000592A6A2A7B2A06C0812C912C5401412CA8
:104A6000512C320140E061E8C8010E941434F82A58
:104A700046E06FEFC8010E941434F82AAE01455F8A
:104A80005F4F63E8C8010E946034F82A4B854B7F72
:104A900063E8C8010E941434F82A41E06FEFC801AE
:104AA0000E941434F82A41E060E0C8010E941434E6
:104AB000F82A40E06FEFC8010E941434F82A40E061
:104AC00060E8C8010E941434F82A09F057C002C0F7
:104AD000F12C54C0222011F0C0FE04C02E852111FB
:104AE00013C048C0F801E459FF4F30823196D0829C
:104AF000DE0111963C96C80181589F4F2D9121935C
:104B0000E817F907D9F7EACFC2FC34C0F801E15938
:104B1000FF4F39E0880C991CAA1CBB1C3A95D1F7B1
:104B200080829182A282B382411451046104710493
:104B3000B1F0A3019201395141095109A8EEB3E046
:104B40000E949E39DC01CB0124E0B695A79597958C
:104B500087952A95D1F791958195910902C080E0BA
:104B600090E0092E000CAA0BBB0BF80184839583FF
:104B7000A683B783EC28EC85FD85E0828F2D2E96E9
:104B80000FB6F894DEBF0FBECDBFDF91CF911F915E
:104B90000F91FF90EF90DF90CF90BF90AF909F90DC
:104BA0008F907F906F905F904F903F902F900895DF
:104BB000CF92DF92EF92FF92611571058105910509
:104BC000D1F0DC01CB010197A109B10920E030E06F
:104BD0006C017D01CC24CD28CE28CF2839F0B695A4
:104BE000A795979587952F5F3F4FF2CF322F2227BA
:104BF000820F931F02C080E090E0FF90EF90DF9063
:104C0000CF9008958F929F92AF92BF92CF92DF92F2
:104C1000EF92FF924A015B01A22FB0E020E03FE259
:104C20004AE350E00E949E396B017C0124EFC20EE2
:104C300021E0D21EE11CF11CA8EEB3E0A501940115
:104C40000E949E394B015C01C701B60120ED37E09F
:104C500040E050E00E944A39820E931EA41EB51E09
:104C6000C701B60128EE33E040E050E00E944A3927
:104C7000C501B4010E944A39CA01B901FF90EF9001
:104C8000DF90CF90BF90AF909F908F900895CF927C
:104C9000DF92EF92FF92CF93DF93EB01A42FB0E06E
:104CA00020E03FE24AE350E00E949E396C507E4F84
:104CB0008F4F9F4F28EEC22E23E0D22EE12CF12CF5
:104CC000A70196010E944A39DE010E949E396C506C
:104CD0007E4F8F4F9F4FA70196010E944A39CA010C
:104CE000B901DF91CF91FF90EF90DF90CF900895C1
:104CF000AF92BF92CF92DF92EF92FF921F93CF932A
:104D0000DF93CDB7DEB72B970FB6F894DEBF0FBE9B
:104D1000CDBF7C015A011A86198618866330B8F413
:104D2000AE01455F5F4F60E00E944A11182F81116C
:104D300008C0AE01465F5F4F66E4C7010E94603461
:104D4000182F6A85862F90E0A0E0B0E02BC063307A
:104D500081F5AE01455F5F4F60E00E944A11182F58
:104D6000811188C0AE01455F5F4F60E0C7010E94BE
:104D70004A11182F811108C0AE01485F5F4F61E5ED
:104D8000C7010E946B34182F28853985B901772710
:104D9000CB01A0E0B0E004C0880F991FAA1FBB1F81
:104DA0003A95D2F7BC01CD016F5F7F4F8F4F9F4F78
:104DB0005DC0643009F062C0BE016F5F7F4F0E942A
:104DC00005128C81882331F1AE01455F5F4F60E0B1
:104DD000C7010E944A11182F811141C0AE01485FDE
:104DE0005F4F61E5C7010E946B34182F2885398514
:104DF000C9019927A0E0B0E004C0880F991FAA1F3D
:104E0000BB1F3A95D2F70196A11DB11D6C0111117E
:104E100028C002C0C12CD12CAE01455F5F4F61E0BC
:104E2000C7010E944A11182F81111BC0AE014A5FB1
:104E30005F4F61E7C7010E946B34182F2E813F81BD
:104E4000C9019927A0E0B0E004C0880F991FAA1FEC
:104E5000BB1F3A95D2F70196A11DB11D04C0C12C0C
:104E6000D12C80E090E0BC016C197D094B85C70115
:104E70000EDF08C060E070E0CB0104C060E070E0CD
:104E8000CB0110E0F5016083718382839383812FCE
:104E90002B960FB6F894DEBF0FBECDBFDF91CF913A
:104EA0001F91FF90EF90DF90CF90BF90AF9008954B
:104EB0008F929F92AF92BF92CF92DF92FF920F9309
:104EC0001F93CF93DF93CDB7DEB728970FB6F89433
:104ED000DEBF0FBECDBF8C0149015A01633008F51A
:104EE000AE01485F5F4F60E00E944A11F82E8111C9
:104EF00097C02885B501A401C80184DE4FEF613059
:104F000021E0720708F4460FF801E85AFF4F842F9A
:104F100090E09183808366E4C8010E941434F82EE7
:104F20007FC0633021F5AE01485F5F4F60E00E94B3
:104F30004A11F82E2885B501A401C80163DE88272F
:104F4000992736DE9F838E83F801E85AFF4F9183BD
:104F50008083F11065C0AC0161E5C8010E941F3477
:104F6000F82E81115DC0F801E05AFF4F52C0643045
:104F700009F054C0BE016F5F7F4F0E9405128C8103
:104F8000882331F1AE01485F5F4F60E0C8010E94A5
:104F90004A11F82E811144C0AE014A5F5F4F61E5AE
:104FA000C8010E946B34F82E81113AC02E813F81D6
:104FB000C9019927A0E0B0E004C0880F991FAA1F7B
:104FC000BB1F3A95D2F70196A11DB11D6C0102C01D
:104FD000C12CD12CAE01485F5F4F61E0C8010E9437
:104FE0004A11F82E81111CC02885B501A401C80101
:104FF00009DE6C0D7D1D811D911DDADDAC0161E7BF
:10500000C8010E941F34F82E81110AC0F801E55A28
:10501000FF4F80829182A282B38202C08CEFF82E71
:105020008F2D28960FB6F894DEBF0FBECDBFDF914F
:10503000CF911F910F91FF90DF90CF90BF90AF90D5
:105040009F908F900895EF92FF920F931F93CF93AD
:10505000DF93CDB7DEB72D970FB6F894DEBF0FBE46
:10506000CDBF1D8640FD10C1042F7C01611106C01B
:1050700084EF840F873008F007C109C0613009F060
:10508000A1C088EF840F873008F0FEC01FC04C30ED
:1050900011F448E103C04E3081F440E367E5C701F5
:1050A0000E94143448E066E5C7010E94143481115F
:1050B000ECC0102F169511508DC0403111F440E412
:1050C000EDCF423109F07EC040E5E8CF4830F9F439
:1050D00040E168E4C7010E94143448E067E4C70176
:1050E0000E941434182F42E062E3C7010E94143476
:1050F000182B4CE060E3C7010E941434182B41E0E8
:105100006FEFC7010E941434182B40E34AC04A30A5
:1051100099F448E268E4C7010E94143448E067E467
:10512000C7010E941434182F43E062E3C7010E94B4
:105130001434182B49E029C04C3099F448E368E452
:10514000C7010E94143448E067E4C7010E94143488
:10515000182F43E062E3C7010E941434182B48E083
:1051600014C04E3079F548E468E4C7010E94143455
:1051700048E067E4C7010E941434182F43E062E35B
:10518000C7010E941434182B47E060E3C7010E9456
:105190001434182B41E06FEFC7010E941434182B10
:1051A00040E260E3C7010E941434182B40E06FEF27
:1051B000C7010E941434812B09F067C0102F169587
:1051C000115033C0102F16951150662319F061301D
:1051D00061F15AC0AE014B5F5F4F63E0C70188DDEC
:1051E00081111FC0AE014F5F5F4F62E0C70180DDDC
:1051F000811117C0412F60E5C7010E94143481114D
:1052000010C02D813E814F81588563E0C70150DE7B
:10521000811107C029813A814B815C8162E0C7011D
:1052200047DEF701EC59FF4F19C0AE01475F5F4FF2
:1052300064E0C7015DDD81110EC0412F60E7C70149
:105240000E941434811107C029853A854B855C85FD
:1052500064E0C7012DDEF701E15AFF4F00838111A1
:1052600014C0F7014185528563857485C7010E948A
:10527000461181110AC021E040E0BE01635F7F4F0B
:10528000C7010E94A42001C08CEF2D960FB6F894A0
:10529000DEBF0FBECDBFDF91CF911F910F91FF9069
:1052A000EF9008950F931F93CF93DF931F92CDB785
:1052B000DEB78A01662339F0613099F4AE014F5FA1
:1052C0005F4F60E704C0AE014F5F5F4F60E50E9433
:1052D0006034811107C099819F5F990FF801908315
:1052E00001C08CEF0F90DF91CF911F910F91089526
:1052F0008F929F92AF92BF92CF92DF92EF92FF92E6
:105300000F931F93CF93DF93CDB7DEB72D970FB6D3
:10531000F894DEBF0FBECDBF00ED17E020E030E017
:105320000A871B872C873D871E821F821886198655
:1053300040322EE452076105710508F48DC04A0120
:105340005B018C01BE016F5F7F4F0E9405128111CE
:1053500084C07501640186E3C81A8BE0D80AE108AD
:10536000F1088981811107C08A81811104C08B8174
:10537000882309F441C0AE01465F5F4F62E0C80177
:10538000B7DC81116AC08981882391F08A859B8569
:10539000AC85BD85825B9D4FAF4FBF4F8C159D0582
:1053A000AE05BF0508F058C0C81AD90AEA0AFB0AB8
:1053B0008B81882369F08A859B85AC85BD858E5459
:1053C0009D4FAF4FBF4F880F991FAA1FBB1F0BC028
:1053D0008A81882389F08A859B85AC85BD858C561A
:1053E0009D4FAF4FBF4F8C159D05AE05BF05A0F576
:1053F000C81AD90AEA0AFB0A8C818823C9F0AE01CF
:105400004A5F5F4F63E0C80173DC4E815F8168854E
:1054100079854C565D4F6F4F7F4F4C155D056E057E
:105420007F05D0F4811119C0C41AD50AE60AF70A1B
:105430008D81882379F0A7019601265232404109D7
:10544000510964E0C80134DDF80181869286A386A3
:10545000B48603C080E001C08CEF2D960FB6F8949F
:10546000DEBF0FBECDBFDF91CF911F910F91FF9097
:10547000EF90DF90CF90BF90AF909F908F90089566
:105480008F929F92AF92BF92DF92EF92FF920F9313
:105490001F93CF93DF93CDB7DEB761970FB6F89424
:1054A000DEBF0FBECDBF7C018B0180ED97E0A0E099
:1054B000B0E08A879B87AC87BD871E821F821886D3
:1054C000198686E39BE0A0E0B0E0FB018083918336
:1054D000A283B383BE016F5F7F4FC7010E94051295
:1054E000D82E81119EC08981811107C08A818111C6
:1054F00004C08B81882309F448C0AE01465F5F4F2A
:1055000062E0C701F5DB81118BC089818823A9F096
:105510008A859B85AC85BD85825B9D4FAF4FBF4F14
:10552000F8014081518162817381840F951FA61F0C
:10553000B71F80839183A283B3838B81882369F013
:105540008A859B85AC85BD858E549D4FAF4FBF4FDF
:10555000880F991FAA1FBB1F0BC08A818823A9F03F
:105560008A859B85AC85BD858C569D4FAF4FBF4FBF
:10557000F8014081518162817381840F951FA61FBC
:10558000B71F80839183A283B3838C818823E9F042
:10559000AE014A5F5F4F63E0C701AADB4E815F81C6
:1055A000688579854C565D4F6F4F7F4FF80180803D
:1055B0009180A280B380480D591D6A1D7B1D4083D8
:1055C00051836283738381112BC08D8181110BC044
:1055D000F80180819181A281B381F701818792874F
:1055E000A387B4871EC0AE01425F5F4F64E0C7016E
:1055F0007FDB4E855F85688979894A5D5D4F6F4F96
:105600007F4FF80180809180A280B380480D591DA2
:105610006A1D7B1D40835183628373838823C1F29B
:10562000D82E8D2D61960FB6F894DEBF0FBECDBF7C
:10563000DF91CF911F910F91FF90EF90DF90BF907E
:10564000AF909F908F9008952F923F924F925F92CC
:105650006F927F928F929F92AF92BF92CF92DF9282
:10566000EF92FF920F931F93CF93DF9300D000D060
:1056700000D0CDB7DEB75C016B0120E030E080E008
:10568000AE014F5F5F4F4A01F501EC57FF4FFE83BC
:10569000ED831501F2E82F0E311C250146E8440E7A
:1056A000511C350159E8650E711CF601E20FF31F1C
:1056B0000081002309F486C0811184C079019FEF25
:1056C000E91AF90A0F3F09F057C0D601AE0DBF1D08
:1056D0009C91790142E0E40EF11C913041F1B0F06F
:1056E0009230C9F1933009F06AC0D601AE0DBF1DEA
:1056F0009C91790144E0E40EF11C4381292F30E0B4
:10570000322F2227240F311DF30122C0D601AE0D06
:10571000BF1D9C91790154E0E50EF11C4381292FB6
:1057200030E0322F2227240F311DF10111C0D601A4
:10573000AE0DBF1D9C91790144E0E40EF11C438144
:10574000292F30E0322F2227240F311DED81FE81D9
:105750003183208335C0D601AE0DBF1D9C917901E8
:1057600044E0E40EF11C4381292F30E0322F222740
:10577000240F311DF201ECCF053008F5F601EE0DD6
:10578000FF1D60817901F2E0EF0EF11CD601AE0D34
:10579000BF1DF401802F90E09F01281939092817B7
:1057A00039071CF42D912193F7CFE80EF91E10E074
:1057B00020E030E0A401C5010E94E43301C08CEF79
:1057C000970173CF26960FB6F894DEBF0FBECDBFFC
:1057D000DF91CF911F910F91FF90EF90DF90CF90CD
:1057E000BF90AF909F908F907F906F905F904F9001
:1057F0003F902F900895BF92CF92DF92EF92FF9249
:105800000F931F93CF93DF931F92CDB7DEB77C0129
:105810006B018A01DA011D921D921D921C92139751
:10582000BE016F5F7F4F0E94E412B82E81111FC02E
:1058300089818823E1F0F60180899189D701549606
:105840002D913D914D915C915797DC010E949E39BD
:10585000DC01CB0180589F4FAF4FBF4F892F9A2F4C
:10586000AB2FBB27F80180839183A283B3838B2D59
:105870000F90DF91CF911F910F91FF90EF90DF90EC
:10588000CF90BF900895CF92DF92EF92FF920F9347
:105890001F93CF93DF9300D000D0CDB7DEB78A013E
:1058A000FB01C480D580E680F780FA01C082D182F6
:1058B000E282F382AE014F5F5F4F9DDF811111C025
:1058C000F801C080D180E280F38049815A816B81E8
:1058D0007C814C0D5D1D6E1D7F1D40835183628355
:1058E00073830F900F900F900F90DF91CF911F91C6
:1058F0000F91FF90EF90DF90CF9008954F925F92BD
:105900006F927F928F929F92AF92BF92CF92DF92CF
:10591000EF92FF920F931F93CF93DF93CDB7DEB734
:105920002C970FB6F894DEBF0FBECDBF4D835E83BC
:105930006F8378872801390189869A86AB86BC8671
:10594000FC01E456FF4F80809180A12CB12C32964F
:105950006081718182819381A50194010E94273920
:10596000DC01CB0180589F4FAF4FBF4F692F7A2F7B
:105970008B2F99270E94273969837A838B839C8395
:10598000411451046104710479F14D815E816F818C
:1059900078853AE0440F551F661F771F3A95D1F777
:1059A000D301C201B695A795979587958A019B016A
:1059B000080F191F2A1F3B1FC901B801A30192013B
:1059C0000E944A39A3E0B0E00E949E399B01AC01DD
:1059D0000E9427394B015C0110E8910EA11CB11CFB
:1059E0004501AA24BB2403C0812C912C5401A7019A
:1059F000960169857A858B859C850E942739DC0113
:105A0000CB019058AF4FBF4FBD01882799279B010D
:105A1000AC010E9427396B017C018F8D98A1A9A14F
:105A2000BAA19058AF4FBF4FCD01AA27BB27BC01E9
:105A3000CD016D5F7F4F8F4F9F4F26E0422E512C3F
:105A4000612C712CA30192010E944A39A7E0B0E0B9
:105A50000E949E396115710581409105E8F46F8DB2
:105A600078A189A19AA16D5F7F4F8F4F9F4FA301AE
:105A700092010E944A39A7E0B0E00E949E39DC0101
:105A8000CB019058AF4FBF4FBD01882799279B018D
:105A9000AC010E94273904C060E070E080EF9FEF06
:105AA0004BA05CA06DA07EA0769467945794479419
:105AB000C40CD51CE61CF71C6C0D7D1D8E1D9F1D96
:105AC0002BA13CA14DA15EA10E944A39DA01C90176
:105AD0003EE0880F991FAA1FBB1F3A95D1F7BC0162
