:100000007AC0000094C0000092C000000C948208E6
:100010000C9471088CC000008AC0000088C00000E9
:1000200086C0000084C0000082C000000C949308C9
:100030000C949E087CC000007AC0000078C00000CC
:1000400076C0000074C0000072C0000070C00000E4
:100050006EC000006CC000006AC0000068C00000F4
:1000600066C0000064C0000062C0000060C0000004
:100070005EC000005CC000005AC0000058C0000014
:1000800056C000000C94A9080C94CD0850C0000084
:100090004EC000004CC000004AC0000048C0000034
:1000A0000C94B20E44C0000042C0000040C00000EA
:1000B0003EC000000664EC1B3C04BC163E3BE5B9A8
:1000C0003CC93C37C29E5A3D660498083EEA69AA7C
:1000D000AA3E000000803F05A84CCDB2D44EB938EE
:1000E00036A9020C50B9918688083CA6AAAA2ABE55
:1000F000000000803F0011241FBECFEFD8E0DEBF1C
:10010000CDBF12E0A0E0B1E0E6EBF4E702C005905D
:100110000D92A232B107D9F723E0A2E2B2E001C00A
:100120001D92A03CB207E1F79BD10C94593A0C9474
:10013000F1080C94360D883631F08C3631F0833767
:1001400031F083E0089580E0089581E0089582E031
:100150000895009741F0EFECF7E03197F1F700C018
:1001600000000197F6CF0895FF920F931F93CF934E
:10017000DF9300D0CDB7DEB78C01F62E611108C039
:100180008091F20294E6899F802D1124F8018083EA
:1001900080910D01F801818380910C01828380910F
:1001A0000F01838360910A0170910B01CE010196CA
:1001B0000E94C20F8981F80184838A81858380919E
:1001C0000E0186836091080170910901CE010196AC
:1001D0000E94C20F8981F80187838A81808780917C
:1001E0001001818780914002828780910701838777
:1001F00080913E02848780913A0285878091060132
:10020000868780913D028787FF2039F180913602F1
:10021000909137022091380230913902308B218B36
:10022000928B838B80913502848B809131029091E7
:1002300032022091330230913402358B268B978B1A
:10024000808F80912D0290912E0220912F0230916B
:100250003002318F228F938F848F0F900F90DF9118
:10026000CF911F910F91FF900895CF93DF9300D00E
:10027000CDB7DEB78091950280930D0180919602F3
:1002800080930C018091970280930F0180919802D6
:100290008983809199028A83CE0101960E94BB0FC7
:1002A00090930B0180930A0180919A0280930E0132
:1002B00080919B02898380919C028A83CE01019662
:1002C0000E94BB0F909309018093080181E09091F7
:1002D0009D02911101C080E08093100181E0909116
:1002E0009E02911101C080E08093400280919F02A4
:1002F0008093070181E09091A002911101C080E0FC
:1003000080933E028091A10280933A028091A202E2
:100310008093060181E09091A302911101C080E0D9
:1003200080933D026091A4027091A5028091A60283
:100330009091A7020E94EE386093360270933702C4
:1003400080933802909339028091A80280933502FD
:100350006091A9027091AA028091AB029091AC02C7
:100360000E94EE3860933102709332028093330220
:10037000909334026091AD027091AE028091AF0211
:100380009091B0020E94EE3860932D0270932E027D
:1003900080932F02909330020F900F90DF91CF91B6
:1003A0000895882311F0739A089573980895CF9251
:1003B000DF92EF92FF920F931F93CF93DF936B0126
:1003C0007C01C42FD22F81E0ECDF8601C601C1DEA3
:1003D000DD23D1F0CF3FC1F40E945210C0E0C336FC
:1003E00008F0C0E08C2F0E946B10C801B2DECF5F16
:1003F000F6CFC801AEDE80E0D4DFC801AADE81E01E
:10040000D0DF1C160CF4C150C111F3CFDF91CF9196
:100410001F910F91FF90EF90DF90CF9008954EE1E4
:1004200050E064E972E080E290E00E94DE0F6DE14E
:1004300070E084E992E00E94100D811105C081E016
:1004400090919602911180E09091B102891739F054
:1004500020E044E064E670E080E090E0A8CF05CFC3
:10046000CF93DF93CDB7DEB729970FB6F894DEBFF1
:100470000FBECDBF5EDE429A389840980E94C60FEC
:1004800083B18095881F8827881F80933B0282E074
:1004900090E00E94C90F813089F080913B02C7D65D
:1004A00090934802809347020196B1F480913B02F9
:1004B000BED690934802809347020EC081E090E040
:1004C0000E94C90F90E0909348028093470260E039
:1004D00082E090E00E94D00F809147029091480204
:1004E000181619063CF020E04FEF64EF71E080E051
:1004F00090E00FC09C01285031092037310518F4D5
:100500000E94A80E07C020E04FEF64E670E080E094
:1005100090E04DDF78942698399A419A809168004E
:1005200081608093680080916B00806480936B0091
:100530006091070170E042E050E08CE893E00E9497
:100540006D0D26E04EE162E089E492E0FDD73B9834
:100550004398389A80916800826080936800809107
:100560006C00886080936C004EE150E064E972E0BA
:1005700080E690E00E94DE0F6DE170E084E992E099
:100580000E94100D811105C081E090919602911199
:1005900080E09091B102891711F041DF01C065DE62
:1005A00040E150E064E872E080E091E00E94DE0FFC
:1005B00089EE92E09093830280938202E0902B0276
:1005C000F0902C0230912D02398340912E024D8300
:1005D00010912F02009130028090310290903202EF
:1005E000A0903302B0903402C090350240903602A1
:1005F00050903702609038027090390280910C015F
:100600009ADD90910D0141E0933609F040E0EF92C0
:10061000FF920F931F935D815F9399819F93830155
:100620007201282F6AEB73E089EE92E00E941C357C
:100630000F900F900F900F900F900F90811107C0A7
:1006400021E04FEF65E070E080E090E0B0DE1092D6
:1006500026026AEB73E080918202909183020E94ED
:10066000C3344091060128EE33E0429FC001439F0E
:10067000900D11249C01990F440B550B29833A834B
:100680004B835C8380910E01803711F40E942C1003
:1006900080910F01803711F40E94521090EE492E84
:1006A00093E9592E94E0692E712C28EE222E23E036
:1006B000322E809124028111FCCF80918102882307
:1006C00009F4E2C290916C028091BB0391116EC15A
:1006D0008E3239F4269A2E9A88EC90E03ADD2698EC
:1006E000D1C2883621F4429810923D02CBC28834A0
:1006F00009F04BC0429A8FE99FE00197F1F700C0E3
:100700000000F0902B0200912C02D0902D02E0907E
:100710002E0290912F029987109130028090310221
:1007200090903202A0903302B0903402C090350213
:1007300020913602309137024091380250913902AF
:100740002D833E834F83588780910C01F4DC909178
:100750000D0141E0933609F040E0FF920F931F93A3
:1007600039853F93EF92DF92ED80FE800F811885EF
:10077000282F6AEB73E080918202909183020E949D
:100780001C3541E040933D024EC0883509F052C00F
:10079000429884E690E0DDDC429A8FE99FE0019781
:1007A000F1F700C00000F0902B0200912C02D090D5
:1007B0002D02E0902E0290912F0299871091300225
:1007C0008090310290903202A0903302B0903402B7
:1007D000C0903502209136023091370240913802A4
:1007E000509139022D833E834F83588780910C01AD
:1007F000A2DC90910D0141E0933609F040E0FF92B8
:100800000F931F9339853F93EF92DF92ED80FE8027
:100810000F811885282F6AEB73E0809182029091F6
:1008200083020E941C350F900F900F900F900F9035
:100830000F9028C2803721F441E040933C0222C24D
:10084000873721F561E084E992E08EDC6DE170E0AC
:1008500084E992E00E94100D8093B10280913F02E2
:100860004EE150E064E972E081110BC080E690E057
:100870000E94011040E150E064E872E080E091E005
:1008800002C080E290E00E940110FCC18A3711F49E
:10089000C6DDF8C1843521F451E050933E021AC1FF
:1008A000843741F410923E0280910D01833609F0A5
:1008B000E9C10BC18537C9F481E08093240240E08F
:1008C0006AEB73E080918202909183020E9403356B
:1008D00025E332E046E352E06AEB73E08091820266
:1008E000909183020E949B341AC08535E9F491E00F
:1008F0009093240240E06AEB73E080918202909131
:1009000083020E9403352BE232E04CE252E06AEBB4
:1009100073E080918202909183020E94B93420E0BA
:10092000813009F060C159C1863421F4A1E0A0935F
:100930001001A8C1863619F410921001A3C18635A2
:1009400069F46091070170E042E050E08CE893E0C8
:100950000E946D0DB1E0B093400294C1863719F446
:10096000109240028FC1833641F480930D01809133
:100970003E02882309F4A9C085C1833721F4E3E747
:10098000E0930D01A2C0833509F07CC180910D0177
:10099000833709F077C14EE652E06AEB73E080914D
:1009A0008202909183020E94CD346CC1913009F093
:1009B0009BC08130D9F48091D602811163C16091CE
:1009C000470281E090E00E94D00F61E082E090E079
:1009D0000E94D00FF89498E088E10FB6F894A8959B
:1009E000809360000FBE90936000FFCF813729F4A1
:1009F0008091D6028093060145C1813529F480910A
:100A0000D60280933A023EC1893651F48091D602D3
:100A10009EEF980F9B3008F035C18093070132C1DB
:100A20008C36E1F40E9474108091D60280930F01FD
:100A300081E0B7DC80910F018F3611F480E0B1DCEA
:100A400080910F01863611F481E0ABDC80910F01BB
:100A5000803709F017C10E94521014C18736C9F4BB
:100A60000E944E108091D60280930E014098809192
:100A70000E018F3609F4409A80910E01863609F4F2
:100A8000409880910E01803709F0FCC00E942C1024
:100A9000F9C08D3609F0F6C08091D60280930C0122
:100AA00040E06AEB73E080918202909183020E94A1
:100AB000033580910C013FDB482F6AEB73E0809196
:100AC0008202909183020E94FE3380910D0141E0E9
:100AD000833609F040E06AEB73E0809182029091E6
:100AE00083020E940335CEC0923009F093C08F3646
:100AF00049F486ED92E00E94BB0F90930901809328
:100B00000801C0C0853649F486ED92E00E94BB0F13
:100B100090930B0180930A01B5C08136E9F521E07D
:100B20002093240240E06AEB73E08091820290916E
:100B300083020E94033525E332E046E352E06AEB8C
:100B400073E080918202909183020E949B34811114
:100B500021C02BE232E04CE252E06AEB73E080917C
:100B60008202909183020E94B934811113C086EDF4
:100B700092E00E94BB0F21E332E0AC016AEB73E02C
:100B800080918202909183020E94A534811102C05B
:100B900020E029C020E021C0883709F073C031E08F
:100BA0003093240240E06AEB73E0809182029091DE
:100BB00083020E94033586ED92E00E94BB0F2DE276
:100BC00032E0AC016AEB73E0809182029091830283
:100BD0000E94AF3420E0882331F044E064EF71E0FC
:100BE00080E090E005C041E068EC70E080E090E0DB
:100BF000DEDB80910D0141E0833609F040E06AEBD5
:100C000073E080918202909183020E9403351092DA
:100C1000240238C0963049F58332A1F58091D6027E
:100C2000813281F58091D702833261F58091D802BB
:100C3000813241F58091D902833221F58091DA0227
:100C4000813201F58091DB028332E1F480913F0231
:100C500041E0842780933F0280913F02882391F0F6
:100C60000E94521010922A020DC0903159F48E3613
:100C700049F480E1E6EDF2E0A4E8B2E001900D92E3
:100C80008A95E1F71092810280913E028823F9F063
:100C9000809125028823D9F0109225022091060127
:100CA000229DC001239D900D11249C01990F440B9E
:100CB000550B29833A834B835C834EE652E06AEB03
:100CC00073E080918202909183020E94CD348091E2
:100CD000250281112AC080913B02882331F1809145
:100CE0003E02882311F189819A81AB81BC810197F1
:100CF000A109B10989839A83AB83BC8318161906AD
:100D00001A061B0694F091E09093250220910601AB
:100D1000229DC001239D900D11249C01990F440B2D
:100D2000550B29833A834B835C8380912602882369
:100D300009F430C11092260280913E02811141983F
:100D400080910F018D3629F480913F02811101C0FD
:100D500028DB80910E018D3629F480913F028111AC
:100D600001C0409A4EE652E06AEB73E08091820245
:100D7000909183020E94E635809180028093E80280
:100D80008430A9F080916E0290916F02909342029C
:100D90008093410280917A0290917B02A0917C0223
:100DA000B0917D02B093B302A093B20208C010923A
:100DB0004202109241021092B3021092B20280914C
:100DC000410290914202803A9F4020F010924202EC
:100DD00010924102809141029091420201974E97F8
:100DE00030F48EE190E09093420280934102809132
:100DF0004102909142029093D5028093D402909345
:100E0000E7028093E602009761F12091100122230E
:100E100039F069E472E02AD59093E7028093E60204
:100E2000809140028823E9F066EE72E08CE893E05E
:100E300082D660910701E0918C03F0918D0320E050
:100E400080E090E0621731F041915191840F951F3D
:100E50002F5FF8CF70E00E949C387093E702609398
:100E6000E60280913F028111A7C080910F01843773
:100E700089F48091E6029091E70220910A01309175
:100E80000B012817390720F0892B11F080E001C0F1
:100E900081E087DA80910E01843781F48091E60247
:100EA0009091E70220910801309109012817390734
:100EB00020F0892B11F0409A01C0409880910F01D9
:100EC0008D3611F481E06DDA80910E018D3609F4D2
:100ED000409880913E028111419A80918002835016
:100EE000823008F44AC02091E6023091E7028091F6
:100EF0000A0190910B018217930718F410922302B4
:100F000019C021153105D1F340910A0150910B010F
:100F100060910A0170910B01421B530BA4E6A49F40
:100F2000C001A59F900D11246E5171090E949C383B
:100F30006093230280910801909109018217930721
:100F4000F0F021153105D9F0809108019091090147
:100F50006091080170910901AC01421B530B9A0189
:100F600054E6529FC001539F900D11246E51710998
:100F70000E949C386093220204C0109223021092B7
:100F80002202809123020E946B10809122020E9413
:100F9000451012C080913E02811115C081E0481AAF
:100FA00051086108710879F46AEB73E0809182025C
:100FB000909183020E94C33480EE482E83E9582E1C
:100FC00084E0682E712C80913F02882309F471CB54
:100FD000809127029091280201968536910528F488
:100FE000909328028093270204C010922802109246
:100FF00027028091270290912802892B09F059CB72
:101000009091290280912A02992311F0815001C008
:101010008F5F80932A0280912A0284363CF093E607
:1010200090932A02A1E0A093290206C087FF04C082
:1010300010922A021092290280912A020E946B10BB
:1010400038CBCF93C42F91E0909381028093BB0360
:1010500050E086ED92E00E94493AC0936C02CF9135
:101060000895282FCB01223729F46091E602709170
:10107000E70226C0223529F46091B2027091B302D2
:101080001FC0253431F42091E802FB01208381E068
:101090000895243649F420E1E4E8F2E0DB01019010
:1010A0000D922A95E1F704C0223621F460E05CD865
:1010B00080E108952A3639F46091D4027091D50206
:1010C00061D782E008952E3451F42AE0E6E1F2E09F
:1010D000DB0101900D922A95E1F78AE0089580E006
:1010E00008951F920F920FB60F9211248F93339988
:1010F00003C081E0809326028F910F900FBE0F9066
:101100001F9018951F920F920FB60F9211248F9374
:101110001E9903C081E0809325028F910F900FBE2E
:101120000F901F9018951F920F920FB60F921124D7
:10113000409A0F900FBE0F901F9018951F920F921C
:101140000FB60F92112440980F900FBE0F901F9072
:1011500018951F920F920FB60F9211242F933F9361
:101160004F935F936F937F938F939F93AF93BF93AF
:10117000EF93FF9380E015D9FF91EF91BF91AF916D
:101180009F918F917F916F915F914F913F912F919F
:101190000F900FBE0F901F9018951F920F920FB6D1
:1011A0000F9211242F933F934F935F936F937F93ED
:1011B0008F939F93AF93BF93EF93FF9381E0F1D809
:1011C000FF91EF91BF91AF919F918F917F916F911F
:1011D0005F914F913F912F910F900FBE0F901F90F5
:1011E00018951F920F920FB60F92112400000F90C6
:1011F0000FBE0F901F9018954AD04CD08823A9F0AD
:10120000809111018F5FA5D0BAD090E0209111019B
:10121000309112012F5F3F4F8217930721F481E035
:1012200098D081E008958EEF94D080E008958823CF
:10123000A1F088E090E09093120180931101DCDF2F
:10124000811120C02FEF83EC99E021508040904025
:10125000E1F700C00000D0DF15C0A6D0F8D0882389
:1012600089F05DD1282F30E03093120120931101D5
:1012700040D155D1813019F38FEF9FEF9093120138
:101280008093110180911101909112010895399874
:1012900041980895F894399840E251EA67E070E087
:1012A00085E08A95F1F7000096B1892F827091FD53
:1012B00006C0415051096109710991F71BC0399A63
:1012C0004198EFEBF3E03197F1F700C00000399857
:1012D0003998419AFAEBFA95F1F700C086B18695F4
:1012E000817091E08927E3E3F3E03197F1F700C0E3
:1012F000000078940895F894399A419880FF08C0C6
:1013000080E18A95F1F739988AEA8A95F1F709C060
:1013100080EA8A95F1F739983998419A8AE18A9555
:10132000F1F700C078940895F894399A419880E1D3
:101330008A95F1F739983998419A98E19A95F1F799
:1013400086B192E99A95F1F700C0789486958170FC
:1013500008950F931F93CF93DF93082FC8E0D0E039
:1013600011E081E0902F912309F480E0C4DF110F98
:101370002197B9F7DF91CF911F910F9108950F93A6
:101380001F93CF93DF9308E010E0C0E0D1E0CCDF03
:101390008111CD2BDD0F01501109C9F78C2FDF9181
:1013A000CF911F910F91089526982E980895269811
:1013B00023B126FB222720F9462F572FBC0193B1DA
:1013C00081E0392F307496FF80E0281791F04115A5
:1013D00051056105710519F4789480E00895311183
:1013E00006C04150510961097109282FE8CF81E0F9
:1013F0000895411551056105710599F7EDCF2698BE
:1014000023B126FB222720F9462F572FBC0193B189
:1014100081E0392F307496FF80E0281791F0411554
:1014200051056105710519F4789480E0089533231E
:1014300031F04150510961097109282FE8CF81E04D
:101440000895411551056105710599F7EDCFF8949F
:10145000269826982E9A60E271EA87E090E0A7DF4E
:10146000882379F085E58A95F1F70000269A2E9871
:1014700087E191E00197F1F700C0000026982698D7
:101480002E9A789481E00895CF93C82FF8942698E7
:1014900026982E9A60E970ED83E090E0B0DF882313
:1014A00071F0C0FF04C088E78A95F1F708C0269A5A
:1014B0002E9888E78A95F1F7269826982E9A7894A0
:1014C00081E0CF910895F894269826982E9A60E9A5
:1014D00070ED83E090E093DF882341F088E78A9500
:1014E000F1F783B186FB882780F901C080E078940A
:1014F00008950F931F93CF93DF93082FC8E0D0E098
:1015000011E081E0902F912309F480E0BDDF110FFD
:101510002197B9F7DF91CF911F910F9108950F9304
:101520001F93CF93DF9308E010E0C0E0D1E0CBDF62
:101530008111CD2BDD0F01501109C9F78C2FDF91DF
:10154000CF911F910F9108952F923F924F925F92EA
:101550006F927F928F929F92AF92BF92CF92DF92C3
:10156000EF92FF920F931F93CF93DF93CDB7DEB728
:1015700066970FB6F894DEBF0FBECDBF9E8B8D8BE6
:10158000122F6695262E312CDC012D923C92642F71
:1015900070E080E090E00E94F2366B017C01ED8902
:1015A000FE896283738384839583612F70E080E07A
:1015B00090E00E94F236AD89BE8916966D937D93B8
:1015C0008D939C9319972BED3FE049E450E40E94E2
:1015D0008037A70196010E945E360E94E937698331
:1015E0007A838B839C83ED89FE89628773878487E6
:1015F00095879B01AC010E9480376B017C01AD890E
:10160000BE891E966D937D938D939C935197FD019A
:10161000128A138A148A158A5101AA0CBB1CAA0CBF
:10162000BB1CC5010E9428392C01AD89BE89569684
:101630008C93569757965C92C5010E9428393C01BD
:10164000ED89FE89808F718EC5010E9428398C0139
:10165000AD89BE895A968C935A975B961C9364E029
:1016600070E0C1010E940E394C01ED89FE89848F22
:10167000958E64E070E0C1010E940E395C01AD8975
:10168000BE895E968C935E975F96BC9264E070E034
:10169000C1010E940E39ED89FE8980A391A34D827C
:1016A0005E826F82788609871A878B869C86AD86D4
:1016B000BE868F87988B00E010E0C101032C000CE0
:1016C000AA0BBB0B898B9A8BAB8BBC8B02151305BA
:1016D0000CF0B3C0B801012E000C880B990B0E94CE
:1016E000F4369B01AC010E94FA3520E030E040E87E
:1016F0005FE30E94FA352BED3FE049E450E40E949D
:1017000080374B015C0169897A898B899C890E94A9
:10171000F43620E030E040E850E40E9480379B013E
:10172000AC01C501B4010E945E360E94E3374B0153
:101730005C01AD89BE8952966D937D938D939C9388
:10174000559729813A814B815C81CA01B9010E9478
:10175000FA35A50194010E9480372B013C019B01C1
:10176000AC01C701B6010E94FA3520E030E040E844
:101770005FE30E94FA354B015C01ED89FE896283CB
:101780007383848395839B01AC01C701B6010E94DA
:101790005E36AD81BE816D937D938D939D93BE83A7
:1017A000AD83A701960160E070E080E89FE30E94AE
:1017B000F9359B01AC010E94FA35A50194010E9404
:1017C0005E36EF81F8856193719381939193F887E9
:1017D000EF83A3019201C701B6010E94F93520E011
:1017E00030E040E85FE30E94FA359058A50194018B
:1017F0000E945E36A985BA856D937D938D939D93E6
:10180000BA87A987EB85FC851192119211921192EA
:10181000FC87EB87AD85BE851D921D921D921D92A2
:10182000BE87AD87EF85F8891192119211921192BE
:10183000F88BEF870F5F1F4F49CF66960FB6F8946E
:10184000DEBF0FBECDBFDF91CF911F910F91FF90F3
:10185000EF90DF90CF90BF90AF909F908F907F9050
:101860006F905F904F903F902F9008952F923F92EE
:101870004F925F926F927F928F929F92AF92BF92A0
:10188000CF92DF92EF92FF920F931F93CF93DF934C
:1018900000D000D000D0CDB7DEB78B01BC0180E016
:1018A00090E00E94F2364B015C01D8010D90BC9192
:1018B000A02DBC83AB831E821D82212C312C8B81F9
:1018C0009C81281639060CF08DC0F801848D958D09
:1018D0002D813E81280F391F3A832983C68CD78CEE
:1018E0008D819E81C80ED91EE0A0F1A0E80EF91EE0
:1018F000008CF18DE02DE80FF91FD6012D913D915F
:101900004D915C9160817181828193810E948037C9
:101910002B013C01D8015A96ED91FC915B972D81EA
:101920003E81E20FF31FD7012D913D914D915C91C6
:1019300060817181828193810E9480379B01AC011B
:10194000C301B2010E94FA35A50194010E94FA3543
:101950004B015C01E981FA81608371838283938307
:10196000D6014D905D906D907C90A3019201C301D2
:10197000B2010E94FA35A50194010E94FA35F701DF
:1019800020813181428153810E94FA35D8015696D7
:10199000ED91FC9157972D813E81E20FF31F20813D
:1019A0003181428153810E9480374B015C01D70114
:1019B0004D925D926D927C921397E981FA818081BC
:1019C0009181A281B381F60180839183A283B38345
:1019D000FFEF2F1A3F0A2D813E812C5F3F4F3E8340
:1019E0002D836DCFC501B4010E94C636CB0126966A
:1019F0000FB6F894DEBF0FBECDBFDF91CF911F9120
:101A00000F91FF90EF90DF90CF90BF90AF909F909D
:101A10008F907F906F905F904F903F902F900895A0
:101A2000680F791F20E030E08617970789F0FC01E6
:101A30004191CF01342748E050E037FF03C02058E0
:101A4000F3E83F27220F331F41505109B1F7ECCF84
:101A5000832F08953D9A459845983C9A4498449818
:101A600047C3699871986898709850C38DE38093C4
:101A700065008FEF8093640094B114B895B185B977
:101A800097B1907897B998B19F6798B99AB11AB8F9
:101A90009BB18BB98DB1807F8DB98EB18F608EB9BE
:101AA00026982E98279827982F9A389840983998F2
:101AB00041983A9A42983B98439853985B98559826
:101AC0005D986B9A739A40E060E881E690E0BDD241
:101AD00013BE15BE2AD3BEDFC4CFCF92DF92EF92E2
:101AE000FF920F931F93CF93DF93EC016B017A0169
:101AF000649F8001659F100D749F100D1124C80113
:101B00000E94283999838883080F191F1B830A8331
:101B1000DD82CC821F821E82F986E8869B878A87B7
:101B20009D878C87DF91CF911F910F91FF90EF9050
:101B3000DF90CF900895CF93DF93EC018E819F814A
:101B40002C813D81488559858217930791F42C8516
:101B50003D85240F351F3D872C87EA81FB812E1799
:101B60003F0721F4288139813D872C8701979F8386
:101B70008E838A859B850E94493A2A853B85888584
:101B80009985820F931F9B878A872A813B818217C1
:101B9000930721F4888199819B878A878E819F8111
:101BA00001969F838E83DF91CF910895A1C21092F9
:101BB000BC0094EA9093BC009091BC0097FFFCCFCE
:101BC0009091B900987F983011F081E0089580934A
:101BD000BB0084E88093BC0081EA96E8A1E0B0E015
:101BE0002091BC0027FD04C00197A109B109C1F7EC
:101BF0008091B900887F883111F0803431F780E01E
:101C000008958093BB0084E88093BC0081EA96E845
:101C1000A1E0B0E02091BC0027FD04C00197A1091C
:101C2000B109C1F79091B900987F81E0983209F429
:101C300080E0089584EC8093BC0081EA96E8A1E0FE
:101C4000B0E02091BC0027FD04C00197A109B109B3
:101C5000C1F78091BB00089584E88093BC0081EABD
:101C600096E8A1E0B0E02091BC0027FD04C00197F8
:101C7000A109B109C1F78091BB000895DF92EF92ED
:101C8000FF920F931F93CF93DF93C62FD42E052F70
:101C900079018DDF182F882311F011E011C08C2FEE
:101CA000B0DFCD2DD02FEC0EFD1ECE15DF0529F0B7
:101CB0008991A7DF8823C9F3F0CF84E98093BC0022
:101CC000812FDF91CF911F910F91FF90EF90DF90C7
:101CD0000895AF92BF92CF92DF92FF920F931F931E
:101CE000CF93DF93C82FD62F6A01890160DF882345
:101CF00019F0FF24F3941DC08D2F83DF8C2F81609A
:101D000056DFF82E8111F5CF5601E8012197C50164
:101D10008C199D098C179D0728F48CDFF5018193A0
:101D20005F01F5CFCC0DDD1D97DF888384E98093BB
:101D3000BC008F2DDF91CF911F910F91FF90DF900D
:101D4000CF90BF90AF90089584E98093BC00089530
:101D50009FEF90936B02880F8093DA0085EC80935D
:101D6000DC0008951F920F920FB60F9211242F934B
:101D70003F934F935F936F937F938F939F93AF9313
:101D8000BF93EF93FF938091D900887F883909F43E
:101D9000A0C0F0F4803709F4A1C088F4882309F4C6
:101DA00098C0803609F09AC08FEF80936B02109232
:101DB000460210926D0281E0809345028FC0883800
:101DC00009F487C08039B1F0803809F087C012C0AB
:101DD000883B09F468C038F4803A09F47FC0883A37
:101DE00009F441C07BC0883C09F473C0883F09F006
:101DF00075C06FC08091DB0020916B022F3F31F4E2
:101E000080936B02A5D0811169C01DC090916D02B5
:101E1000E92FF0E0E656FC4F80839F5F90936D02C0
:101E200080914402981778F080914402981307C07B
:101E3000409144026AE973E0822F03D904C0809183
:101E4000DC0085684CC080916B025CD080934402BA
:101E500080914402811142C040E06AE973E08091C0
:101E60006B02EFD83BC080916B0272D0882321F0C7
:101E700080914502811103C082E780936B0264EB7D
:101E800072E080916B02EDD880934302109245027C
:101E90008091B4028093DB0081E0809346028091C0
:101EA000DC00856C1CC0E091460280914302E8177B
:101EB00060F4F0E0EC54FD4F80818093DB00809172
:101EC00046028F5F8093460209C08FEF8093DB004C
:101ED00005C08091DC008B7B8093DC0085EC8093D7
:101EE000DC00FF91EF91BF91AF919F918F917F9116
:101EF0006F915F914F913F912F910F900FBE0F9077
:101F00001F901895982F8936E9F084E9890F82305F
:101F1000C8F09536A9F09736A9F09F3689F091362A
:101F200079F0983769F0892F8F7D813559F09E3689
:101F300059F0933259F081E0913049F080E00895F2
:101F400082E0089581E0089580E1089586E0089593
:101F5000982F8F7D823569F0953459F0943649F089
:101F6000892F877F823629F081E09E3419F080E046
:101F7000089581E00895FC01808191819827892747
:101F800098270895FC017083618308951FBA80E04B
:101F90000895F999FECF92BD81BDF89A80B5089554
:101FA000F999FECF92BD81BD60BD0FB6F8940F9236
:101FB000FA9AF99A0F900FBE80E00895CF92DF92BF
:101FC000EF92FF920F931F93CF93DF938B017A01D0
:101FD000EB016C01C61AD70AC6018C0F9D1F2C2F6E
:101FE000201B30E02E153F0518F4D3DF8993F4CF82
:101FF000DF91CF911F910F91FF90EF90DF90CF90E5
:102000000895CF92DF92EF92FF920F931F93CF9399
:10201000DF938B017A01EB016C01C61AD70AC60166
:102020008C0F9D1F2C2F201B30E02E153F0518F420
:102030006991B6DFF4CF80E0DF91CF911F910F91CE
:10204000FF90EF90DF90CF9008952FB7F894FC01A8
:10205000608340832FBF0895E4E6F0E08081877FAE
:1020600080838BE08093810083E690E090938900E9
:102070008093880080E490E090938B0080938A00A6
:1020800086E080936F0080E00895833608F082E652
:1020900090E090938B0080938A00089588E080936D
:1020A00081000895E5E6F0E080818E7F80838BE0FB
:1020B0008093910083E690E090939900809398003C
:1020C00080E490E090939B0080939A0086E0809358
:1020D000710080E00895833608F082E690E09093E6
:1020E0009B0080939A00089588E080939100089562
:1020F000E4E6F0E080818F77808384E08093BC0009
:1021000082E08093B8001092B9000895E5E6F0E00F
:1021100080818F7D808385E48093DC0081E88093DB
:10212000DA001092DD0080E0089584B7877F84BFD5
:1021300041E268E180E690E088DF80E008950C9459
:10214000F71B633041F018F4623028F008C02CEE21
:10215000260F223020F4FC01608780E0089588EF8C
:1021600008950C94E3280C948E270C94BD28DF92DC
:10217000EF92FF920F931F93CF93DF931F92CDB7F0
:10218000DEB77C01162FD42E1982AE014F5F5F4F50
:1021900061E00E94CB33082F81114FC0898191E00B
:1021A000D9121AC0123091F038F4112361F01130B5
:1021B00069F5182F18622CC0133059F0143031F51E
:1021C000182F106825C0182F106122C0182F146016
:1021D0001FC0182F10641CC0123091F038F4112366
:1021E00061F0113099F4182F177D12C0133059F097
:1021F000143061F4182F1F770BC0182F1F7E08C0F2
:10220000182F1B7F05C0182F1F7B02C00CEF15C0B5
:10221000811799F0412F61E0C7010E947F33082F99
:1022200081110BC0F701E158FF4F1083F701418581
:10223000528563857485C70194DF802F0F90DF91ED
:10224000CF911F910F91FF90EF90DF900895F901CA
:102250006230A1F028F4662351F0613059F004C0D7
:10226000633081F0643091F010828CEF08954295D4
:1022700041700FC043FB442740F90BC042FB442789
:1022800040F907C046FB442740F903C0441F4427D8
:10229000441F408380E00895CF92DF92FF920F9316
:1022A0001F93CF93DF931F92CDB7DEB78C01F62E2D
:1022B0006A011982AE014F5F5F4F61E00E94CB332C
:1022C000811105C0960149816F2DC801C0DF0F90B3
:1022D000DF91CF911F910F91FF90DF90CF900895E4
:1022E0000F931F93CF93DF931F92CDB7DEB78B0170
:1022F0001982AE014F5F5F4F61E00E94CB338111C5
:1023000016C0998194FB222720F9F801208393FBC2
:10231000222720F9228392FB222720F9218396FB92
:10232000222720F92383991F9927991F94830F90BF
:10233000DF91CF911F910F910895CF92DF92EF928D
:10234000FF920F931F93CF93DF9300D0CDB7DEB7EB
:102350008C016A017B01AE014F5F5F4F68EF0E9405
:10236000D633811117C0A981BA819601109729F03F
:10237000A7010E9404399B0101C0C701AC0164E0C0
:10238000C8010E949533811105C0F801C586D68623
:10239000E786F08A0F900F90DF91CF911F910F91F8
:1023A000FF90EF90DF90CF900895CF92DF92EF9261
:1023B000FF921F93CF93DF9300D000D000D0CDB712
:1023C000DEB77C016B01AE014B5F5F4F68EF0E948F
:1023D000D633182F811126C0AE014F5F5F4F64E0E6
:1023E000C7010E94E133182F81111CC02D813E814D
:1023F0002115310569F040E050E069817A818B81D7
:102400009C810E94B038F60120833183428353833C
:10241000F60180819181A281B381F701858796873A
:10242000A787B08B812F26960FB6F894DEBF0FBE1C
:10243000CDBFDF91CF911F91FF90EF90DF90CF90B4
:1024400008951F93CF93DF93EC01162F662369F055
:10245000FC01E656FF4F80819181883E934029F42C
:102460004C895D896E897F8903C040E050E0BA01E4
:1024700083E076956795579547958A95D1F760E201
:10248000CE010E948A33811106C0111102C0198A3F
:1024900002C091E0998BDF91CF911F910895FC01CB
:1024A0008189FB01808380E00895CF92DF92EF92D3
:1024B000FF92CF93DF93FC012189211106C0448B49
:1024C000558B668B778B80E022C0FC01E656FF4F70
:1024D00020813181283E334059F46A017B0123E099
:1024E000F694E794D794C7942A95D1F7960102C041
:1024F00020E030E06A017B01EC01A90160E20E946A
:102500008A33811104C0CC8ADD8AEE8AFF8ADF918A
:10251000CF91FF90EF90DF90CF900895EF92FF92D0
:102520000F931F93CF93DF9300D0CDB7DEB77C011D
:102530008B01AE014F5F5F4F60E20E94D633811185
:1025400025C049815A814115510569F4F701448933
:10255000558966897789F801408351836283738343
:10256000F701118A13C093E0440F551F9A95E1F7C4
:1025700060E070E0F8014083518362837383F70168
:10258000448B558B668B778B91E0918B0F900F90DE
:10259000DF91CF911F910F91FF90EF900895FF92DF
:1025A0000F931F93CF93DF93EB01F42E66307105E9
:1025B00088F4442389F0FB013A96EE0FFF1FEE0FDB
:1025C000FF1FE80FF91F408151816281738120E074
:1025D00031E007C08CEF43C021E030E040E050E044
:1025E000BA018C01C330D10519F4F801378F2EC020
:1025F000C430D10578F4C130D105C1F489E07695B5
:102600006795579547958A95D1F764E4C8010E946C
:102610008A3309C0C430D10591F4220F4EEF60E631
:10262000C8010E94A03381111AC010C0C230D10568
:1026300019F0F801348F0AC0F801368F07C0C53091
:10264000D105B9F72295207F4FEEE9CFC00FD11FFA
:10265000F11002C01C8E02C081E08C8F80E0DF91FF
:10266000CF911F910F91FF9008956630710520F072
:10267000FA0110828CEF0895FC01E60FF71F848D9C
:10268000FA01808380E00895CF92DF92EF92FF926B
:102690000F931F93CF93DF938C01EB0169017A01B4
:1026A000FC01E60FF71F848D81110DC02A96CC0F17
:1026B000DD1FCC0FDD1FC00FD11FC882D982EA8277
:1026C000FB8280E03EC06230710541F180F42097CA
:1026D000F9F061307105A1F5BA01A90199E076958B
:1026E0006795579547959A95D1F764E423C0633071
:1026F0007105D1F06630710518F5BA01A90189E0BC
:1027000076956795579547958A95D1F764E612C0F7
:10271000F80120A731A742A753A7C8CFF80120ABE3
:1027200031AB42AB53ABC2CFF80124AB35AB46ABB8
:1027300057ABBCCFC8010E948A33811102C0B6CF0B
:102740008CEFDF91CF911F910F91FF90EF90DF9071
:10275000CF900895EF92FF920F931F93CF93DF9343
:1027600000D0CDB7DEB78C017A0162307105A1F1DE
:1027700038F46115710559F06130710571F055C07B
:102780006330710579F16630710590F14EC0FC013E
:1027900080A591A5A2A5B3A54AC0AE014F5F5F4F2A
:1027A00064E40E94D633811148C0998120E030E072
:1027B000392F330FA90160E070E0232B49F5F801B0
:1027C00044A555A566A577A5F7014083518362838B
:1027D0007383F801158E31C0FC0180A991A9A2A9CB
:1027E000B3A925C0FC0184A995A9A6A9B7A91FC0B2
:1027F000AE014F5F5F4F64E60E94D63381111DC06A
:10280000298180E090E0922F990FA0E0B0E00FC006
:10281000F7014083518362837383F80144A755A76E
:1028200066A777A791E0958F08C08CEF06C0F701E7
:1028300080839183A283B38380E00F900F90DF9118
:10284000CF911F910F91FF90EF900895EF92FF921B
:102850000F931F93CF93DF931F92CDB7DEB78C01F9
:102860007B01AE014F5F5F4F61E00E94CB3381116E
:1028700013C09981F801E158FF4F908397FF04C07E
:1028800091E0F701908302C0F7011082F701908177
:10289000F801E05CFF4F90830F90DF91CF911F9183
:1028A0000F91FF90EF9008958F929F92AF92BF92F9
:1028B000CF92DF92EF92FF920F931F93CF93DF930C
:1028C0008C01EB01FC01808588836B5F7F4FC80121
:1028D0006CDD81114CC01986BE01645F7F4FC80159
:1028E0001DDE811144C0BE01605F7F4FC801B5D7B6
:1028F00081113DC06E01F0E2CF0ED11C48018CE188
:10290000880E911C5E01E4E1AE0EB11CE12CF12CAD
:10291000A601B701C8011EDF811129C0F401819110
:102920004F01F50181935F01FFEFEF1AFF0A84E089
:10293000C80ED11CE6E0EE16F10451F7BE01685C4A
:102940007F4FC80183DF811112C0BE016F5F7F4FCF
:10295000C801DF91CF911F910F91FF90EF90DF9011
:10296000CF90BF90AF909F908F900C94AB29DF9148
:10297000CF911F910F91FF90EF90DF90CF90BF907C
:10298000AF909F908F900895EF92FF920F931F93B7
:10299000CF93DF93CDB7DEB7EA970FB6F894DEBFDB
:1029A0000FBECDBF8C0121E04EEF69E80E94A0333D
:1029B000811105C040E068E8C8010E947F33F8013A
:1029C000E559FF4F108288EE93E0BF969183808394
:1029D00080E991E032969183808385E89BE6A1E0CF
:1029E000B0E0329680839183A283B38384EA90E738
:1029F000A9E0B0E0EA54F10980839183A283B38314
:102A0000F801148A158A168A178ABE016F5F7F4FF4
:102A1000C8014ADFF82E81110AC0198289E3FE013C
:102A20003196D801189601900D928A95E1F784E6C7
:102A300090E0F801EE57FF4F9183808384E893E0A4
:102A400032969183808384EF91E0329691838083E4
:102A500080E09AE033969183808381E07096808352
:102A600041E060E8C8010E947F33E82E41E06FEF4B
:102A7000C8010E947F338E29F82A40E060E0C80137
:102A80000E947F33F82AAE01465C5F4F61E9C801BE
:102A90000E94CB33F82A8AADF801E857FF4F8083B4
:102AA00041E060E0C8010E947F33F82A40E06FEF08
:102AB000C8010E947F33F82A40E060E8C8010E9404
:102AC0007F338F29E12CF12C811158C041E0B701EF
:102AD000C80165DDFFEFEF1AFF0A96E0E916F10481
:102AE00099F781114BC0F801168E178E40E064E013
:102AF00070E0C80154DD811141C040E065E070E044
:102B0000C8014DDD81113AC020E030E042E150E0E3
:102B100060E070E0C801B8DD811130C020E030E431
:102B200040E050E061E070E0C801AEDD811126C0F8
:102B300020E030E043E250E062E070E0C801A4DD54
:102B400081111CC020E030E0A90163E070E0C80101
:102B50009BDD811113C08FEFF801E158FF4F808397
:102B60004FEF61E0C8010E947F3391E0F801E05827
:102B7000FF4F9083811102C072971082EA960FB6C0
:102B8000F894DEBF0FBECDBFDF91CF911F910F91A3
:102B9000FF90EF90089521E00C9463204BC45EC534
:102BA000CF92DF92EF92FF920F931F93CF93DF9319
:102BB0001F92CDB7DEB78C01FC01F08441E060E8E4
:102BC0000E947F3341E06FEFC8010E947F3340E0F5
:102BD00060E0C8010E947F33F801E857FF4F408151
:102BE00061E9C8010E947F3341E060E0C8010E94B2
:102BF0007F3340E06FEFC8010E947F3340E060E820
:102C0000C8010E947F33F1E0FF1691F1FF1628F012
:102C100083E0F8123AC044E02CC041E060E0C80113
:102C20000E947F3391E09983811132C0C12CD12C55
:102C300076019FEFC91AD90AE90AF90A998190FF2A
:102C400010C081110EC0E8ECCE16D104E104F104ED
:102C5000F1F0AE014F5F5F4F60E0C8010E94CB33DF
:102C6000E8CFF8ECCF16D104E104F10489F40FC0E9
:102C700042E060E0C8010E947F33811109C0F80181
:102C8000E058FF4F94E0908303C088EF01C089EFC4
:102C90000F90DF91CF911F910F91FF90EF90DF90F8
:102CA000CF9008950F931F93CF93DF93EC01062FDE
:102CB0001885111115C074DF002351F0811113C064
:102CC000CE010E94B32281110EC0112319F006C05B
:102CD000811109C0C058DF4F83E0888380E003C0C2
:102CE0006623E1F3EDCFDF91CF911F910F9108950E
:102CF000CF93DF93EC0140E060E00E947F3341E03E
:102D00006FEFCE010E947F3340E060E0CE010E9471
:102D10007F3340E061E9CE010E947F3341E060E013
:102D2000CE010E947F3340E06FEFCE010E947F33DF
:102D3000811104C0C058DF4F93E09883DF91CF9199
:102D400008953F924F925F926F927F928F929F92DF
:102D5000AF92BF92CF92DF92EF92FF920F931F93A9
:102D6000CF93DF93CDB7DEB761970FB6F894DEBF90
:102D70000FBECDBF5C014B010CE010E020E030E065
:102D8000AE014F5F5F4F64E10E9467338111BBC0AA
:102D90006B8570E0762F66278C85680F711DE8853E
:102DA000F0E0FE2FEE27FF0F2F01612C712CD401D4
:102DB00014964D925D926D927C9217978A8590E061
:102DC000982F8827990F8C0120E030E018960D93FA
:102DD0001D932D933C931B970B8110E0102F002720
:102DE0008C81080F111D51961C930E9350973980BA
:102DF000D501A656BF4F2D913C91283EB3E03B072D
:102E0000E9F1629FC001639F900D729F900D1124A4
:102E10008C509E4F68EE73E00E949C38D50154960A
:102E20008D919D910D90BC91A02D8E879F87A88B31
:102E3000B98BD50151962C91222301F1089F600195
:102E4000099FD00C189FD00C1124CD2CDD24E12C2F
:102E5000F12C4C145D046E047F0471F09F01DB01C2
:102E60000E94F538A30192012C193D094E095F0912
:102E70000E94B038B90102C060EE7AE8F4017183B3
:102E80006083CE010D966C017401A3019201632D44
:102E9000C5010E947B30811136C09D85D4015296B8
:102EA0009C93F501E557FF4F408151816281738109
:102EB000F401448755876687778760807180A28197
:102EC000B381C480D580E680F780408551856285D6
:102ED00073852089318985010F5B1F4FF80171824D
:102EE00060823296B183A0833296C082D182E28220
:102EF000F38234964083518362837383389631839F
:102F000020833296908361960FB6F894DEBF0FBE91
:102F1000CDBFDF91CF911F910F91FF90EF90DF9088
:102F2000CF90BF90AF909F908F907F906F905F9069
:102F30004F903F900895EF92FF920F931F93CF937E
:102F4000DF931F92CDB7DEB77C0100E041E06BE07C
:102F5000C7010E947F33182F40E06BE0C7010E9439
:102F60007F33182BAE014F5F5F4F63E1C7010E94B3
:102F7000CB33812B0F5F9981977029F0033029F0B3
:102F8000882321F303C0033009F484EF0F90DF910D
:102F9000CF911F910F91FF90EF900895EF92FF92C4
:102FA0001F93CF93DF93EC017B01142F1886642FBE
:102FB00079DE112389F081110FC0B701CE01C1DE86
:102FC00081110AC040E050E0BA01CE01DF91CF91FB
:102FD0001F91FF90EF90AFCFDF91CF911F91FF90A6
:102FE000EF900895EF92FF920F93CF93611180C0FD
:102FF000443161F4002311F041E001C040E164E894
:10300000CF910F91FF90EF900C947F33C22F7C01F2
:10301000453109F05AC041E06FEF0E947F33C82F5D
:1030200040E060E0C7010E947F33C82B40E06FEFB3
:10303000C7010E947F33C82B41E060E8C7010E94AE
:103040007F33C82B42E065E8C7010E947F33C82B5D
:1030500044E06FEFC7010E947F33C82B40E06DEC66
:10306000C7010E947F33C82B41E16CECC7010E946D
:103070007F33C82B47E06FEFC7010E947F33C82B17
:1030800040E06EEBC7010E947F33C82B46E06FEF34
:10309000C7010E947F33C82B49E06CECC7010E9436
:1030A0007F33C82B40E06FEFC7010E947F33C82BEE
:1030B00041E06FEFC7010E947F33C82B40E060E022
:1030C000C7010E947F338C2B36C0223069F030F468
:1030D000222381F0213071F541E00DC0233031F021
:1030E000243041F544E007C042E005C043E003C09E
:1030F00086EF21C040E06AE0C7010E947F33811162
:103100001AC0002311F020E101C020E04FEE64E876
:10311000C7010E94A03381110EC0F701E65AFF4F8C
:10312000C08340E050E0BA01C701CF910F91FF90FA
:10313000EF9001CF85EFCF910F91FF90EF90089521
:10314000CF92DF92EF92FF920F931F93CF93DF9373
:10315000CDB7DEB7C654D1090FB6F894DEBF0FBEA7
:10316000CDBF7C01162FCE0101966C0189E3F601DB
:1031700011928A95E9F724961FAE1EAE24972796E2
:103180001FAE279726961FAE269722961CAE1DAE21
:103190001EAE1FAE229761E0C7010E945E2311118F
:1031A00023C0F701E359FF4F2081223090F431977B
:1031B000408150E060E070E0213031F4413251054F
:1031C0006105710530F40EC04D3051056105710582
:1031D00048F0AE014B5B5F4FBE01625C7F4FC701A1
:1031E000A0D702C0C7018BD58111B9C0F701E7563E
:1031F000FF4F8081811104C032976081718102C0CC
:1032000063E171E0C7010E948F2A8111A8C000E02C
:1032100024E040E060E0C701E5DE8111A0C041E0AC
:103220006FEFC7010E947F33182FAE014E5B5F4FD7
:1032300064E8C7010E94D633182B40E06FEFC70146
:103240000E947F33812B09F08AC0F701EC5AFF4FAF
:1032500024968EAD9FAD249724E0880F991F2A9560
:10326000E1F7A0E0B0E080839183A283B383B6014D
:10327000C7011ADB811173C089E3F601D7011896E3
:1032800001900D928A95E1F7AE014A5B5F4F61E0D4
:10329000C7010E94CB33811162C027968FAD27975B
:1032A000F701E158FF4F808340E060E0C7010E94D2
:1032B000B710811154C040E062E0C7010E94B7100E
:1032C00081114DC083E0F701E058FF4F8083AE01CC
:1032D0004C5B5F4F60E0C7010E94BD2881113FC079
:1032E00025968FAD2597F701EC59FF4F8083AE01EE
:1032F0004C5B5F4F61E0C7010E94BD2881112FC068
:1033000025968FAD2597F701E15AFF4F8083AE01D7
:10331000465C5F4F63E0C7010E94E32581111FC037
:103320008AAD9BADACADBDADF701E05AFF4F8083D8
:103330009183A283B383AE01465C5F4F64E0C70113
:103340000E94E32581110BC0F701E55AFF4F4AADFA
:103350005BAD6CAD7DAD4083518362837383CA5B8B
:10336000DF4F0FB6F894DEBF0FBECDBFDF91CF9118
:103370001F910F91FF90EF90DF90CF9008950F93E2
:103380001F93CF93DF931F92CDB7DEB78B01AE01B2
:103390004F5F5F4F63E10E94CB339981492F4770A4
:1033A00050E060E070E0F8014083518362837383F2
:1033B000987109F08AEF0F90DF91CF911F910F91D3
:1033C00008950F931F93CF93DF9300D000D0CDB714
:1033D000DEB78B01FC01E65AFF4F2081243071F4E7
:1033E000BE016F5F7F4FCBDF49815A816B817C814A
:1033F000443051056105710581F40BC0AE014F5F8A
:103400005F4F64E10E94CB33811109C0998190FF25
:1034100004C091E0F801908302C0F80110820F907F
:103420000F900F900F90DF91CF911F910F91089502
:1034300066C477C62F923F924F925F926F927F92AF
:103440008F929F92AF92BF92CF92DF92EF92FF92B4
:103450000F931F93CF93DF93CDB7DEB7A1970FB62E
:10346000F894DEBF0FBECDBF411551056105710552
:1034700009F445C039A328A34C8F5D8F6E8F7F8FD1
:103480001C0160E00E9421128111CFC040E063E086
:1034900070E0C10184D88111C8C022E32C8BC12CFB
:1034A000D12C7601412C512C320100E010E0A12CEE
:1034B000B12C41E0BE016F5F7F4FC1016FDD811113
:1034C00020C08B89811115C089819A81A80EB91EEF
:1034D0008D819E81AF81B885480E591E6A1E7B1E64
:1034E0008A88912C080D191D3FEFC31AD30AE30AED
:1034F000F30A4C8941504C8B4111DBCF09C08CEF52
:1035000094C0CD28CE28CF2809F08FC08AEF8DC077
:10351000C114D104E104F104C9F3C801A0E0B0E092
:1035200077276627A70196010E94B038DA01C90102
:103530009058AF4FBF4F9D01442755272C8B3D8B93
:103540004E8B5F8B232B242B252B09F459C08C8D9C
:103550009D8DAE8DBF8D9058AF4FBF4F9D014427BD
:103560005527288F398F4A8F5B8F232B242B252BB0
:1035700009F446C0C501A0E0B0E077276627A7019F
:1035800096010E94B03849015A018C8D9D8DAE8DF7
:10359000BF8D281739074A075B0790F5C301B201B1
:1035A000A70196010E94B038CA01B9012C893D8952
:1035B0004E895F890E94B03869017A01C501B40162
:1035C000288D398D4A8D5B8D0E94B03880E090E067
:1035D000A1E0B0E04C015D01821A930AA40AB50A89
:1035E000A5019401C701B6010E948D386B017C01D1
:1035F00020E8D20EE11CF11C6701EE24FF2403C079
:10360000C12CD12C7601A8A1B9A1CD92DD92ED9269
:10361000FC92139761E0C1010E942112811105C043
:10362000B701A601C1010E945512A1960FB6F894E8
:10363000DEBF0FBECDBFDF91CF911F910F91FF90E5
:10364000EF90DF90CF90BF90AF909F908F907F9042
:103650006F905F904F903F902F9008952F923F92E0
:103660004F925F926F927F928F929F92AF92BF9292
:10367000CF92DF92EF92FF920F931F93CF93DF933E
:10368000CDB7DEB764970FB6F894DEBF0FBECDBFDF
:10369000411551056105710509F444C019016A011C
:1036A0007B018C0140E050E0BA010E949F10811123
:1036B00085C0AE014C5E5F4F60E0C8010E944C11B6
:1036C00081117CC040E060E0C8010E94B710811108
:1036D00075C040E063E070E0C8010E94CF12811124
:1036E0006DC042E3842E912C412C512C3201A12C2F
:1036F000B12C41E0BE016F5F7F4FC8014FDC8111EB
:1037000013C08B89811109C089819A81A80EB91EC5
:103710008FEF481A580A680A780AE1E08E1A910871
:1037200041F709C08CEF4AC045284628472809F0D0
:1037300045C08AEF43C04114510461047104C9F3C8
:10374000F0E8DF0EE11CF11C6701EE24FF24C50147
:10375000A0E0B0E077276627A30192010E94B0386D
:10376000DA01C9019058AF4FBF4FCD01AA27BB273F
:10377000A7019601281B390B4A0B5B0BA8EEB3E09F
:103780000E940439F1016083718382839383F8017D
:10379000608F718F828F938FF1014081518162819F
:1037A0007381C8010E949F10811108C09C899923D0
:1037B00029F041E060E0C8010E94B71064960FB69E
:1037C000F894DEBF0FBECDBFDF91CF911F910F9157
:1037D000FF90EF90DF90CF90BF90AF909F908F9031
:1037E0007F906F905F904F903F902F900895CF9370
:1037F000DF93EC01CB01BA0169312CEC720727E0B1
:10380000820791055CF4611520E3720728EF8207B7
:103810002FEF920774F097FF05C00FC068E17CECB2
:1038200087E090E02AEF30E040E050E00E94D2389C
:103830000DC060E070E388EF9FEF2AEF30E040E0DA
:1038400050E00E94D238305F4F4F5F4FA90168E2CD
:10385000CE01DF91CF910C948A330F931F93CF93B6
:10386000DF9300D0CDB7DEB78B01AE014F5F5F4F66
:1038700068E20E94D633811117C029813A813F70D6
:10388000211598E0390708F030519AEF929FA00176
:10389000939F500D1124052E000C660B770BF80139
:1038A00040835183628373830F900F90DF91CF9198
:1038B0001F910F9108953F924F925F926F927F9266
:1038C0008F929F92AF92BF92CF92DF92EF92FF9230
:1038D0000F931F93CF93DF93CDB7DEB728970FB623
:1038E000F894DEBF0FBECDBF9E838D83F886EF8236
:1038F000CC24CA94DC2C7601AF81B885CD92DD92C0
:10390000ED92FC9213974801590193E0B694A79465
:10391000979487949A95D1F7D901C8018770992710
:10392000AA27BB2789839A83AB83BC8324013501F3
:1039300023E0440C551C661C771C2A95D1F77501B1
:103940006401312CC416D506E606F70608F040C01F
:1039500031103EC0ED81FE81EC0DFD1D8081C8144B
:10396000D904EA04FB0461F490E0098002C0959553
:1039700087950A94E2F709811A812B813C8103C063
:1039800000E010E0980180FF0EC0040D151D261DFB
:10399000371DAF81B8850D931D932D933C931397DD
:1039A000332433940AC086950F5F1F4F2F4F3F4F2C
:1039B000083011052105310531F7BFEFCB1ADB0ABD
:1039C000EB0AFB0AE8E04E0E511C611C711CBACFD9
:1039D00028960FB6F894DEBF0FBECDBFDF91CF9112
:1039E0001F910F91FF90EF90DF90CF90BF90AF901D
:1039F0009F908F907F906F905F904F903F90089531
:103A0000DC01CB0126E0B695A795979587952A9579
:103A1000D1F7BC01660F771F660F771FFB01EA5FC6
:103A2000FD4F81E04081518162817381452B462B9E
:103A3000472B09F480E00895CF92DF92EF92FF9236
:103A40000F931F9368017901E3E0F694E794D7940C
:103A5000C794EA95D1F70770112722273327C41698
:103A6000D506E606F70670F4FC01EC0DFD1D81E0BD
:103A700090E001C0880F0A95EAF79081892B808336
:103A800080E001C08EEC1F910F91FF90EF90DF90CE
:103A9000CF9008950F931F93AB0106E010E020E054
:103AA00030E060EB0E944F331F910F9108950F9308
:103AB0001F93AB0106E010E020E030E060EB0E94D5
:103AC00067331F910F9108952F923F924F925F920B
:103AD0006F927F928F929F92AF92BF92CF92DF921E
:103AE000EF92FF920F931F93CF93DF93CDB7DEB783
:103AF00065970FB6F894DEBF0FBECDBF9A8B898B4A
:103B00006B8B5D8B4C8B2F87388B170128012AA577
:103B10003BA54CA55DA52F83388749875A871B860F
:103B20001C861D861E862B853C854D855E858EA553
:103B30009FA5A8A9B9A9281739074A075B07B9F0B3
:103B4000AE01495F5F4F7A010AA51BA52CA53DA5D3
:103B5000B201A1018C899D89AEDE6F807884898451
:103B60009A845FEF651675068506950611F480E068
:103B700028C0C401B3016A0D7B1D8C1D9D1D40DF53
:103B80009B8989131DC094018301B201A1018F8516
:103B9000988952DFA40193012F5F3F4F4F4F5F4F32
:103BA0002AA73BA74CA75DA78B859C85AD85BE85C5
:103BB0000196A11DB11D8B879C87AD87BE87B3CFB2
:103BC0008EECEAA9FBA92AA53BA54CA55DA52083FF
:103BD000318342835383811123C06F85788989891A
:103BE0009A8958DF81111CC0BE016F5F7F4F8989A0
:103BF0009A895DDFAF85B889FE01319640E050E0DB
:103C0000BA01421553056405750551F02D91919146
:103C1000291305C04F5F5F4F6F4F7F4FF2CF8EEC80
:103C200065960FB6F894DEBF0FBECDBFDF91CF9182
:103C30001F910F91FF90EF90DF90CF90BF90AF90CA
:103C40009F908F907F906F905F904F903F902F90BC
:103C50000895AF92BF92DF92EF92FF920F931F935E
:103C6000CF93DF93CDB7DEB763970FB6F894DEBF7F
:103C70000FBECDBF8C015B017C018FE7E80EF11C0C
:103C8000F701D08040EC61E0C8010E947F338111D0
:103C900026C041E0BE016F5F7F4FC8017FD981110F
:103CA0001EC041E06FEFC8010E947F33811117C031
:103CB000A50166EBC8010E94D633811110C040E017
:103CC0006FEFC8010E947F33811109C04D2D61E063
:103CD000C8010E947F33811102C0F701D082639630
:103CE0000FB6F894DEBF0FBECDBFDF91CF911F910D
:103CF0000F91FF90EF90DF90BF90AF9008954F929B
:103D00005F926F927F928F929F92AF92BF92CF926B
:103D1000DF92EF92FF920F931F93CF93DF9300D028
:103D200000D0CDB7DEB74C01642E152F062FB72E6D
:103D3000722E41E06FEF0E947F3381111AC040E084
:103D40006FE4C4010E947F33811113C04CE26EE422
:103D5000C4010E947F3381110CC040E06FEFC401A9
:103D60000E947F33811105C044EB66EBC4010E94C1
:103D70007F33240123E7420E511CF2011082319659
:103D800010823196108231961082319610823196CF
:103D90001082C12CD12C76017720A9F0C701B60181
:103DA0006C547F4F8F4F9F4F2BDE81110CC02CE244
:103DB000C216D104E104F10431F0FFEFCF1ADF0A9B
:103DC000EF0AFF0AEBCFCE0101969F938F93BF922C
:103DD0000F931F936F92FF92EF92DF92CF9284EB3B
:103DE000A82EB12CC12CD12C16E0E12EF12C00E034
:103DF00010E09201A40147585F4F672DC40164DEB3
:103E00000FB6F894DEBF0FBECDBF811109C0F4011B
:103E1000E259FF4F91E09083329760823196708231
:103E20000F900F900F900F90DF91CF911F910F91F6
:103E3000FF90EF90DF90CF90BF90AF909F908F90CA
:103E40007F906F905F904F900895CF93DF93EC0138
:103E5000462F416060E00E947F33811112C0CE0185
:103E600082D381110EC040E050E0BA01CE0163D888
:103E7000811107C040E060E0CE01DF91CF910C944A
:103E80007F33DF91CF9108955F926F927F928F92EF
:103E90009F92AF92BF92CF92DF92EF92FF920F93D9
:103EA0001F93CF93DF931F92CDB7DEB74C01562EF1
:103EB000B42ED22E3801198241E06FEF0E947F3379
:103EC000182F40E060E0C4010E947F33182B40E0CF
:103ED0006FEFC4010E947F33182B552091F0CC2046
:103EE00031F0A3016BECC4010E94CB33182BAA2044
:103EF000C9F0AE014F5F5F4F6EEEC4010E94CB333D
:103F000010C0CC2031F04B2D6BECC4010E947F33EC
:103F1000182BAA2039F02D2D40E86EEEC4010E9426
:103F2000A033182B41E06FEFC4010E947F33182BA0
:103F300041E060E0C4010E947F33182B40E06FEF46
:103F4000C4010E947F3399819F7EF7019083812B6A
:103F50000F90DF91CF911F910F91FF90EF90DF9025
:103F6000CF90BF90AF909F908F907F906F905F9019
:103F700008958F929F92AF92BF92CF92DF92EF926D
:103F8000FF920F931F93CF93DF931F92CDB7DEB7AE
:103F90004C018B01F42EB22E1982222329F0FC0150
:103FA000E158FF4FD08001C0D12C41E061E0C40155
:103FB0000E947F33811114C060E4C40146DF811187
:103FC0000FC091E0F9120CC0A12CCC24C394FE01C7
:103FD00031967F0120E040E061E0C40155DF02C07E
:103FE000F801108281110DC0BB2059F04D2D61E008
:103FF000C4010E947F33811104C0F401E158FF4FD6
:10400000D0820F90DF91CF911F910F91FF90EF9091
:10401000DF90CF90BF90AF909F908F9008958F9238
:104020009F92AF92BF92CF92DF92EF92FF920F9347
:104030001F93CF93DF931F92CDB7DEB74C017B0167
:10404000142FB22E222329F0FC01E158FF4FD0801B
:1040500001C0D12C42E061E0C4010E947F33811194
:1040600013C060E0C401F1DE81110EC0113061F4B3
:10407000AA24A394C12C8E010F5F1F4F20E040E0C3
:1040800061E0C40101DF02C0F701108281110DC09F
:10409000BB2059F04D2D61E0C4010E947F33811196
:1040A00004C0F401E158FF4FD0820F90DF91CF910F
:1040B0001F910F91FF90EF90DF90CF90BF90AF9046
:1040C0009F908F900895CF92DF92EF92FF920F937F
:1040D0001F93CF93DF93EC016A01E22E8C0101580C
:1040E0001F4FF801F08020E04E2D43DF811110C0FA
:1040F00020E04E2DB601CE0192DF811109C04F2D77
:1041000061E0CE010E947F33811102C0F801F0828C
:10411000DF91CF911F910F91FF90EF90DF90CF90A3
:1041200008952F923F924F925F926F927F928F925B
:104130009F92AF92BF92CF92DF92EF92FF920F9336
:104140001F93CF93DF93CDB7DEB7A8970FB6F89440
:10415000DEBF0FBECDBF4C017CA36BA35EA34DA3FE
:104160001B861C861D861E861F82188619861A8647
:104170001A8A198AFC01E757FF4F208131813C8B55
:104180002B8B1C0133E7230E311CD1011C922C0117
:10419000B4E74B0E511CF201108231961082319619
:1041A0001082319610823196108241E06FEF0E94AA
:1041B0007F338111BFC140E06FE4C4010E947F33AF
:1041C0008111B8C14CE26EE4C4010E947F338111B9
:1041D000B1C140E06FEFC4010E947F338111AAC1D9
:1041E00044EB66EBC4010E947F338111A3C140E020
:1041F00060E8C4010E947F3381119CC120E0AE01C0
:104200004F5E5F4FBE016E5E7F4FC4015CDF811168
:1042100091C11B861C861D861E86940127583F4F20
:104220003A8F298F3E013BE0630E711C7F926F92A3
:104230001F921F921F9283E08F931F921F921F92D3
:104240001F9244EBA42EB12CC12CD12C16E0E12EF0
:10425000F12C00E010E09101498D5A8D60E0C4011D
:1042600033DC0FB6F894DEBF0FBECDBF811162C143
:10427000AB84BC84CD84DE84BE01615F7F4FC4010A
:10428000E8DC811157C18F859889AB89BC89A81753
:10429000B90708F05DC0F1011082D2011C9232967C
:1042A0001082319610823196108231961082C601AA
:1042B000B5016C547F4F8F4F9F4FA2DB882319F1BC
:1042C0007F926F921F921F921F9283E08F93DF92D3
:1042D000CF92BF92AF9224EBA22EB12CC12CD12C45
:1042E00016E0E12EF12C00E010E09101498D5A8D8D
:1042F00061E0C401E9DB0FB6F894DEBF0FBECDBFAD
:10430000811118C10CC0FCE2AF16B104C104D10484
:10431000B8F6BFEFAB1ABB0ACB0ADB0AC8CFAB8437
:10432000BC84CD84DE84BE01615F7F4FC40191DC1B
:10433000811100C18F8598892B893C8928173907FD
:1043400080F421E093E0492E512C612C712C0DC09A
:1043500020E0412C512C32011D8A1E8A1F8A188EA2
:104360000CC020E0412C512C320181E090E0A0E013
:10437000B0E08D8B9E8BAF8BB88F8F859889AB8982
:10438000BC898A179B0708F0BBC026E0F101DE015B
:10439000119601900D922A95E1F7AB89BC898A1B91
:1043A0009B0B97FF03C09195819591099C01990FF3
:1043B000440B550B2F8F38A349A35AA383E0482EF3
:1043C000512C612C712CA4014D585F4F58A74FA35D
:1043D000CE0107967C019601850146E050E060E041
:1043E00070E0898D9A8D67DACF80D884E984FA8469
:1043F0009FEFC916D906E906F90609F49AC0C70164
:10440000B6016C547F4F8F4F9F4FFADA90E0A0E0D7
:10441000B0E02D893E894F89588D82179307A407F4
:10442000B50709F06CC0D301C2010196A11DB11DF1
:104430008B8F9C8FAD8FBE8F9701860146E050E039
:1044400060E070E0C101F8DA811174C056016701C3
:104450009FEFA91AB90AC90AD90AB101C4011ADB26
:10446000811168C0BE01615F7F4FC401F2DB811121
:1044700061C08F859889AC01AB89BC894A1B5B0BF5
:1044800057FF03C0519541955109052E000C660B4D
:10449000770BEB89FC89E817F907D8F48F8D98A181
:1044A000A9A1BAA184179507A607B70720F5BE01F1
:1044B0006F5F7F4FC401EEDA96E0FE013196D401C2
:1044C000AD58BF4F01900D929A95E1F78823B9F04E
:1044D00031C086E0EFA1F8A5DE01119601900D92A2
:1044E0008A95E1F74B8C5C8C6D8C7E8C4F8F58A33A
:1044F00069A37AA36DCF4B8C5C8C6D8C7E8C2D89DF
:10450000ABA1BCA14D925D926D927C921397EDA1EF
:10451000FEA12083F401E259FF4F81E080833297AE
:104520008C918083ADA1BEA18C913196808380E077
:1045300001C08EECA8960FB6F894DEBF0FBECDBFBB
:10454000DF91CF911F910F91FF90EF90DF90CF906F
:10455000BF90AF909F908F907F906F905F904F90A3
:104560003F902F900895EF92FF920F931F93CF9358
:10457000DF931F92CDB7DEB77C01198200E010E017
:10458000BE016F5F7F4FC7010E94E11981110DC00D
:104590009981913051F00F5F1F4F083C110521F0B8
:1045A000C7010E94EC33ECCF89EF0F90DF91CF91E0
:1045B0001F910F91FF90EF900895CF92DF92EF92AD
:1045C000FF920F931F938B019C0140E050E060E04D
:1045D00070E4041715072607370740F4A2E0769524
:1045E000679557954795AA95D1F7F3CF80E090E06E
:1045F000DC014115510561057105F9F06C017D0182
:10460000C40ED51EE61EF71EB695A79597958795FD
:104610000C151D052E053F0540F00C191D092E092E
:104620003F09840F951FA61FB71FE2E07695679597
:1046300057954795EA95D1F7DCCFBC01CD011F9185
:104640000F91FF90EF90DF90CF900895CF92DF927F
:10465000EF92FF921F93CF93DF931F92CDB7DEB7F8
:104660007C0140E063E80E947F33182F811117C05E
:10467000C12CD12CAE014F5F5F4F63E8C7010E9490
:10468000CB33182F898181110AC0111108C08FEF17
:10469000C81AD80A88ECC816D10461F719EF41E0AE
:1046A00063E8C7010E947F33812B0F90DF91CF9188
:1046B0001F91FF90EF90DF90CF9008952F923F923F
:1046C0004F925F926F927F928F929F92AF92BF9222
:1046D000CF92DF92EF92FF920F931F93CF93DF93CE
:1046E000CDB7DEB72E970FB6F894DEBF0FBECDBFA5
:1046F0009C0125593F4F3D872C87F901C080F7E089
:10470000CF1609F450C1E62E8C0141E060E80E940A
:104710007F33F82E41E06FEFC8010E947F33F82A03
:1047200040E060E0C8010E947F33F82A46E06FEF66
:10473000C8010E947F33F82AAE01455F5F4F63E8EE
:10474000C8010E94CB33F82A4B85446063E8C80156
:104750000E947F33F82A47E06FEFC8010E947F3341
:10476000F82A41E061E8C8010E947F33F82AC801B5
:104770000E94EC33F82A41E060E8C8010E947F33D0
:10478000F82A2E2D2170222EE0FE54C0C0FC52C00B
:104790004BE664E9C8010E947F33D82EC80156DF7A
:1047A0008D29F82AAE01495F5F4F60E9C8010E9478
:1047B000E133F82A8F819885A985BA85392F3F770B
:1047C000332EEFE0B695A79597958795EA95D1F7A3
:1047D000E82FE170DE2E44E264E9C8010E947F33D5
:1047E000F82AC80133DFF82AAE01495F5F4F60E95C
:1047F000C8010E94E133F82A8F81988529853A857E
:1048000039832A839B838C8345E264E9C8010E9433
:104810007F33F82AC8011ADFF82AAE01495F5F4FDB
:1048200060E9C8010E94E133F82A89859A859D8351
:104830008E8302C0D12C312CFE2DF470FE87E2FE57
:1048400076C0C2FC74C043E764E9C8010E947F33AC
:10485000B82EC801FBDE8B29F82AAE01495F5F4FF5
:1048600060E9C8010E94E133F82A8F809884A98406
:10487000BA84BA2CA92C982C8824240135016624EA
:10488000772444E764E9C8010E947F33F82AC8010D
:10489000DDDEF82AAE01495F5F4F60E9C8010E9482
:1048A000E133F82A8F809884A984BA848B2C9924C8
:1048B000AA24BB2484289528A628B72845E764E9BC
:1048C000C8010E947F33F82AC801C0DEF82AAE0171
:1048D000495F5F4F60E9C8010E94E133F82A4F80C9
:1048E000588469847A84762C652C542C442466245C
:1048F000772446E764E9C8010E947F33F82AC8019B
:10490000A5DEF82AAE01495F5F4F60E9C8010E9449
:10491000E133F82A8F819885A985BA858B2F99274D
:10492000AA27BB27482A592A6A2A7B2A06C0812C33
:10493000912C5401412C512C320140E061E8C80116
:104940000E947F33F82A46E06FEFC8010E947F3350
:10495000F82AAE01455F5F4F63E8C8010E94CB3380
:10496000F82A4B854B7F63E8C8010E947F33F82A01
:1049700041E06FEFC8010E947F33F82A41E060E018
:10498000C8010E947F33F82A40E06FEFC8010E94FF
:104990007F33F82A40E060E8C8010E947F33F82A9C
:1049A00009F057C002C0F12C54C0222011F0C0FE03
:1049B00004C02E85211113C048C0F801E459FF4FEF
:1049C00030823196D082DE0111963C96C801815822
:1049D0009F4F2D912193E817F907D9F7EACFC2FC31
:1049E00034C0F801E159FF4F39E0880C991CAA1C2A
:1049F000BB1C3A95D1F780829182A282B382411486
:104A0000510461047104B1F0A301920139514109CB
:104A10005109A8EEB3E00E940439DC01CB0124E087
:104A2000B695A795979587952A95D1F791958195F4
:104A3000910902C080E090E0092E000CAA0BBB0B8C
:104A4000F80184839583A683B783EC28EC85FD85E4
:104A5000E0828F2D2E960FB6F894DEBF0FBECDBF2D
:104A6000DF91CF911F910F91FF90EF90DF90CF904A
:104A7000BF90AF909F908F907F906F905F904F907E
:104A80003F902F900895CF92DF92EF92FF926115A1
:104A9000710581059105D1F0DC01CB010197A109D8
:104AA000B10920E030E06C017D01CC24CD28CE2876
:104AB000CF2839F0B695A795979587952F5F3F4FEB
:104AC000F2CF322F2227820F931F02C080E090E0A6
:104AD000FF90EF90DF90CF9008958F929F92AF92CA
:104AE000BF92CF92DF92EF92FF924A015B01A22F19
:104AF000B0E020E03FE24AE350E00E9404396B015D
:104B00007C0124EFC20E21E0D21EE11CF11CA8EEB4
:104B1000B3E0A50194010E9404394B015C01C70177
:104B2000B60120ED37E040E050E00E94B038820E40
:104B3000931EA41EB51EC701B60128EE33E040E067
:104B400050E00E94B038C501B4010E94B038CA01DB
:104B5000B901FF90EF90DF90CF90BF90AF909F9002
:104B60008F900895CF92DF92EF92FF92CF93DF93D1
:104B7000EB01A42FB0E020E03FE24AE350E00E94C6
:104B800004396C507E4F8F4F9F4F28EEC22E23E08A
:104B9000D22EE12CF12CA70196010E94B038DE0143
:104BA0000E9404396C507E4F8F4F9F4FA701960192
:104BB0000E94B038CA01B901DF91CF91FF90EF9008
:104BC000DF90CF900895AF92BF92CF92DF92EF9295
:104BD000FF921F93CF93DF93CDB7DEB72B970FB61E
:104BE000F894DEBF0FBECDBF7C015A011A8619862C
:104BF00018866330B8F4AE01455F5F4F60E00E94F5
:104C0000B510182F811108C0AE01465F5F4F66E4F2
:104C1000C7010E94CB33182F6A85862F90E0A0E051
:104C2000B0E02BC0633081F5AE01455F5F4F60E0BF
:104C30000E94B510182F811188C0AE01455F5F4FEB
:104C400060E0C7010E94B510182F811108C0AE01A5
:104C5000485F5F4F61E5C7010E94D633182F288552
:104C60003985B9017727CB01A0E0B0E004C0880FF7
:104C7000991FAA1FBB1F3A95D2F7BC01CD016F5FE8
:104C80007F4F8F4F9F4F5DC0643009F062C0BE01FF
:104C90006F5F7F4F0E9470118C81882331F1AE01CC
:104CA000455F5F4F60E0C7010E94B510182F81116A
:104CB00041C0AE01485F5F4F61E5C7010E94D63336
:104CC000182F28853985C9019927A0E0B0E004C0D4
:104CD000880F991FAA1FBB1F3A95D2F70196A11DF5
:104CE000B11D6C01111128C002C0C12CD12CAE0124
:104CF000455F5F4F61E0C7010E94B510182F811119
:104D00001BC0AE014A5F5F4F61E7C7010E94D63307
:104D1000182F2E813F81C9019927A0E0B0E004C07F
:104D2000880F991FAA1FBB1F3A95D2F70196A11DA4
:104D3000B11D04C0C12CD12C80E090E0BC016C19E5
:104D40007D094B85C7010EDF08C060E070E0CB0134
:104D500004C060E070E0CB0110E0F5016083718376
:104D600082839383812F2B960FB6F894DEBF0FBEFC
:104D7000CDBFDF91CF911F91FF90EF90DF90CF904B
:104D8000BF90AF9008958F929F92AF92BF92CF92B3
:104D9000DF92FF920F931F93CF93DF93CDB7DEB7D0
:104DA00028970FB6F894DEBF0FBECDBF8C01490126
:104DB0005A01633008F5AE01485F5F4F60E00E9422
:104DC000B510F82E811197C02885B501A401C8013E
:104DD00084DE4FEF613021E0720708F4460FF801DE
:104DE000E85AFF4F842F90E09183808366E4C801E6
:104DF0000E947F33F82E7FC0633021F5AE01485FFB
:104E00005F4F60E00E94B510F82E2885B501A4011F
:104E1000C80163DE8827992736DE9F838E83F801D9
:104E2000E85AFF4F91838083F11065C0AC0161E5C2
:104E3000C8010E948A33F82E81115DC0F801E05A42
:104E4000FF4F52C0643009F054C0BE016F5F7F4F06
:104E50000E9470118C81882331F1AE01485F5F4F51
:104E600060E0C8010E94B510F82E811144C0AE0167
:104E70004A5F5F4F61E5C8010E94D633F82E811169
:104E80003AC02E813F81C9019927A0E0B0E004C05B
:104E9000880F991FAA1FBB1F3A95D2F70196A11D33
:104EA000B11D6C0102C0C12CD12CAE01485F5F4F17
:104EB00061E0C8010E94B510F82E81111CC0288540
:104EC000B501A401C80109DE6C0D7D1D811D911D78
:104ED000DADDAC0161E7C8010E948A33F82E811146
:104EE0000AC0F801E55AFF4F80829182A282B38204
:104EF00002C08CEFF82E8F2D28960FB6F894DEBFE7
:104F00000FBECDBFDF91CF911F910F91FF90DF902A
:104F1000CF90BF90AF909F908F900895EF92FF92A7
:104F20000F931F93CF93DF93CDB7DEB72D970FB6B7
:104F3000F894DEBF0FBECDBF1D8640FD10C1042F0B
:104F40007C01611106C084EF840F873008F007C12F
:104F500009C0613009F0A1C088EF840F873008F0E4
:104F6000FEC01FC04C3011F448E103C04E3081F444
:104F700040E367E5C7010E947F3348E066E5C7016B
:104F80000E947F338111ECC0102F169511508DC0F7
:104F9000403111F440E4EDCF423109F07EC040E5EC
:104FA000E8CF4830F9F440E168E4C7010E947F335C
:104FB00048E067E4C7010E947F33182F42E062E3B4
:104FC000C7010E947F33182B4CE060E3C7010E94A9
:104FD0007F33182B41E06FEFC7010E947F33182BFE
:104FE00040E34AC04A3099F448E268E4C7010E94AD
:104FF0007F3348E067E4C7010E947F33182F43E006
:1050000062E3C7010E947F33182B49E029C04C306E
:1050100099F448E368E4C7010E947F3348E067E4FD
:10502000C7010E947F33182F43E062E3C7010E944B
:105030007F33182B48E014C04E3079F548E468E41B
:10504000C7010E947F3348E067E4C7010E947F33B5
:10505000182F43E062E3C7010E947F33182B47E01B
:1050600060E3C7010E947F33182B41E06FEFC70157
:105070000E947F33182B40E260E3C7010E947F3318
:10508000182B40E06FEFC7010E947F33812B09F09E
:1050900067C0102F1695115033C0102F1695115060
:1050A000662319F0613061F15AC0AE014B5F5F4F6A
:1050B00063E0C70188DD81111FC0AE014F5F5F4F04
:1050C00062E0C70180DD811117C0412F60E5C70193
:1050D0000E947F33811110C02D813E814F81588500
:1050E00063E0C70150DE811107C029813A814B81FD
:1050F0005C8162E0C70147DEF701EC59FF4F19C040
:10510000AE01475F5F4F64E0C7015DDD81110EC0F6
:10511000412F60E7C7010E947F33811107C02985B5
:105120003A854B855C8564E0C7012DDEF701E15AC5
:10513000FF4F0083811114C0F701418552856385BB
:105140007485C7010E94B11081110AC021E040E0BE
:10515000BE01635F7F4FC7010E940F2001C08CEF2B
:105160002D960FB6F894DEBF0FBECDBFDF91CF9165
:105170001F910F91FF90EF9008950F931F93CF937E
:10518000DF931F92CDB7DEB78A01662339F0613015
:1051900099F4AE014F5F5F4F60E704C0AE014F5F0F
:1051A0005F4F60E50E94CB33811107C099819F5FFB
:1051B000990FF801908301C08CEF0F90DF91CF9190
:1051C0001F910F9108958F929F92AF92BF92CF92AD
:1051D000DF92EF92FF920F931F93CF93DF93CDB7A0
:1051E000DEB72D970FB6F894DEBF0FBECDBF00ED32
:1051F00017E020E030E00A871B872C873D871E825E
:105200001F821886198640322EE452076105710507
:1052100008F48DC04A015B018C01BE016F5F7F4FB6
:105220000E947011811184C07501640186E3C81A5F
:105230008BE0D80AE108F1088981811107C08A81D1
:10524000811104C08B81882309F441C0AE01465FFF
:105250005F4F62E0C801B7DC81116AC08981882391
:1052600091F08A859B85AC85BD85825B9D4FAF4F54
:10527000BF4F8C159D05AE05BF0508F058C0C81A74
:10528000D90AEA0AFB0A8B81882369F08A859B8503
:10529000AC85BD858E549D4FAF4FBF4F880F991F72
:1052A000AA1FBB1F0BC08A81882389F08A859B8532
:1052B000AC85BD858C569D4FAF4FBF4F8C159D055E
:1052C000AE05BF05A0F5C81AD90AEA0AFB0A8C8107
:1052D0008823C9F0AE014A5F5F4F63E0C80173DC09
:1052E0004E815F81688579854C565D4F6F4F7F4F4A
:1052F0004C155D056E057F05D0F4811119C0C41AE7
:10530000D50AE60AF70A8D81882379F0A70196016C
:10531000265232404109510964E0C80134DDF801E8
:1053200081869286A386B48603C080E001C08CEF9C
:105330002D960FB6F894DEBF0FBECDBFDF91CF9193
:105340001F910F91FF90EF90DF90CF90BF90AF90A3
:105350009F908F9008958F929F92AF92BF92DF920D
:10536000EF92FF920F931F93CF93DF93CDB7DEB7EA
:1053700061970FB6F894DEBF0FBECDBF7C018B01E5
:1053800080ED97E0A0E0B0E08A879B87AC87BD877F
:105390001E821F821886198686E39BE0A0E0B0E09B
:1053A000FB0180839183A283B383BE016F5F7F4F34
:1053B000C7010E947011D82E81119EC08981811170
:1053C00007C08A81811104C08B81882309F448C0F9
:1053D000AE01465F5F4F62E0C701F5DB81118BC014
:1053E00089818823A9F08A859B85AC85BD85825BF0
:1053F0009D4FAF4FBF4FF801408151816281738152
:10540000840F951FA61FB71F80839183A283B38348
:105410008B81882369F08A859B85AC85BD858E54F8
:105420009D4FAF4FBF4F880F991FAA1FBB1F0BC0C7
:105430008A818823A9F08A859B85AC85BD858C5699
:105440009D4FAF4FBF4FF801408151816281738101
:10545000840F951FA61FB71F80839183A283B383F8
:105460008C818823E9F0AE014A5F5F4F63E0C7019A
:10547000AADB4E815F81688579854C565D4F6F4F01
:105480007F4FF80180809180A280B380480D591D24
:105490006A1D7B1D408351836283738381112BC0FE
:1054A0008D8181110BC0F80180819181A281B3812E
:1054B000F70181879287A387B4871EC0AE01425F40
:1054C0005F4F64E0C7017FDB4E855F85688979891E
:1054D0004A5D5D4F6F4F7F4FF80180809180A280C1
:1054E000B380480D591D6A1D7B1D40835183628323
:1054F00073838823C1F2D82E8D2D61960FB6F89450
:10550000DEBF0FBECDBFDF91CF911F910F91FF90F6
:10551000EF90DF90BF90AF909F908F9008952F9263
:105520003F924F925F926F927F928F929F92AF9233
:10553000BF92CF92DF92EF92FF920F931F93CF9380
:10554000DF9300D000D000D0CDB7DEB75C016B0197
:1055500020E030E080E0AE014F5F5F4F4A01F5018F
:10556000EC57FF4FFE83ED831501F2E82F0E311C3F
:10557000250146E8440E511C350159E8650E711CA1
:10558000F601E20FF31F0081002309F486C08111A8
:1055900084C079019FEFE91AF90A0F3F09F057C05B
:1055A000D601AE0DBF1D9C91790142E0E40EF11CC5
:1055B000913041F1B0F09230C9F1933009F06AC0F6
:1055C000D601AE0DBF1D9C91790144E0E40EF11CA3
:1055D0004381292F30E0322F2227240F311DF30180
:1055E00022C0D601AE0DBF1D9C91790154E0E50E9D
:1055F000F11C4381292F30E0322F2227240F311D47
:10560000F10111C0D601AE0DBF1D9C91790144E09E
:10561000E40EF11C4381292F30E0322F2227240F82
:10562000311DED81FE813183208335C0D601AE0D61
:10563000BF1D9C91790144E0E40EF11C4381292FA8
:1056400030E0322F2227240F311DF201ECCF05303C
:1056500008F5F601EE0DFF1D60817901F2E0EF0E15
:10566000F11CD601AE0DBF1DF401802F90E09F010B
:1056700028193909281739071CF42D912193F7CFE0
:10568000E80EF91E10E020E030E0A401C5010E9400
:105690004F3301C08CEF970173CF26960FB6F89465
:1056A000DEBF0FBECDBFDF91CF911F910F91FF9055
:1056B000EF90DF90CF90BF90AF909F908F907F90B2
:1056C0006F905F904F903F902F900895BF92CF9230
:1056D000DF92EF92FF920F931F93CF93DF931F926E
:1056E000CDB7DEB77C016B018A01DA011D921D92F4
:1056F0001D921C921397BE016F5F7F4F0E944F1245
:10570000B82E81111FC089818823E1F0F6018089BC
:105710009189D70154962D913D914D915C91579768
:10572000DC010E940439DC01CB0180589F4FAF4F50
:10573000BF4F892F9A2FAB2FBB27F801808391830E
:10574000A283B3838B2D0F90DF91CF911F910F9187
:10575000FF90EF90DF90CF90BF900895CF92DF92AF
:10576000EF92FF920F931F93CF93DF9300D000D05F
:10577000CDB7DEB78A01FB01C480D580E680F78013
:10578000FA01C082D182E282F382AE014F5F5F4FA5
:105790009DDF811111C0F801C080D180E280F380CB
:1057A00049815A816B817C814C0D5D1D6E1D7F1D71
:1057B00040835183628373830F900F900F900F90FB
:1057C000DF91CF911F910F91FF90EF90DF90CF90DD
:1057D00008954F925F926F927F928F929F92AF92B5
:1057E000BF92CF92DF92EF92FF920F931F93CF93CE
:1057F000DF93CDB7DEB72C970FB6F894DEBF0FBEA0
:10580000CDBF4D835E836F837887280139018986F8
:105810009A86AB86BC86FC01E456FF4F808091805F
:10582000A12CB12C32966081718182819381A50176
:1058300094010E948D38DC01CB0180589F4FAF4FFF
:10584000BF4F692F7A2F8B2F99270E948D3869833C
:105850007A838B839C83411451046104710479F130
:105860004D815E816F8178853AE0440F551F661F38
:10587000771F3A95D1F7D301C201B695A7959795B1
:1058800087958A019B01080F191F2A1F3B1FC90119
:10589000B801A30192010E94B038A3E0B0E00E94D9
:1058A00004399B01AC010E948D384B015C0110E86A
:1058B000910EA11CB11C4501AA24BB2403C0812C5C
:1058C000912C5401A701960169857A858B859C8569
:1058D0000E948D38DC01CB019058AF4FBF4FBD0106
:1058E000882799279B01AC010E948D386B017C01B0
:1058F0008F8D98A1A9A1BAA19058AF4FBF4FCD01EC
:10590000AA27BB27BC01CD016D5F7F4F8F4F9F4FF3
:1059100026E0422E512C612C712CA30192010E9491
:10592000B038A7E0B0E00E940439611571058140EC
:105930009105E8F46F8D78A189A19AA16D5F7F4FE1
:105940008F4F9F4FA30192010E94B038A7E0B0E0B3
:105950000E940439DC01CB019058AF4FBF4FBD010D
:10596000882799279B01AC010E948D3804C060E014
:1059700070E080EF9FEF4BA05CA06DA07EA07694BE
:10598000679457944794C40CD51CE61CF71C6C0D07
:105990007D1D8E1D9F1D2BA13CA14DA15EA10E94CE
:1059A000B038DA01C9013EE0880F991FAA1FBB1F5A
:1059B0003A95D1F7BC01CD0161587F4F8F4F9F4F72
:1059C0002EEF30E040E050E00E94B038CA01B9014B
:1059D000A50194010E948D386C507E4F8F4F9F4FD0
:1059E00048EE842E43E0942EA12CB12CA501940105
:1059F0000E94B03869017A0154E0CC0CDD1CEE1C29
:105A0000FF1C5A95D1F734EFC30E31E0D31EE11CD1
:105A1000F11CC701B601A50194010E94B03829010B
:105A20003A0189819A81AB81BC818096A11DB11D0B
:105A3000BC01CD01E6E09695879577956795EA9547
:105A4000D1F70E94DD224B015C0141145104610435
:105A50007104A9F0C701B60120ED37E040E050E045
:105A60000E94B03869817A818B819C81620F731F9B
:105A7000841F951FA30192010E94B03803C020E04B
:105A800030E0A901CA01B9010E94DD22EFA1F8A509
:105A9000681579058A059B0528F080829182A2828B
:105AA000B38204C0608371838283938380E02C96E9
:105AB0000FB6F894DEBF0FBECDBFDF91CF911F911F
:105AC0000F91FF90EF90DF90CF90BF90AF909F909D
:105AD0008F907F906F905F904F9008952F923F929C
