:100000007AC0000094C0000092C000000C94430924
:100010000C9432098CC000008AC0000088C0000027
:1000200086C0000084C0000082C000000C94910FC4
:100030000C94700F7CC000007AC0000078C00000F3
:1000400076C0000074C0000072C0000070C00000E4
:100050006EC000006CC000006AC0000068C00000F4
:1000600066C0000064C0000062C0000060C0000004
:100070005EC000005CC000005AC0000058C0000014
:1000800056C000000C947B0F0C94860F50C00000EB
:100090004EC000004CC000004AC0000048C0000034
:1000A0000C943F0E44C0000042C0000040C000005D
:1000B0000C9454090664EC1B3C04BC163E3BE5B9A9
:1000C0003CC93C37C29E5A3D660498083EEA69AA7C
:1000D000AA3E000000803F05A84CCDB2D44EB938EE
:1000E00036A9020C50B9918688083CA6AAAA2ABE55
:1000F000000000803F0011241FBECFEFD8E0DEBF1C
:10010000CDBF11E0A0E0B1E0E0E5F9E702C0059065
:100110000D92AA35B107D9F726E0AAE5B1E001C0F2
:100120001D92A730B207E1F770D10C94A63C0C9455
:100130009C0F0C941E0DFF920F931F93CF93DF9390
:1001400000D0CDB7DEB78C01F62E80910B01F801FF
:10015000808380910A01818380911701828380913D
:10016000160183838091190184836091120170913B
:100170001301CE0101960E94EC0F8981F80185835D
:100180008A81868380911801878360910E01709126
:100190000F01CE0101960E94EC0F8981F801808742
:1001A0008A81818780911A01828780916D0183877E
:1001B00080910D01848780916B0185878091670113
:1001C000868780910C01878780916A01808B80915E
:1001D0007F01818B80918001828B80918101838B53
:1001E00080918201848BF1100AC080912F02829548
:1001F0008F70858B8091300282958F70868B0F90E7
:100200000F90DF91CF911F910F91FF9008958091F2
:10021000F6019091F70198278927982790930B0171
:1002200080930A018091F801809317018091F90170
:10023000809316018091FA01809319018091FB014E
:100240009091FC01982789279827A0E0B0E080933F
:10025000120190931301A0931401B09315018091A2
:10026000FD01809318018091FE019091FF01982774
:1002700089279827A0E0B0E080930E0190930F01AA
:10028000A0931001B093110181E0909100029111AF
:1002900001C080E080931A0181E0909101029111E8
:1002A00001C080E080936D018091020280930D0176
:1002B00081E090910302911101C080E080936B0175
:1002C00080910402809367018091050280930C0164
:1002D00081E090910602911101C080E080936A0153
:1002E0008091070280937F018091080280938001B2
:1002F000809109028093810180910A02809382019A
:100300000895CF93DF9346E150E066EF71E080E41B
:1003100090E00E94081065E170E086EF91E00E9495
:10032000F80CC82F4FE550E06EE072E080E890E0F6
:100330000E9408106FE570E08EE092E00E94F80CD9
:10034000D82FC11105C0C1E08091F8018111C0E032
:1003500080910B02C81789F080EE90E00E94F30FA5
:10036000D81759F020E044E064E670E080E090E0C7
:100370000E94410F1092650104C049DF81E0809323
:100380006501DF91CF910895AF92CF92DF92EF9206
:10039000FF920F931F9361E076E08091E4019091CA
:1003A000E5010E940A38429884E690E00E940F0F0F
:1003B000429A61E076E08091E4019091E5010E942B
:1003C000B83682E08093060100910A0110910B017A
:1003D000A09065018EE0C82E82E0D82E9FE7E92E1E
:1003E00091E0F92E2091160140E061E076E08091E5
:1003F000E4019091E5010E9451371F910F91FF9008
:10040000EF90DF90CF90AF90089593DE0E9456104A
:100410000E94F00F83B18095881F8827881F8093E2
:10042000690182E090E00E94F30F813021F1809118
:10043000690164D7EC019093840180938301019654
:1004400041F581E090E00E94F30F90E090938401E9
:100450008093830109978037910520F0D093840120
:10046000C093830120E044E064EF71E080E090E01D
:100470000E94410F0EC081E090E00E94F30F90E0D7
:10048000909384018093830160E082E090E00E9479
:10049000FA0F8091830190918401181619063CF09F
:1004A00020E04FEF64EF71E080E090E014C09C0129
:1004B000285031092137310540F40E94350E6091F2
:1004C000830181E00E941A0F08C020E04FEF64E62C
:1004D00070E080E090E00E94410F78942698399A6D
:1004E000419A8091680081608093680080916B00E0
:1004F000806480936B003B984398389A80916800A1
:1005000082608093680080916C00886080936C00AA
:1005100046E150E066EF71E080E690E00E9408104E
:100520004FE550E06EE072E080EF90E00E9408102E
:100530006FE570E08EE092E00E94F80CC82F65E154
:1005400070E086EF91E00E94F80C811105C081E017
:100550009091F801911180E090910B02891741F080
:1005600080E591E00E94F30FC81711F0CADE04C0C5
:1005700081E0809365014BDE40E150E066EE71E082
:1005800080E290E00E9408108DE992E09093E501EE
:100590008093E40100910A0110910B01A090650184
:1005A0003EE0C32E32E0D32E4FE7E42E41E0F42E9E
:1005B0002091160140E061E076E00E945137811100
:1005C00008C021E04FEF65E070E080E090E00E941D
:1005D000410F60910D0170E042E050E083ED95E045
:1005E0000E94600DC8EED3E060910A0170910B018A
:1005F000CE010E94BD3A46E085E891E00E940B0BD7
:1006000010925F0180910C018C9F20018D9F500CF6
:100610001124052C000C660877088091180180379A
:1006200011F40E94741080911901803711F40E9416
:100630009A103B98439A82E08093060161E076E04D
:100640008091E4019091E5010E94FE37C1E0D8E07D
:100650002EE1222E312C80915C018111FCCF0E9471
:1006600063108091E301882309F42DC39091CE019A
:100670008091020691111BC18E3221F4269A2E9A86
:1006800026981FC3883621F4429810926A0119C334
:10069000883441F5429A61E076E08091E4019091DE
:1006A000E5010E94B83632E03093060100910A015C
:1006B00010910B01A09065018EE0C82E82E0D82E2B
:1006C0009FE7E92E91E0F92E2091160140E061E0CC
:1006D00076E08091E4019091E5010E945137C0934A
:1006E0006A01EFC2883509F44BC0873709F045C06D
:1006F00061E086EF91E01FDD6FE570E08EE092E053
:100700000E94F80C182F65E170E086EF91E00E94DE
:10071000F80C80930B0280916C0146E150E066EF8B
:1007200071E0811118C080E690E00E942B1040E13A
:1007300050E066EE71E080E290E00E942B104FE501
:1007400050E06EE072E080EF90E00E942B10612F8D
:1007500080E591E00FC080E490E00E942B104FE50F
:1007600050E06EE072E080E890E00E942B10612F74
:1007700080EE90E00E94FA0FA4C28A3719F4C1DD1E
:1007800003DE9FC2843551F4C0936B0100910A01CE
:1007900010910B01F090160183E78BC1843741F46F
:1007A00010926B0180911701833609F08AC267C0ED
:1007B0008B3411F441E003C08B3651F440E061E02A
:1007C00076E08091E4019091E5010E94C13679C202
:1007D000853721F5C0935C0100910A0110910B014E
:1007E000F090160183E70E946A0F2F2D482F61E0D9
:1007F00076E08091E4019091E5010E94CB364EE0D5
:1008000052E061E076E08091E4019091E5010E9480
:10081000B63720E0813009F0DFC1D6C1863419F443
:10082000C0931A014EC2863619F410921A0149C2B9
:10083000863561F460910D0170E042E050E083ED97
:1008400095E00E94600DC0936D013BC2863719F49C
:1008500010926D0136C2833671F480931701809136
:100860006B0181112EC200910A0110910B01F090D1
:10087000160183E61EC1833749F480931701009166
:100880000A0110910B01F090160113C1833509F094
:1008900018C280911701833709F013C261E076E036
:1008A0008091E4019091E5010E9404380AC29130E0
:1008B00009F090C08130D1F480918D02811101C284
:1008C0006091830181E00E941A0F61E082E090E074
:1008D0000E94FA0FF89498E088E10FB6F894A89572
:1008E000809360000FBE90936000FFCF8C3421F4A2
:1008F00040918D0250E0F3C0813729F480918D0240
:1009000080930C01DEC1813529F480918D028093A2
:100910006701D7C1893651F480918D029EEF980FFF
:100920009B3008F0CEC180930D01CBC18C36C9F449
:100930000E94BC1080918D0280931901739A80915E
:1009400019018F3609F4739880911901863609F4DC
:10095000739A80911901803709F0B3C10E949A10EF
:10096000B0C18736C9F40E94961080918D028093A1
:1009700018014098809118018F3609F4409A8091AF
:100980001801863609F4409880911801803709F0E3
:1009900098C10E94741095C18D3609F092C1809162
:1009A0008D028093160161E076E08091E4019091E0
:1009B000E5010E940A3820910A0130910B01409113
:1009C000160161E076E08091E4019091E5010E94DA
:1009D0002B3767C0923009F01FC18F3691F4809198
:1009E0008D0290918E02982789279827A0E0B0E089
:1009F00080930E0190930F01A0931001B093110109
:100A000060C1853691F480918D0290918E02982775
:100A100089279827A0E0B0E08093120190931301FA
:100A2000A0931401B09315014CC1823409F04EC05B
:100A300080918D0290918E029827892798278A307D
:100A4000910518F48AE090E006C0893E23E0920701
:100A500010F088EE93E090930B0180930A0161E01F
:100A600076E08091E4019091E5010E940A3820919E
:100A70000A0130910B014091160161E076E080910E
:100A8000E4019091E5010E942B3760910A01709179
:100A90000B0188EE93E00E94BD3A46E085E891E0C4
:100AA000BAD500910A0110910B01F09016018091C6
:100AB00017010E946A0F2F2D482F61E076E0809188
:100AC000E4019091E5010E94CB36FBC08734B1F47C
:100AD00040918D0250918E02542745275427509300
:100AE0000901409308012091070161E076E08091BF
:100AF000E4019091E5010E94E936E3C08136C1F539
:100B0000C0935C0100910A0110910B01F090160155
:100B100083E70E946A0F2F2D482F61E076E08091D5
:100B2000E4019091E5010E94CB364EE052E061E095
:100B300076E08091E4019091E5010E94B637811141
:100B400015C020918D0230918E0232272327322743
:100B50004EE052E061E076E08091E4019091E501A1
:100B60000E94CC37811102C020E036C020E02CC0AA
:100B7000883709F0A6C0C0935C0100910A0110916A
:100B80000B01F090160183E70E946A0F2F2D482F6A
:100B900061E076E08091E4019091E5010E94CB361E
:100BA00020918D0230918E023227232732274EE08A
:100BB00052E061E076E08091E4019091E5010E94CD
:100BC000E53720E0882341F044E064EF71E080E005
:100BD00090E00E94410F09C041E068EC70E080E0C5
:100BE00090E00E94410FC093650100910A011091AD
:100BF0000B01F0901601809117010E946A0F2F2DB2
:100C0000482F61E076E08091E4019091E5010E9437
:100C1000CB3610925C0155C0943011F5803709F045
:100C200050C080918D028F7080937F0180918E02E1
:100C30008F708093800180918F028F7080938101EB
:100C4000809190028F70809382014FE751E061E0C4
:100C500076E08091E4019091E5010E94933631C0E5
:100C6000963011F5833269F580918D02813249F514
:100C700080918E02833229F580918F02813209F5AD
:100C8000809190028332E9F4809191028132C9F41B
:100C9000809192028332A9F480916C018C27809319
:100CA0006C01882371F05ACE903159F48E3649F494
:100CB00080E1EDE8F2E0A6EEB1E001900D928A95B8
:100CC000E1F71092E30180916B018823D9F08091C4
:100CD0005D018823B9F010925D0180910C0128EE2E
:100CE00033E0829F2001839F500C1124052C000CBF
:100CF0006608770861E076E08091E4019091E50173
:100D00000E94043880915D01811121C080916901A8
:100D10008823E9F080916B018823C9F031E0431A00
:100D200051086108710814141504160417047CF0A6
:100D3000C0935D0180910C0128EE33E0829F200179
:100D4000839F500C1124052C000C660877088091B5
:100D50005F01882309F4CEC180911701833611F415
:100D60000E94CD1010925F0180916B01811141981A
:100D7000809119018D3629F480916C01811101C097
:100D80007398809118018D3629F480916C0181113E
:100D900001C0409A40ED51E061E076E08091E401CD
:100DA0009091E5010E9414388091060187FF04C0EC
:100DB00080911701833649F461E076E08091E40187
:100DC0009091E5010E94FE370AC0833741F461E04B
:100DD00076E08091E4019091E5010E940A388091CB
:100DE000E20180937601843029F41092730110920D
:100DF000720108C08091E0019091E101909373012C
:100E0000809372018091DC019091DD01A091DE015F
:100E1000B091DF01B0937501A09374018091D2016C
:100E20009091D301A091D401B091D501B0937101FB
:100E3000A09370018091D6019091D701A091D80123
:100E4000B091D901B0936F01A0936E0180917201AE
:100E5000909173018838934120F0109273011092A1
:100E60007201809172019091730101974E9720F465
:100E700030927301209272018091720190917301FE
:100E8000909378018093770190937A018093790110
:100E900069E771E083ED95E041D680917901909109
:100EA0007A01009709F454C020911A01222389F194
:100EB00065E871E0E5D490937A018093790180919F
:100EC0006001882359F020917701309178013093A7
:100ED0007A0120937901815080936001809179019A
:100EE00090917A018938934130F480917401909106
:100EF0007501079771F48091600181110AC080919A
:100F000077019091780190937A0180937901D09341
:100F1000600180916D018823D9F080916801609112
:100F20000D01861760F4209177013091780130939C
:100F30007A01209379018F5F8093680109C08091C5
:100F4000D3059091D4058AD790937A018093790143
:100F5000C093660180910601811116C000910A01BB
:100F600010910B01F090160180911701B3D72F2D2E
:100F7000482F61E076E08091E4019091E5010E94C4
:100F8000CB368091060102C018161CF48150809364
:100F9000060180916C018111C6C0809119018437CE
:100FA000C9F48091790190917A018C0120E030E0C0
:100FB000409112015091130160911401709115013B
:100FC000401751076207730720F0892B11F07398BF
:100FD00001C0739A809118018437C9F48091790116
:100FE00090917A018C0120E030E040910E01509107
:100FF0000F016091100170911101401751076207B4
:10100000730720F0892B11F0409A01C0409880911D
:1010100019018D3609F4739A809118018D3609F4FF
:10102000409880916B018111419A8091E201835037
:10103000823008F452C00091790110917A01480180
:10104000A12CB12CC0901201D0901301E09014019A
:10105000F0901501C814D904EA04FB0418F41092A6
:101060005B0117C001151105D1F3A70196012819DD
:1010700039094A095B09A4E6B0E00E940F3BA701C9
:1010800096012E513109410951090E94D13A20930C
:101090005B01C0900E01D0900F01E0901001F09024
:1010A0001101C814D904EA04FB04C8F0012BB9F0FB
:1010B000A7019601281939094A095B09A4E6B0E09D
:1010C0000E940F3BA70196012E5131094109510998
:1010D0000E94D13A20935A0104C010925B011092F1
:1010E0005A0180915B010E94B31080915A010E94C5
:1010F0008D1014C080916B01811110C080915E0130
:10110000882361F010925E013B98439A61E076E09B
:101110008091E4019091E5010E94FE3780916C017D
:10112000882309F498CA8091610190916201019627
:101130008D30910528F4909362018093610104C081
:10114000109262011092610180916101909162019F
:10115000892B09F080CA90916301809164019923E1
:1011600011F0815001C08F5F809364018091640110
:10117000843634F083E680936401C093630106C033
:1011800087FF04C010926401109263018091640192
:10119000EAD761CACF93C42F91E09093E301809383
:1011A000020650E08DE892E00E94963CC093CE018A
:1011B000CF910895282FCB01223741F46091790116
:1011C00070917A0109D7109266013CC0223529F44A
:1011D000609174017091750134C0253419F4209127
:1011E000760104C0293431F420916601FC0120838A
:1011F00081E00895243651F420E1E6EEF1E0DB01D0
:1012000001900D922A95E1F780E10895223629F4A4
:1012100060E00E949B0087E108952A3629F46091DE
:101220007701709178010DC0213429F460916E012D
:1012300070916F0106C02A3439F460917001709189
:101240007101CAD682E008952E3451F42AE0E8E311
:10125000F1E0DB0101900D922A95E1F78AE0089513
:1012600080E008951F920F920FB60F9211248F9372
:10127000339903C081E080935F018F910F900FBE7F
:101280000F901F9018951F920F920FB60F92112476
:101290008F931E9903C081E080935D018F910F9021
:1012A0000FBE0F901F9018951F920F920FB60F92BE
:1012B00011248F9381E080935E018F910F900FBE78
:1012C0000F901F9018954AD04CD08823A9F0809198
:1012D0001B018F5FA5D0BAD090E020911B01309107
:1012E0001C012F5F3F4F8217930721F481E098D0B4
:1012F00081E008958EEF94D080E008958823A1F0D6
:1013000088E090E090931C0180931B01DCDF811149
:1013100020C02FEF83EC99E0215080409040E1F70E
:1013200000C00000D0DF15C0A6D0F8D0882389F017
:101330005DD1282F30E030931C0120931B0140D158
:1013400055D1813019F38FEF9FEF90931C0180935B
:101350001B0180911B0190911C01089539984198BF
:101360000895F894399840E251EA67E070E085E02A
:101370008A95F1F7000096B1892F827091FD06C021
:10138000415051096109710991F71BC0399A41987F
:10139000EFEBF3E03197F1F700C00000399839988E
:1013A000419AFAEBFA95F1F700C086B18695817003
:1013B00091E08927E3E3F3E03197F1F700C0000003
:1013C00078940895F894399A419880FF08C080E194
:1013D0008A95F1F739988AEA8A95F1F709C080EA87
:1013E0008A95F1F739983998419A8AE18A95F1F707
:1013F00000C078940895F894399A419880E18A95CC
:10140000F1F739983998419A98E19A95F1F786B1B0
:1014100092E99A95F1F700C07894869581700895C5
:101420000F931F93CF93DF93082FC8E0D0E011E014
:1014300081E0902F912309F480E0C4DF110F219700
:10144000B9F7DF91CF911F910F9108950F931F93DB
:10145000CF93DF9308E010E0C0E0D1E0CCDF811152
:10146000CD2BDD0F01501109C9F78C2FDF91CF91E2
:101470001F910F91089526982E980895269823B1CC
:1014800026FB222720F9462F572FBC0193B181E07C
:10149000392F307496FF80E0281791F041155105DF
:1014A0006105710519F4789480E00895311106C042
:1014B0004150510961097109282FE8CF81E0089551
:1014C000411551056105710599F7EDCF269823B1B6
:1014D00026FB222720F9462F572FBC0193B181E02C
:1014E000392F307496FF80E0281791F0411551058F
:1014F0006105710519F4789480E00895332331F083
:101500004150510961097109282FE8CF81E0089500
:10151000411551056105710599F7EDCFF8942698AD
:1015200026982E9A60E271EA87E090E0A7DF882390
:1015300079F085E58A95F1F70000269A2E9887E1E3
:1015400091E00197F1F700C00000269826982E9AA6
:10155000789481E00895CF93C82FF8942698269820
:101560002E9A60E970ED83E090E0B0DF882371F09F
:10157000C0FF04C088E78A95F1F708C0269A2E9824
:1015800088E78A95F1F7269826982E9A789481E034
:10159000CF910895F894269826982E9A60E970EDD8
:1015A00083E090E093DF882341F088E78A95F1F7A4
:1015B00083B186FB882780F901C080E07894089584
:1015C0000F931F93CF93DF93082FC8E0D0E011E073
:1015D00081E0902F912309F480E0BDDF110F219766
:1015E000B9F7DF91CF911F910F9108950F931F933A
:1015F000CF93DF9308E010E0C0E0D1E0CBDF8111B2
:10160000CD2BDD0F01501109C9F78C2FDF91CF9140
:101610001F910F9108952F923F924F925F926F9278
:101620007F928F929F92AF92BF92CF92DF92EF9272
:10163000FF920F931F93CF93DF93CDB7DEB76097E1
:101640000FB6F894DEBF0FBECDBF8C017E836D83D5
:1016500082E090E0D8018D939C93642F70E080E04D
:1016600090E00E941339F801668377838087918721
:101670002BED3FE049E450E40E94A1396B017C016D
:101680002D813E81B90180E090E00E9413399B01D9
:10169000AC01C701B6010E947F380E940A3A4B0193
:1016A0005C01D8011A966D937D938D939C931D9741
:1016B0009B01AC010E94A1396B017C01F801668796
:1016C0007787808B918BA5019401C501B4010E949D
:1016D0001B386F83788789879A87A701960160E016
:1016E00070E080E89FE30E941A389B01AC010E94E1
:1016F0001B386B877C878D879E87188B0F87212CE3
:10170000312CB101032C000C880B990B0E94153968
:101710009B01AC010E941B3820E030E040E85FE311
:101720000E941B382BED3FE049E450E40E94A139B0
:1017300020E030E040E05EE30E94A1390E94043ADC
:1017400069837A838B839C832F81388549855A8569
:101750000E94A1392B013C019B01AC01C701B601DC
:101760000E941B3820E030E040E85FE30E941B3815
:101770004B015C019B01AC01C701B6010E947F389F
:10178000AF85B88956966D937D938D939C935997A9
:10179000A50194016B857C858D859E850E947F388F
:1017A000EF85F889668F778F80A391A3A3019201BB
:1017B000C701B6010E941A3820E030E040E85FE33C
:1017C0000E941B389058A50194010E947F38AF8574
:1017D000B88996966D937D938D939C939997FD010F
:1017E00016A617A610AA11AAD6961D921D921D9292
:1017F0001C92D997FE961082118212821382BFEF3B
:101800002B1A3B0AEF85F8893496F88BEF87F2E0C4
:101810002F16310409F075CF89819A81AB81BC8183
:10182000F801828B938BA48BB58B82829382A482E6
:10183000B582EA5BFF4F2D813E812C30310518F4D3
:101840001182108204C081E090E0918380836096D1
:101850000FB6F894DEBF0FBECDBFDF91CF911F91C1
:101860000F91FF90EF90DF90CF90BF90AF909F903F
:101870008F907F906F905F904F903F902F90089542
:101880002F923F924F925F926F927F928F929F9290
:10189000AF92BF92CF92DF92EF92FF920F931F937E
:1018A000CF93DF9300D000D000D0CDB7DEB77E83DA
:1018B0006D83BC0180E090E00E9413396B017C01D4
:1018C000ED81FE81EA5BFF4F80819181892B09F4D4
:1018D00071C0AD81BE812D903C9000E010E08D8103
:1018E0009E8104969E838D83021513050CF062C0C1
:1018F000ED81FE8142A853A864A875A882AD93AD7E
:10190000A4ADB5AD89839A83AB83BC83228D338D1F
:10191000448D558DC301B2010E94A1394B015C0178
:10192000ED81FE8122A133A144A155A169817A8173
:101930008B819C810E94A1399B01AC01C501B4013E
:101940000E941B38A70196010E941B384B015C01C5
:10195000AD81BE819A966D937D938D939C939D9757
:10196000A3019201C301B2010E941B38A501940199
:101970000E941B3829813A814B815C810E941B386F
:10198000ED81FE8122893389448955890E94A139DC
:101990006B017C01AD81BE81DA964D925D926D92B4
:1019A0007C92DD97FD0182AA93AAA4AAB5AA0F5F33
:1019B0001F4F95CFC701B6010E94E738CB0126968D
:1019C0000FB6F894DEBF0FBECDBFDF91CF911F9150
:1019D0000F91FF90EF90DF90CF90BF90AF909F90CE
:1019E0008F907F906F905F904F903F902F900895D1
:1019F000680F791F20E030E08617970789F0FC0117
:101A00004191CF01342748E050E037FF03C0205810
:101A1000F3E83F27220F331F41505109B1F7ECCFB4
:101A2000832F08953D9A459845983C9A4498449848
:101A3000BDC36998719868987098C6C38DE3809308
:101A400065008FEF8093640094B114B895B185B9A7
:101A500097B1907897B998B19F6798B99AB11AB829
:101A60009BB18BB98DB1807F8DB98EB18F608EB9EE
:101A700026982E98279827982F9A38984098399822
:101A800041983A9A429A3B983B98439A53985B986C
:101A900055985D986B9A739A40E060E881E690E013
:101AA000FED213BE15BE9FD3BDDFC3DF549852983C
:101AB00050986A9856985798209821982298089597
:101AC000CF92DF92EF92FF920F931F93CF93DF930A
:101AD000EC016B017A01649F8001659F100D749F7A
:101AE000100D1124C8010E94753B99838883080F4B
:101AF000191F1B830A83DD82CC821F821E82F98616
:101B0000E8869B878A879D878C87DF91CF911F917D
:101B10000F91FF90EF90DF90CF900895CF93DF93D8
:101B2000EC018E819F812C813D81488559858217EA
:101B3000930791F42C853D85240F351F3D872C8715
:101B4000EA81FB812E173F0721F4288139813D87E7
:101B50002C8701979F838E838A859B850E94963C64
:101B60002A853B8588859985820F931F9B878A8765
:101B70002A813B818217930721F4888199819B8771
:101B80008A878E819F8101969F838E83DF91CF917B
:101B900008950CC31092BC0094EA9093BC009091FD
:101BA000BC0097FFFCCF9091B900987F983011F05E
:101BB00081E008958093BB0084E88093BC0081EAB3
:101BC00096E8A1E0B0E02091BC0027FD04C0019799
:101BD000A109B109C1F78091B900887F883111F05E
:101BE000803431F780E008958093BB0084E88093CF
:101BF000BC0081EA96E8A1E0B0E02091BC0027FD9E
:101C000004C00197A109B109C1F79091B900987F6B
:101C100081E0983209F480E0089584EC8093BC0060
:101C200081EA96E8A1E0B0E02091BC0027FD04C065
:101C30000197A109B109C1F78091BB00089584E81B
:101C40008093BC0081EA96E8A1E0B0E02091BC005E
:101C500027FD04C00197A109B109C1F78091BB001C
:101C6000089584E98093BC0008959FEF9093CD017F
:101C7000880F8093DA0085EC8093DC0008951F9232
:101C80000F920FB60F9211242F933F934F935F93B0
:101C90006F937F938F939F93AF93BF93EF93FF9334
:101CA0008091D900887F883909F4A0C0F0F480378A
:101CB00009F4A1C088F4882309F498C0803609F09B
:101CC0009AC08FEF8093CD0110927E011092CF01C8
:101CD00081E080937D018FC0883809F487C0803906
:101CE000B1F0803809F087C012C0883B09F468C0A1
:101CF00038F4803A09F47FC0883A09F441C07BC0C7
:101D0000883C09F473C0883F09F075C06FC08091AA
:101D1000DB002091CD012F3F31F48093CD0143D1E1
:101D2000811169C01DC09091CF01E92FF0E0EF5102
:101D3000FA4F80839F5F9093CF0180917C01981729
:101D400078F080917C01981307C040917C0161EE8E
:101D500075E0822F1FDA04C08091DC0085684CC0DA
:101D60008091CD01F4D080937C0180917C01811120
:101D700042C040E061EE75E08091CD010BDA3BC0DE
:101D80008091CD0110D1882321F080917D018111B6
:101D900003C082E78093CD016DE672E08091CD01B2
:101DA00009DA80937B0110927D0180916D0280930E
:101DB000DB0081E080937E018091DC00856C1CC09B
:101DC000E0917E0180917B01E81760F4F0E0E35937
:101DD000FD4F80818093DB0080917E018F5F809337
:101DE0007E0109C08FEF8093DB0005C08091DC008D
:101DF0008B7B8093DC0085EC8093DC00FF91EF917E
:101E0000BF91AF919F918F917F916F915F914F9112
:101E10003F912F910F900FBE0F901F901895009734
:101E200041F0EFECF7E03197F1F700C000000197C7
:101E3000F6CF08951F93CF93DF93162FC82FD0E0CE
:101E4000CE01D1D0811731F0612FCE01DF91CF913A
:101E50001F91D0C0DF91CF911F910895FC0190E0B8
:101E600020E030E0961731F041915191240F351F59
:101E70009F5FF8CF692F70E0C9010E94BD3ACB0186
:101E800008950F931F93CF93DF93C42FD22F739A8C
:101E90008B01CB01C4DFDD23B1F0CF3FA1F44AD1E8
:101EA000C0E0C33608F0C0E08C2F5DD1C801B7DFB9
:101EB000CF5FF7CFC801B3DF7398C801B0DF739A63
:101EC0001C160CF4C150C111F5CFDF91CF911F91B9
:101ED0000F91089591E0833609F490E0892F0895D9
:101EE0001F920F920FB60F92112440980F900FBEC1
:101EF0000F901F9018951F920F920FB60F921124FA
:101F000073980F900FBE0F901F9018951F920F920D
:101F10000FB60F921124739A0F900FBE0F901F905F
:101F200018951F920F920FB60F921124409A0F909E
:101F30000FBE0F901F9018951F920F920FB60F9221
:101F4000112400000F900FBE0F901F901895893636
:101F500001F194E9980F9230E0F0982F9F7D913530
:101F6000C1F08130B1F09734A1F08C34A1F082340B
:101F700091F08F3681F0982F9B7F913661F08837F2
:101F800051F0803751F0833251F08E3651F480E1B8
:101F9000089581E0089582E0089584E0089586E040
:101FA000089580E00895982F9F7D923599F08436AA
:101FB00089F0982F977F923669F097EB980F9230BF
:101FC00048F08E3439F0982F9B7F81E0913419F0DE
:101FD00080E0089581E00895FC0170836183089595
:101FE0001FBA80E00895F999FECF92BD81BDF89A9D
:101FF00080B50895F999FECF92BD81BD60BD0FB641
:10200000F8940F92FA9AF99A0F900FBE80E0089513
:10201000CF92DF92EF92FF920F931F93CF93DF93B4
:102020008B017A01EB016C01C61AD70AC6018C0F2D
:102030009D1F2C2F201B30E02E153F0518F4D3DFF9
:102040008993F4CFDF91CF911F910F91FF90EF9083
:10205000DF90CF900895CF92DF92EF92FF920F938F
:102060001F93CF93DF938B017A01EB016C01C61AAA
:10207000D70AC6018C0F9D1F2C2F201B30E02E1578
:102080003F0518F46991B6DFF4CF80E0DF91CF917E
:102090001F910F91FF90EF90DF90CF9008952FB791
:1020A000F894FC01608340832FBF0895EAE7F0E0D5
:1020B00080818F77808380E880BFEEE7F0E08081C9
:1020C0008F638083089583B7817F83BF83B78160E7
:1020D00083BF83B7816083BF889583B78E7F83BFBB
:1020E00083B78E7F83BF0895E4E6F0E08081877F29
:1020F00080838BE08093810083E690E09093890059
:102100008093880080E490E090938B0080938A0015
:1021100086E080936F0080E00895833608F082E6C1
:1021200090E090938B0080938A00089588E08093DC
:1021300081000895E5E6F0E080818E7F80838BE06A
:102140008093910083E690E09093990080939800AB
:1021500080E490E090939B0080939A0086E08093C7
:10216000710080E00895833608F082E690E0909355
:102170009B0080939A00089588E0809391000895D1
:10218000E5E6F0E08081877F808384E08093A10092
:1021900081E08093720080E008951092A500109273
:1021A000A400089588E08093A1000895E4E6F0E09B
:1021B00080818F77808384E08093BC0082E080936D
:1021C000B8001092B9000895E5E6F0E080818F7DB7
:1021D000808385E48093DC008FE08093DA001092A6
:1021E000DD0080E0089584B7877F84BF41E268E125
:1021F00080E690E054DF80E008952F923F924F9266
:102200005F926F927F928F929F92AF92BF92CF9286
:10221000DF92EF92FF920F931F93CF93DF93CDB78F
:10222000DEB760970FB6F894DEBF0FBECDBF3C019E
:10223000562E302E212E2F87388B8091350190918C
:102240003601A091370189839A83AB83413031F005
:10225000423011F481E003C082E001C080E0E1E09F
:10226000F0E0EC0FFD1FE80FF11D4080CE0101965C
:102270007C018E010B5F1F4F9E01275F3F4FAE0118
:10228000435F5F4F642DC3010E941820811124C059
:1022900089809A80AB80BC80CD80DE80EF80F8841E
:1022A00009851A852B853C854D855E8598899F9388
:1022B000EF85EF932F923F92642DC3010E9453202C
:1022C0000F900F900F900F90811106C090E2F301D4
:1022D0009283E65EFC4F508260960FB6F894DEBFA4
:1022E0000FBECDBFDF91CF911F910F91FF90EF9067
:1022F000DF90CF90BF90AF909F908F907F906F9026
:102300005F904F903F902F90089544EF51E060E030
:1023100070E00C941A334F925F926F927F92AF925B
:10232000BF92CF92DF92EF92FF920F931F93CF93C2
:10233000DF93CDB7DEB72E970FB6F894DEBF0FBE92
:10234000CDBF413826E9520728E96207710508F038
:1023500065C02A013B015C01AE01425F5F4F65E051
:102360000E942D1F81115BC0AE01435F5F4F66E08D
:10237000C5010E942D1F811152C09E01275F3F4F52
:10238000AE014B5F5F4FBE016F5F7F4FC5010E9483
:10239000A91E811144C08E85813041F08D85813028
:1023A00029F088EE93E0A0E0B0E004C088E893E173
:1023B000A0E0B0E084159505A605B70578F5730192
:1023C0006201C81AD90AEA0AFB0AC986DA86EB86CC
:1023D000FC8681E4C81682E4D8068FE0E806F104A2
:1023E000E8F40D811E812F81388549815A816B81E6
:1023F0007C81C5010E945D1E811111C049855A85ED
:102400006B857C85F501458756876787708BE35E12
:10241000FC4F408251826282738201C08CEF2E9603
:102420000FB6F894DEBF0FBECDBFDF91CF911F91E5
:102430000F91FF90EF90DF90CF90BF90AF907F9083
:102440006F905F904F9008957F928F929F92AF927E
:10245000BF92CF92DF92EF92FF920F931F93CF9391
:10246000DF93EC01742E48015901C7DE811122C0AF
:10247000FE01E45EFC4F7082A8EEB3E0A50194017A
:102480000E940F3BAB01BC01CE0145DF811112C0A0
:10249000B701A601CE01DF91CF911F910F91FF905F
:1024A000EF90DF90CF90BF90AF909F908F907F90F4
:1024B0000C94431EDF91CF911F910F91FF90EF90ED
:1024C000DF90CF90BF90AF909F908F907F900895B6
:1024D000CF92DF92EF92FF920F931F9320E2FC01C5
:1024E0002283E45EFC4F23E020833197208328EE93
:1024F000C22E23E0D22EE12CF12C09E210E020E0E4
:1025000030E043E064E0A0DF1F910F91FF90EF9077
:10251000DF90CF900895FF920F931F93CF93DF9397
:102520008C016230710580F4442381F0FB01EE0FD1
:10253000FF1FEE0FFF1FE80FF91FEB5DFC4F8081BF
:102540009181A281B38105C08CEF2BC080E090E027
:10255000DC01F42EEB016130710569F0BC01CD01A5
:102560003EE096958795779567953A95D1F7C8019E
:102570000E9408220CC0BC01CD0129E096958795E8
:10258000779567952A95D1F7C8010E941922C00F47
:10259000D11FCF5DDC4F81E0F11001C080E0888366
:1025A00080E0DF91CF911F910F91FF900895CF921E
:1025B000DF92EF92FF920F931F93CF93DF936230DE
:1025C0007105A8F569017A01EB018C01FC01E60FA8
:1025D000F71FEF5DFC4F808181110EC0CC0FDD1F16
:1025E000CC0FDD1FC00FD11FCB5DDC4FC882D9825D
:1025F000EA82FB8280E01CC0CA01B901C130D1056A
:1026000059F03EE096958795779567953A95D1F77D
:10261000C8010E940822E2CF29E096958795779518
:1026200067952A95D1F7C8010E941922D7CF8CEF60
:10263000DF91CF911F910F91FF90EF90DF90CF909E
:1026400008950F931F93CF93DF931F92CDB7DEB7FB
:102650008C01AE014F5F5F4F6EE270E00E94F83573
:10266000811115C04981416049836EE270E0C80163
:102670000E94E23581110BC061E0C8010E9419215E
:10268000811105C094E0F801E65EFC4F9083198249
:102690006981623050F481111CC070E041E0C801D2
:1026A0003ADF99819F5F9983F3CF811112C020E0B7
:1026B00030E042E150E060E070E0C80178DF811175
:1026C00008C020E030E440E050E061E070E0C80184
:1026D0006EDF0F90DF91CF911F910F910895CF92F0
:1026E000DF92EF92FF920F931F93CF93DF9300D06F
:1026F00000D0CDB7DEB76C018B017A016115710591
:10270000A9F06130710509F056C0BE016D5F7F4FC1
:102710000E940F224B815C8160E070E029E0440F51
:10272000551F661F771F2A95D1F710C0BE016F5F36
:102730007F4F0E94FE2149815A8160E070E03EE0B7
:10274000440F551F661F771F3A95D1F7811134C08A
:102750009801220F331F220F331F0C0D1D1D411531
:1027600051056105710599F4C20ED31EF601EB5DAA
:10277000FC4F4081518162817381F7014083518315
:1027800062837383F801EF5DFC4F108215C0F7017F
:102790004083518362837383C20ED31EF601EB5DC7
:1027A000FC4F4083518362837383F801EF5DFC4FDC
:1027B00091E0908301C08CEF0F900F900F900F90DD
:1027C000DF91CF911F910F91FF90EF90DF90CF900D
:1027D0000895CF93DF9300D000D0CDB7DEB7FC01D2
:1027E000DB017C9111969C91119712962C91129776
:1027F00013963C91703140F4903130F4203148F41C
:10280000303110F480E001C08CEF271718F48CEF02
:1028100025C08CEF9317D8F38111F9CF472F50E0E3
:10282000420F511D4F5F5F4F559547954983432F89
:1028300050E0490F511D4F5F5F4F559547954A83B3
:10284000271B2B83931B9C83233008F39330F8F2D0
:10285000CF01BE016F5F7F4F0E944B1F0F900F9003
:102860000F900F90DF91CF910895EF92FF920F9309
:102870001F93CF93DF9300D000D0CDB7DEB78B018D
:10288000BE016F5F7F4F0E94651F498150E0BA0112
:10289000660F771F4B8150E09B01241B350B35954C
:1028A0002795D8012C932A8130E0220F331FEC8129
:1028B000F0E0D901AE0FBF1F7D01F594E794D80178
:1028C0001196EC921197460F571F55954795129602
:1028D0004C9312972E1B3F0B3595279513962C93EF
:1028E0000F900F900F900F90DF91CF911F910F914C
:1028F000FF90EF90089546E0FC0162810C94202245
:102900000C943C23FC0162810C94C72340ED57E0FA
:1029100060E070E00C94CF338F929F92AF92BF92A1
:10292000DF92EF92FF920F931F93CF93DF93CDB778
:10293000DEB7CB57D1090FB6F894DEBF0FBECDBFBF
:102940007C018B0143E150E06FEF70E0C8010E9411
:102950009F3CAE014F5F5F4F62E0C7010E94E924D8
:10296000D82E8111B8C08B81F80180838C819DADF8
:102970009F71EC969FAFEC974BA55CA560E070E073
:1029800099E0440F551F661F771F9A95D1F7428330
:102990005383648375838FA498A8A12CB12C29E05C
:1029A000880C991CAA1CBB1C2A95D1F78682978299
:1029B000A086B18629893A89338722878FA898AC67
:1029C000A12CB12C39E0880C991CAA1CBB1C3A958F
:1029D000D1F784869586A686B7862BAD3CAD318B24
:1029E000208B8D3041F020F48150833038F402C0C8
:1029F000813121F485E0F801828B02C0F801128A4E
:102A0000F801828981110EC0EC96EFADEC97E4508D
:102A1000E03128F4F0E0ED5BFE4F808101C08FEFE4
:102A2000F801828BF701E35DFC4F80829182A282E4
:102A3000B38234964083518362837383AE014958D5
:102A40005F4F60E070E0C7014ADEF701EF5DFC4FC9
:102A50008081813029F4EC96FFADEC97F63009F0D7
:102A600080E0F701ED5DFC4F8083AE0149585F4F78
:102A700061E070E0C70133DEF701EE5DFC4F80815D
:102A8000813029F4EC969FADEC97943009F080E00A
:102A9000F701EC5DFC4F8083F801828981111BC036
:102AA0008089918997FF17C0092E000CAA0BBB0BD8
:102AB00040912101509122016091230170912401E4
:102AC00084179507A607B7071CF48EE0828B03C016
:102AD000F801118A108A8D2DC558DF4F0FB6F89472
:102AE000DEBF0FBECDBFDF91CF911F910F91FF9041
:102AF000EF90DF90BF90AF909F908F9008959F923E
:102B0000AF92BF92CF92DF92EF92FF920F931F93FB
:102B1000CF93DF93CDB7DEB76B970FB6F894DEBFD8
:102B20000FBECDBF5C0185E0898F83E08A8FF50100
:102B3000E65EFC4F9080BE01655E7F4FC50141D7C8
:102B400081110EC098EEC92E93E0D92EE12CF12C04
:102B500009E210E020E030E043E0692DC50174DCBB
:102B6000833E09F0C1C0C5010E94F5288111BCC097
:102B7000C5010E9400298111B7C04AEF50E060E012
:102B800070E0C5010E940E368111AEC041E061E8DF
:102B900077E0C5010E94E2358111A6C045E063E8F7
:102BA00076E0C5010E94E23581119EC042E350E00B
:102BB00060E070E0C5010E940E36811195C041E0D1
:102BC00060E877E0C5010E94E23581118DC044E0E4
:102BD00050E064E877E0C5010E94ED35811184C0C2
:102BE000CE0101966C0188E2F82E4F2D64E977E062
:102BF000C5010E94E235811123C040E063E877E01F
:102C0000C5010E94E23581111BC045E050E060E043
:102C100070E0C5010E940E36811112C041E063E8E8
:102C200077E0C5010E94E23581110AC004E010E09E
:102C300020E030E0A60160E977E0C5010E94793527
:102C400094E0C90ED11CF394EEE2FE1619F0811146
:102C5000F7CFCBCF811148C041E063E877E0C501F1
:102C60000E94E235811140C040E061E877E0C50193
:102C70000E94E235811138C0C5010E9402298111EC
:102C800033C0C5010E94F32881112EC002E010E07C
:102C900020E030E0AE01475E5F4F64E170E0C501C7
:102CA0000E941035811120C0898DF50184A78A8D7D
:102CB00085A706E010E020E030E0AE014F5E5F4FF8
:102CC0006DE070E0C5010E94103581110DC0998939
:102CD000F50195A39A8996A39B8997A39C8990A7B0
:102CE0009D8991A79E8992A76B960FB6F894DEBF37
:102CF0000FBECDBFDF91CF911F910F91FF90EF904D
:102D0000DF90CF90BF90AF909F900895611102C067
:102D10000C94EC210C94A721CF92DF92EF92FF92BA
:102D20000F931F93CF93DF9300D0CDB7DEB78C0105
:102D30006A017B01BE016F5F7F4F0E9449258111AF
:102D40000CC089818D7F813039F4AE014E5F5F4FB9
:102D5000B601C80136D201C08CEF0F900F90DF9101
:102D6000CF911F910F91FF90EF90DF90CF9008953A
:102D7000CF93DF93CDB7DEB7C156D1090FB6F89424
:102D8000DEBF0FBECDBF28E0FB017996DE015C9669
:102D900001900D922A95E1F7FB0121A132A13DA3FB
:102DA0002CA323A134A13FA32EA32AE3B596DE01D1
:102DB000989601900D922A95E1F7FB0121853285C5
:102DC0003F872E8720812D8321812E8322812F838F
:102DD000238128872481298725812A8726812B879B
:102DE00027812C8720852D8725853685398B288B53
:102DF000278530893B8B2A8B218932893D8B2C8B0F
:102E0000238934893F8B2E8B25893689398F288FEA
:102E10002789308D3B8F2A8FBE016F5F7F4F85D60C
:102E2000CF59DF4F0FB6F894DEBF0FBECDBFDF9195
:102E3000CF9108950F931F93CF93DF93CDB7DEB754
:102E4000C156D1090FB6F894DEBF0FBECDBF8B01BE
:102E5000BE016F5F7F4FC9D698E0FE017C96D80116
:102E6000599601900D929A95E1F72CA13DA1F80198
:102E700032A321A32EA13FA134A323A39AE3FE01F1
:102E8000B896D801959601900D929A95E1F79D819B
:102E9000F80190839E8191839F819283988593838B
:102EA000998594839A8595839B8596839C85978342
:102EB0009D85908728893989368725872A893B8986
:102EC000308B27872C893D89328B218B2E893F8936
:102ED000348B238B288D398D368B258B2A8D3B8D1A
:102EE000308F278B4E855F8560E070E04187528789
:102EF00063877487CF59DF4F0FB6F894DEBF0FBEDC
:102F0000CDBFDF91CF911F910F9108952F923F92E6
:102F10004F925F926F927F928F929F92AF92BF92E9
:102F2000CF92DF92EF92FF920F931F93CF93DF9395
:102F3000CDB7DEB7CA57D1090FB6F894DEBF0FBEC2
:102F4000CDBF14161506160617060CF01FC14093C8
:102F50002501509326016093270170932801FC01FD
:102F6000E65EFC4F2081243009F00CC18C0180907A
:102F70002901E8968FAEE8970E94EC21811107C1E4
:102F8000C801B9DC811103C1E4961FAEE497812C1E
:102F9000912C5401412C512C3201E12CF12C212C8B
:102FA000312CE4964FADE497E8965FADE897C80101
:102FB000451780F5ABDCBE01605A7F4FC801ACDC21
:102FC000C801A0DCE3968FADE39781111BC0E296A8
:102FD0008EAD9FADE297280E391EA6968CAD9DADA5
:102FE000AEADBFADA697480E591E6A1E7B1EAC96AD
:102FF000CFACAC97D12CEC0CFD1C2FEF821A920AAF
:10300000A20AB20AE4963FADE4973F5FE4963FAF71
:10301000E497C7CF0E943C2381149104A104B1041A
:1030200009F4B2C0C701A0E0B0E077276627A50188
:1030300094010E94D13A69017A0180E8D80EE11C1E
:10304000F11C6701EE24FF24209125013091260117
:103050004091270150912801E7962CAF3DAF4EAF2C
:103060005FAFE797C114D104E104F10409F45EC035
:10307000232B242B252B09F459C0C101A0E0B0E07B
:1030800077276627A50194010E94D13AEB962CAFD1
:103090003DAF4EAF5FAFEB97E7962CAD3DAD4EAD7C
:1030A0005FADE797D90199278827EB962CAD3DAD09
:1030B0004EAD5FADEB97281739074A075B07B0F5B0
:1030C000C301B201A50194010E94D13ACA01B9011C
:1030D000A70196010E94D13A69017A01EB966CAD85
:1030E0007DAD8EAD9FADEB97E7962CAD3DAD4EAD72
:1030F0005FADE7970E94D13A80E090E0A1E0B0E0B8
:103100004C015D01821A930AA40AB50AA501940133
:10311000C701B6010E94AE3A6B017C0120E8D20ED5
:10312000E11CF11C6701EE24FF2403C0C12CD12C4B
:103130007601BE016F5F7F4FC8017CDE811127C021
:10314000D701C601805C9F4FAF4FBF4F9C01AD01BF
:1031500087E056954795379527958A95D1F7A8EE3C
:10316000B3E00E940F3B6A877B878C879D87BE01F7
:103170006F5F7F4FC801FCDD811109C0C8010E944B
:10318000A72105C088EF03C08AEE01C08CEFC658A6
:10319000DF4F0FB6F894DEBF0FBECDBFDF91CF91EA
:1031A0001F910F91FF90EF90DF90CF90BF90AF9065
:1031B0009F908F907F906F905F904F903F902F9057
:1031C00008952F923F924F925F926F927F928F92CB
:1031D0009F92AF92BF92CF92DF92EF92FF920F93A6
:1031E0001F93CF93DF93CDB7DEB7C759D1090FB681
:1031F000F894DEBF0FBECDBF3C01CC57DF4F5983E3
:103200004883C458D0409C012B593E4FC258DF4FD1
:1032100039832883CE57D040D9014D905C90FC0172
:10322000938181E0EB968FAFEB9724E0EC962FAF84
:10323000EC9725E0ED962FAFED97E85DFE4F2081EE
:10324000E8962FAFE89731962081E9962FAFE9975E
:1032500031962081EA962FAFEA97E653FF4F9330DD
:1032600051F0D301D9961C921E92D897DB961C92EE
:103270001E92DA9783E08083F30117AA16AA83E0EF
:10328000ED50FE4F80833497718360833696C3017F
:10329000805C9D4F108214821582168217821086E0
:1032A0001186128613861486158616861786108A4E
:1032B000118A128A138A148A79968E179F0751F7FA
:1032C000EE961FAEEE97912C93012C503E4FCE57A9
:1032D000DF4F39832883C258D040C301805E9E4FA0
:1032E000C457DF4F99838883CC58D040D301AC5D5D
:1032F000BE4FC257DF4FB983A883CE58D040F301E9
:10330000E45EFE4FC057DF4FF983E883C059D040D9
:1033100024593109CE56DF4F39832883C259D04012
:10332000CB01770FAA0BBB0BCC56DF4F8883998359
:10333000AA83BB83C459D040CE57DF4FA881B9813F
:10334000C258D0408C91EE96BFADEE97B81708F0FA
:1033500009C2EE969FADEE97292E312CEAE7F0E0F8
:10336000EC0FFD1FE20DF31D608189E1829DF001EC
:10337000839DF00D1124E60DF71DEB50FE4F608389
:1033800091102FC0C457DF4FA881B981CC58D040CD
:103390008D909D90AD90BC90C257DF4FE881F98130
:1033A000CE58D040C080D180E280F380C057DF4F3C
:1033B000A881B981C059D0400D911D912D913C91AA
:1033C000F301E65EFE4F408151811F921F921F92D2
:1033D00084E68F93C30167D6982E0F900F900F90BD
:1033E0000F90C258DF4FE881F981CE57D04051820B
:1033F0004082911006C045E060E2C3010E94202295
:10340000982E812C27E730E02C0F3D1F220D331D15
:10341000CA57DF4F39832883C658D04029E1229DFF
:10342000C001239D900D1124860D971DDC01A7502E
:10343000BE4FC058DF4FB983A883C058D0405C014D
:10344000B6E0AB1ABEEFBB0A6C01E2E0CE1AEEEFBB
:10345000DE0A8C010E5F1D4F7C01FAEFEF1AFDEFC3
:10346000FF0A9C012A503E4FC857DF4F39832883FB
:10347000C858D040DC01A950BE4FC657DF4FB983B2
:10348000A883CA58D040282D30E0CA57DF4FA88102
:10349000B981C658D0408C9190E00296821793076C
:1034A0000CF48EC091100EC0C3010E94ED33982E13
:1034B000811108C0AE014F5F5F4F62E0C3010E94FF
:1034C000E924982E8B81823008F46BC08DAD893051
:1034D00009F067C0C058DF4FE881F981C058D0407B
:1034E00080818F5F808329893A89F501808191816C
:1034F000A281B381820F931FA11DB11D808391838F
:10350000A283B3832BA53CA5F60180819181A28182
:10351000B381820F931FA11DB11D80839183A2836C
:10352000B3832FA938ADF80180819181A281B38145
:10353000820F931FA11DB11D80839183A283B3834A
:103540008BAD9CAD092E000CAA0BBB0BF701408183
:10355000518162817381840F951FA61FB71F8083DD
:103560009183A283B383CE56DF4FA881B981C2591C
:10357000D0408C91C857DF4FE881F981C858D040BE
:103580008083C258DF4FA881B981CE57D0408D913A
:103590009C91C657DF4FE881F981CA58D04091838A
:1035A000808391100BC0C3010E94BD33982E8111FE
:1035B00005C060E2C3010E94C723982E839463CFA5
:1035C00091100EC0C3010E943C23982E811108C0A7
:1035D00048EE53E060E070E0C3010E940E36982E82
:1035E00089E1829D8001839D100D1124060D171D18
:1035F0007801B7E0EB1ABEEFFB0AF7018081882360
:1036000009F4A8C06801F6E0CF1AFEEFDF0A282F00
:103610002695F60180819181A281B381BC01CD0103
:10362000620F711D811D911D60837183828393835D
:10363000F701208130E040E050E00E94D13AD6010D
:103640002D933D934D935C9313975801B2E0AB1AC1
:10365000BEEFBB0AF70120812695F501808191819B
:10366000A281B381BC01CD01620F711D811D911D2D
:103670006083718382839383F701208130E040E08F
:1036800050E00E94D13AD5012D933D934D935C9328
:1036900013975801B2E0AB0EBB1EF70120812695AF
:1036A000F50180819181A281B381BC01CD01620FBE
:1036B000711D811D911D6083718382839383F70146
:1036C000208130E040E050E00E94D13AD5012D93B6
:1036D0003D934D935C9313975801BAEFAB1ABDEF2E
:1036E000BB0AF70120812695F50180819181A28195
:1036F000B381BC01CD01620F711D811D911D6083DD
:10370000718382839383F701208130E040E050E0B1
:103710000E94F33AD5012D933D934D935C931397FB
:10372000F801E65FFD4FCC56DF4F88819981AA8171
:10373000BB81C459D040821B930BA40BB50B808373
:103740009183A283B38375978081813019F4F60148
:1037500040805180EE96FFADEE97FF5FEE96FFAF93
:10376000EE97EACDF30183818330D1F4E65FFD4F1C
:1037700080819181D301D8962D913C91D997280FC2
:10378000391FD9963C932E93D897DA962D913C9178
:10379000DB97820F931FDB969C938E93DA9734C04E
:1037A000F301ED5DFD4F80819181F30191AF80AF19
:1037B000E45CFD4F80819181D301DB969C938E93D5
:1037C000DA97D7961C921E92D697B99780819181ED
:1037D000ED59F14091838083EA54FE4F80819181BD
:1037E000E45BF14091838083E156FE4F80819181BB
:1037F000ED59F14091838083EA54FE4F808191819D
:10380000E45BF14091838083911007C0B3016B5D4D
:103810007F4FC3010E94EB2D982ECE57DF4FE881DA
:10382000F981C258D0404081F301E950FE4F7E013A
:1038300027E7E20EF11C80E0B3016E507E4F841743
:10384000D1F1911032C0DB018C939281D7012C9180
:10385000921710F4B1EE9B2E81110BC003851485D5
:1038600025853685013018402105310510F0A0EE80
:103870009A2E078110852185328501301941210555
:10388000310510F05FED952E208131812115A5E0E5
:103890003A0738F4232B19F437EE932E02C02EED9D
:1038A000922E911102C098EE992E8F5F7996BFEFFC
:1038B000EB1AFB0AC4CFF301EF50FE4F9082CC57B6
:1038C000DF4FE881F981C458D0409082892DC956D4
:1038D000DF4F0FB6F894DEBF0FBECDBFDF91CF91A3
:1038E0001F910F91FF90EF90DF90CF90BF90AF901E
:1038F0009F908F907F906F905F904F903F902F9010
:103900000895CF92DF92EF92FF920F931F93CF9380
:10391000DF9300D01F92CDB7DEB77C01162F1B823C
:10392000AE014D5F5F4F60E370E00E94F835970194
:1039300028563E4F6901811134C08B81F701EE5B3F
:10394000FE4F8083612FC7010E94E528811129C0A5
:10395000C7010E94F233811124C002E010E020E090
:1039600030E0AE014F5F5F4F69E870E0C7010E9431
:103970007935811106C09981F60190839A8131963B
:103980009083F60190819F71908381110EC0C701D1
:103990000E940429811109C060E0C7010E94E52846
:1039A00004C0F60190819F7190830F900F900F904B
:1039B000DF91CF911F910F91FF90EF90DF90CF900B
:1039C00008954F925F926F927F928F929F92AF92E3
:1039D000BF92CF92DF92EF92FF920F931F93CF93FC
:1039E000DF9300D000D000D0CDB7DEB74C013B0153
:1039F0000E940029811180C0F401E05DFE4FA0808B
:103A0000B18024018EEE480E511CF201C084D18495
:103A1000E284F384068117812281338144815581B8
:103A20006181C4010E94022B811166C0F201608194
:103A3000C40167DF811160C002E010E020E030E0E7
:103A4000AE014F5F5F4F69ED70E0C4010E947935B0
:103A5000811152C08981F401EC59FD4F80838A8124
:103A60003196808302E010E020E030E0AE014F5F4D
:103A70005F4F64E170E0C4010E94103581113CC0C9
:103A80008981F40184A78A8185A706E010E020E0FF
:103A900030E0AE014F5F5F4F6CEA70E0C4010E94FE
:103AA0007935811129C006E010E020E030E0AE0158
:103AB0004F5F5F4F6DE070E0C4010E9410358111CF
:103AC0001BC09981F40195A39A8196A39B8197A32A
:103AD0009C8190A79D8191A79E8192A7E856FE4F59
:103AE00090819F3031F0903131F09E3029F484EE96
:103AF00003C083EE01C082EEF301808326960FB6E9
:103B0000F894DEBF0FBECDBFDF91CF911F910F9113
:103B1000FF90EF90DF90CF90BF90AF909F908F90ED
:103B20007F906F905F904F900895CF93DF93EC015B
:103B3000DC019596FB01349687E101900D928A9500
:103B4000E1F7DE01AA58BF4FFB017B9688E00190A8
:103B50000D928A95E1F7FE01E258FF4FDB01959641
:103B60008D919C91969791838083DE01DC96FB0179
:103B7000B7968AE301900D928A95E1F76EA57FA52D
:103B800080E090E0FE01EC5FFE4F608371838283F2
:103B90009383349628A939A93183208332962AA9A0
:103BA0003BA9318320833A962081211107C01FA6AB
:103BB0001EA619AA18AA1BAA1AAA13C0FE01EB5E18
:103BC000FE4F408151810E94AD2961157105B1E020
:103BD0008B07910520F06FEF7FEF80E090E07FA7EB
:103BE0006EA780E0DF91CF910895CF93DF93EB0133
:103BF000DB011496FC01B59627E101900D922A9500
:103C0000E1F7FC01EC5FFE4F4081518162817381DD
:103C10004115510521E06207710528F02FEF3FEFB4
:103C20003E872D8702C05E874D87FC01E85FFE4F0F
:103C300020813181388B2F873296208131813A8BD8
:103C4000298BDE015B96E459F10928E001900D9281
:103C50002A95E1F7FC01EC57FF4F208131813CA30D
:103C60002BA33697208131813EA32DA3DE019796A9
:103C7000E254F1098AE301900D928A95E1F780E020
:103C8000DF91CF910895FC01E759FD4FA081B181EB
:103C9000109711F481EF0895FC01418B528B638BD7
:103CA000748BE558FE4F9A01AB010E940F3B608375
:103CB00071838283938380E008954F925F926F9225
:103CC0007F928F929F92AF92BF92CF92DF92EF92AC
:103CD000FF920F931F93CF935C012A013B01B9011F
:103CE000A801FC01E05DFE4FA081B181109711F4A5
:103CF00081EF1FC0870176019A01AB01C301B201B8
:103D0000F501458256826782708621873287438714
:103D10005487E586F6860787108B4501C5E98C1A1E
:103D2000CEEF9C0ACAEAAC1ACEEFBC0A6D010E9423
:103D3000402ACF911F910F91FF90EF90DF90CF908D
:103D4000BF90AF909F908F907F906F905F904F90BB
:103D500008958F929F92AF92BF92CF92DF92EF928F
:103D6000FF920F931F93CF93DF93FC01E05DFE4F13
:103D70000190F081E02D309711F481EF61C089014D
:103D80007A016B01EC01DC01AF58BE4F6C91CF01A1
:103D90000E940E294B015C01FE01E35AFE4F608137
:103DA00070E080E090E0A50194010E949C29F6015A
:103DB0006083718382839383FE01E559FE4F808186
:103DC00090E0982F882731962081B501A401820FB9
:103DD000911D0E94CC29F7016083718382839383B4
:103DE000FE01E159FE4F808190E0982F882731969F
:103DF0002081B501A401820F911D0E94CC29F801F8
:103E00006083718382839383F60180819181A28193
:103E1000B3818D839E83AF83B887F70180819181C1
:103E2000A281B38189879A87AB87BC87F80180819B
:103E30009181A281B3818D879E87AF87B88B80E007
:103E4000DF91CF911F910F91FF90EF90DF90CF9076
:103E5000BF90AF909F908F9008959C016830C8F4F8
:103E600081E0662329F0062E01C0880F0A94EAF744
:103E7000F901E057FE4F90818923662331F090E0ED
:103E800002C0959587956A95E2F7FA01808380E0F4
:103E900008958CEF08950F931F93CF93DF938C01B8
:103EA000EB01AC0142575E4F688189810E94DF2A95
:103EB000A80141575E4F6B818A810E94FB2A80E0F6
:103EC000DF91CF911F910F9108950F931F93CF937F
:103ED000DF938C01EB016F5F7F4FFC01E257FE4FD8
:103EE000AE0180810E946A2CAE014D5F5F4FBE0122
:103EF0006E5F7F4FF801E157FE4F80810E94F22AEA
:103F000080E0DF91CF911F910F910895EF92FF9282
:103F10000F931F93CF93DF9300D0CDB7DEB77C0113
:103F20008B011A821982FC01E351FE4FAE014E5FF4
:103F30005F4FBE016F5F7F4F80810E946A2C8A8134
:103F4000F801808389818183F701E251FE4F8081EE
:103F5000982F92959F70F80193838F70828380E0F1
:103F60000F900F90DF91CF911F910F91FF90EF90E5
:103F700008950F931F93CF93DF93EC01BC01655D10
:103F80007E4F0E94EF2C81111FC0BE016B5D7F4FE1
:103F9000CE010E941B2E811117C08E010D531E4FA2
:103FA000B801CE010E948F3281110EC0BE01625352
:103FB0007F4FC8010E94ED27AE0147595D4F6EED5E
:103FC00070E0CE010E940336FE01E05DFE4F2081CD
:103FD00031812115304120F42CEC3CEB31832083DE
:103FE000811105C0BE0160587F4FCE018FDFDE0119
:103FF000AC57BF4F9C91911116C0AE014B575F4F0C
:10400000FA01908191110FC09E0120583F4FF90194
:1040100090819295907F9C93CF57DF4F9881929596
:10402000907FFA019083DF91CF911F910F910895B6
:10403000EF92FF920F931F936150653070F5FC0172
:10404000E655FF4F60817181FA0171836083FC0145
:10405000E255FF4F4081518162817381F9014083B4
:10406000518362837383FC01EA54FF4F4081518185
:1040700062817381F8014083518362837383FC0101
:10408000EE53FF4F80819181A281B381F70180833C
:104090009183A283B38380E001C08CEF1F910F91C5
:1040A000FF90EF9008952F923F924F925F926F9200
:1040B0007F928F929F92AF92BF92CF92DF92EF92B8
:1040C000FF920F931F93CF93DF93CDB7DEB72B975C
:1040D0000FB6F894DEBF0FBECDBF1C016B875A83AD
:1040E00049830F83188729873A872601370128A13A
:1040F00039A14AA15BA12B833C834D835E836C0174
:104100003AECC31A3EEFD30ABC016A5A7E4FAC01A7
:1041100045595E4F9C0120583E4F8C010E561E4F54
:104120007C0186E8E80EF11CEB85D1011196EC9339
:10413000119719964D925D926D927C921C97F101A8
:1041400085869686A786B08A8B819C81AD81BE814B
:10415000818B928BA38BB48BFB85F330A9F040F459
:10416000F13079F0F23009F04AC0C60194D611C09E
:104170008B85843061F0853009F041C0C60112D7CB
:1041800008C0C601A5D505C0C601BBD602C0C60180
:10419000EED6811135C0E981FA81D601ED93FC9309
:1041A000D1015696FC93EE935597750164019301E6
:1041B00082014F81588569857A85C1017EDD811133
:1041C0001FC04B815C816D817E81C1012B960FB632
:1041D000F894DEBF0FBECDBFDF91CF911F910F913D
:1041E000FF90EF90DF90CF90BF90AF909F908F9017
:1041F0007F906F905F904F903F902F9044CD8CEFC9
:104200002B960FB6F894DEBF0FBECDBFDF91CF91D6
:104210001F910F91FF90EF90DF90CF90BF90AF90E4
:104220009F908F907F906F905F904F903F902F90D6
:1042300008958F929F92AF92BF92CF92DF92EF92AA
:10424000FF920F931F93CF93DF93EC0181E089835B
:104250001A828B838C8388EE93E0A0E0B0E08D839C
:104260009E83AF83B88780ED97E0A0E0B0E08987B8
:104270009A87AB87BC8788EC92E3A0E0B0E08D879B
:104280009E87AF87B88B84E690E0A0E0B0E0898B92
:104290009A8BAB8BBC8B80E09AE09E8B8D8B1C8EB7
:1042A000FE01E258FF4F8BED97E0918380836623F8
:1042B00011F0CE015EDECE0182519F4FF0D3CE01D0
:1042C00086509F4F07D4BE016C5F7E4FCE0185960E
:1042D00017D4CE01865E9E4F59D4CE018A579F4F88
:1042E00076D4FE01EE5CFE4F80818370805880831F
:1042F0008D849E84AF84B888C984DA84EB84FC847E
:104300000D811E812F8138854D895E898C898F931F
:104310008B898F938A898F9389898F936981CE0145
:10432000C2DE182FCE010E949F2B0F900F900F908E
:104330000F90812FDF91CF911F910F91FF90EF9000
:10434000DF90CF90BF90AF909F908F9008950F9384
:104350001F93CF93DF93EC01FC01EB5EFE4F408196
:1043600051818C010C5F1E4FD8016D917D918D9113
:104370009C91F3D761157105B1E08B07910520F091
:104380006FEF7FEF80E090E07FA76EA7FE01E85F10
:10439000FE4F4081518159AB48AB3296208131812B
:1043A0003BAB2AAB3A9681E080833396D8016D917E
:1043B0007D918D919C9100815DD7FE01E85EFE4F5D
:1043C00091838083BE016B5D7F4FCE01DF91CF91E2
:1043D0001F910F910C94EB2DFC0117A616A611AAA4
:1043E00010AA13AA12AAEC5EFE4F10823496118214
:1043F0001082BC016B5D7F4F0C94EB2D8B589E4F50
:10440000FC0180819181FB019183808380E008958C
:104410008B589E4FFC017183608380E0089589581A
:104420009E4FFC0180819181FB019183808380E01C
:10443000089589589E4FFC017183608380E0089540
:104440008F929F92AF92BF92CF92DF92EF92FF92A4
:104450000F931F93CF93DF93CDB7DEB7C45BD10922
:104460000FB6F894DEBF0FBECDBF7C01DC01129603
:104470006C934C01BEE68B1ABEEF9B0AF40184815B
:104480008F70682B6483E454F109D701A85EBE4F96
:104490008D919C9191838083E55BFE4F80818F3F5E
:1044A00009F41082D701A856BD4F8C91813081F557
:1044B0008081811123C0A054B1408C91F701E65650
:1044C000FD4F808380E28C93EA50F14080818076BA
:1044D00071F4D701DA968D919C91DB97880F991F23
:1044E000880F991FD7969C938E93D69703C0F70198
:1044F00017AA16AA453060F445E00AC0813041F49D
:10450000F701E656FD4F8081E254F140808346E09A
:10451000EFEFE40FE63030F4F0E0ED5AFE4FC080EC
:10452000D12C03C083E8C82ED12C08E810E00C1968
:104530001D09FE013196CF01800F911F5F018E177B
:104540009F0711F01192FBCF4630E0F0A5014C1906
:104550005D094F5F5F4F6BE070E0C701855D9E4F67
:104560000E948C2C811174C0A5014C195D09435F18
:104570005F4F67E170E0C70185960E941F2D882379
:1045800029F066C0453081F3443079F4A5014C1917
:104590005D094C5D5F4F60E270E0C7018A5C9E4F31
:1045A0000E944A2E882319F053C04330E9F4A50134
:1045B0004C195D094C5B5F4F66E170E0C7018A5A98
:1045C0009E4F0E94B52E811143C0A5014C195D0973
:1045D000465A5F4F67E170E0C70185599E4F0E94C0
:1045E0000A2F882329F034C0423079F34423E9F0BC
:1045F00041E750E04C195D09D40114968C91F70104
:10460000E058FE4F85FF08C0D7015F968C91982F28
:10461000916090839387818B4A0D5B1D62E170E00E
:10462000CF010E945A2F811113C0A5014C195D09B9
:104630004D575F4F65E070E0C4010E94A02F8111CB
:1046400007C020E030E0A501B601C7010E94103587
:10465000CC54DF4F0FB6F894DEBF0FBECDBFDF9155
:10466000CF911F910F91FF90EF90DF90CF90BF906F
:10467000AF909F908F900895FF920F931F93CF93C9
:10468000DF93EC018C010A561E4FF80180818F7078
:1046900080688083BE016E567E4FCE010E94BE2F81
:1046A000F82EF80180818F708083EE5FFE4F80814D
:1046B000813019F4CE010E94BA2B8F2DDF91CF915A
:1046C0001F910F91FF900895DF92EF92FF920F9349
:1046D0001F93CF93DF93CDB7DEB7C45BD1090FB67D
:1046E000F894DEBF0FBECDBF7C01D62E81E06817E7
:1046F00031F092E0691731F00CE210E005C00DE4F2
:1047000010E002C006E810E020E030E0AE014F5FAC
:104710005F4F68E870E0C7010E94793591E09D1510
:1047200068F4811125C0A7014F595D4FBE01615B3F
:104730007F4F88E390E00E940D3102C0DD2061F0E0
:10474000811116C0A701405C5D4FBE01635D7F4FC4
:1047500081E290E00E94A63081110AC0A70149566B
:104760005E4FBE016F5F7F4F8CE290E00E94EA2FA8
:10477000CC54DF4F0FB6F894DEBF0FBECDBFDF9134
:10478000CF911F910F91FF90EF90DF90089543E03C
:1047900057CE2F923F924F925F926F927F928F925D
:1047A0009F92AF92BF92CF92DF92EF92FF920F93C0
:1047B0001F93CF93DF934B015C017A0169011801CC
:1047C000FA018381F8018283E801249610E003E175
:1047D000412C48E0542E612C712C1883F7019381F1
:1047E0008181911106C0982F9F71993011F408AF03
:1047F00002C08F7188AFF701113009F465C0828162
:10480000873019F48289938908C0F701883019F438
:104810008489958902C0848195819D878C87F70161
:10482000808991899FA38EA38689978999A788A754
:10483000808591859BA78AA782859385A0E0B0E0BB
:1048400035E0880F991FAA1FBB1F3A95D1F7009733
:10485000F1E0AF07B10520F08FEF9FEFA0E0B0E0EF
:104860009BAB8AABF701848595859DAB8CABA68508
:10487000B785A50194010E940F3B7C5F8F4F9F4F2E
:10488000A30192010E94F33A3FAB2EABF601848163
:104890009581A681B7818E8F9F8FA8A3B9A38085AC
:1048A0009185A285B3858AA39BA3ACA3BDA3848570
:1048B0009585A685B7858E879F87A88BB98B8081C4
:1048C0009181A281B38157C0808D918D9D878C8706
:1048D000828D938D9FA38EA38FEF9FEF99A788A7BB
:1048E000848D958D9BA78AA7868D978DA0E0B0E0DB
:1048F00025E0880F991FAA1FBB1F2A95D1F70097A3
:10490000E1E0AE07B10520F08FEF9FEFA0E0B0E04F
:104910009BAB8AABF70180A191A19DAB8CABA2A10F
:10492000B3A1A50194010E940F3B7C5F8F4F9F4F65
:10493000A30192010E94F33A3FAB2EABF6018489AA
:104940009589A689B7898E8F9F8FA8A3B9A3808DDB
:10495000918DA28DB38D8AA39BA3ACA3BDA3848D9F
:10496000958DA68DB78D8E879F87A88BB98B8089F3
:104970009189A289B3898A8F9B8FAC8FBD8FE9966D
:104980001F5F123009F029CFF1011382F7018181F5
:104990008F718D3041F028F49FEF980F933018F00D
:1049A00005C0813119F4F101838314AEDF91CF91F9
:1049B0001F910F91FF90EF90DF90CF90BF90AF903D
:1049C0009F908F907F906F905F904F903F902F902F
:1049D0000895AF92BF92CF92DF92EF92FF920F9322
:1049E0001F93CF93DF93EC015A016C018CE5C81A39
:1049F0008DEFD80ACE0168DEF82E81110FC0FE01BE
:104A0000E258FF4F6081718180E090E086019E0155
:104A1000205C3D4FAE0149565E4FBBDEFE01E856BD
:104A2000FD4FE080E1E0EE121DC08E0107561D4FE4
:104A3000F1100FC0F8018081811106C0CE01BFD6F0
:104A4000F82EF801E08205C0813019F482E0F80107
:104A50008083F80180818F3F29F0F11003C0CE01DF
:104A6000D8D6F82E8D8DF601808389A1818386E7C3
:104A7000D50101900D928A95E1F78F2DDF91CF91AD
:104A80001F910F91FF90EF90DF90CF90BF90AF906C
:104A90000895FC018381FB01808380E00895FC017F
:104AA00088E080838BE0818388EE93E0A0E0B0E033
:104AB00082839383A483B58380E09AE0978386837F
:104AC00080E095E09187808780E094E193878287FA
:104AD00080E00895FC01108282E181838FE082836F
:104AE00082E0838380EA9CE8A0E0B0E08483958341
:104AF000A683B7838CE090E09187808780E008955B
:104B00000F93CF93DF93DC01FB0119966D917C919C
:104B10001A9780E090E060837183828393831B9671
:104B20004D915C911C97558344831D962D913C912A
:104B30001E9737832683608771878287938755877F
:104B4000448737872687128A118AA0E4A38B6115D0
:104B500071058105910541F44115510529F421158F
:104B6000310511F4108A02C0A1E0A08BA089A13008
:104B700031F4EF0100E47ED39D8B8C8B02C0158A4B
:104B8000148A80E0DF91CF910F910895FC0180E0BD
:104B90009AE09183808388EE93E0A0E0B0E0828386
:104BA0009383A483B58388EC92E3A0E0B0E086838E
:104BB0009783A087B18782879387A487B58788E08A
:104BC000868788E2878789E0808B80E00895FC01F2
:104BD00083E090E89183808381E090E893838283EF
:104BE00081E490E8958384832EE026839AE097837E
:104BF00086E0808721879287838782E0848791E29D
:104C0000958717861686108A28E631E0328B218B2D
:104C1000348B238B368B258B20EC30E0308F278B29
:104C2000328F218F348F238F98E0958F90E1968F6C
:104C300091E0978F80A391A382A313A280E09AE0D2
:104C400095A384A397A386A380E390E8A0E0B0E0B7
:104C500080A791A7A2A7B3A788EE93E0A0E0B0E059
:104C600084A795A7A6A7B7A780ED97E0A0E0B0E03E
:104C700080AB91ABA2ABB3AB84AB95ABA6ABB7AB00
:104C800088E196EFA0E0B0E084AF95AFA6AFB7AFF4
:104C9000DF01A05CBF4F48EC52E360E070E04D9351
:104CA0005D936D937C93139781E090E0A0E0B0E07A
:104CB00080AF91AFA2AFB3AFEC5BFF4F80E49FE159
:104CC000A0E0B0E080839183A283B38380E0089565
:104CD000CF92DF92EF92FF920F931F93CF93DF93C8
:104CE000FC01DB01690180E09AE0918380831282FC
:104CF00013821482158216821782108611861286FC
:104D0000138681E1848792E095871686978778E0FD
:104D1000708B118AE7018D8D828B8E8D838B8F8DA9
:104D2000848B81E0858B168A178A118E108E2FEF67
:104D3000228F3889338F3C85348F158E168E178ECF
:104D40001C9211961C92119760E212966C93129726
:104D50003BE013963C931397EE85FF851596FC93E5
:104D6000EE93149716969C931697EDE01796EC9396
:104D70001797ED851896EC93189719961C9219972A
:104D80001A968C931A971C961C921E921B971E962D
:104D90001C921E921D97E0E0FCE85096FC93EE9367
:104DA0001F9751961C925197E8E35296EC935297B5
:104DB00053962C93539754968C93FA011082EAE100
:104DC000DA011196EC93119712961C921297139692
:104DD0006C93139714968C9314976CEC15966C93B4
:104DE000159716963C93169717968C93179765EF21
:104DF00018966C93189769E019966C931997EB893C
:104E0000FC891B96FC93EE931A97E98DFA8D1D96FB
:104E1000FC93EE931C971E967C931E9778E71F9643
:104E20007C93EA01188A198A1A8A1B8A1C8AF6015D
:104E3000808312821182148213821582D701909688
:104E40004C91909746833783608717963C911797CC
:104E500031871A963C911A973287838793963C91B3
:104E60009397348792963C91358737EC368727871E
:104E70002BED208B918BE80119828A838B8381E251
:104E80008C8380E0DF91CF911F910F91FF90EF9085
:104E9000DF90CF900895AF92BF92CF92DF92EF92C2
:104EA000FF920F931F93CF93DF93EA01690110DF05
:104EB00081111CC027E02E8395E09987F701458971
:104EC00056895B874A87438D548D5D874C8738E0D0
:104ED0003E8738E33F87F60127839087F701908567
:104EE000F6019187F7019385F6019287DF91CF91C3
:104EF0001F910F91FF90EF90DF90CF90BF90AF90F8
:104F00000895AF92BF92CF92DF92EF92FF920F93EC
:104F10001F93CF93DF93EA016901DADE81111CC090
:104F20002FE02E839DE09987F701418952895B87A5
:104F30004A874789508D5D874C8738E03E8738EB3C
:104F40003F87F60127839087F7019681F6019187C5
:104F5000F7019185F6019287DF91CF911F910F9113
:104F6000FF90EF90DF90CF90BF90AF900895CF92D9
:104F7000DF92EF92FF920F931F93CF93DF936B011A
:104F8000E901A6DE811105C092E0F60192879BE35C
:104F9000988BDF91CF911F910F91FF90EF90DF9051
:104FA000CF900895CF92DF92EF92FF920F931F93CD
:104FB000CF93DF936B01E9018BDE811105C092E095
:104FC000F60192879BE5988BDF91CF911F910F910E
:104FD000FF90EF90DF90CF900895DC01FB011A96CF
:104FE0008C911A9780831B968C911B9781831C96BA
:104FF0008C911C9782831D968C911D9783831E969E
:105000008C911E9784831F968C911F978583509651
:105010008C915097868351968C91519787835296A5
:105020008C915297808753968C9153978187549691
:105030008C915497828755968C9155978387569675
:105040008C915697848757968C9157978587589659
:105050008C915897868759968C91599787875A963D
:105060008C915A97808B5B968C915B97818B5C9629
:105070008C915C97828B5D968C915D97838B5E960D
:105080008C915E97848B5F968C915F97858B9096C1
:105090008C919097868B91968C919197878B929615
:1050A0008C919297808F93968C919397818F949601
:1050B0008C919497828F95968C919597838F9696E5
:1050C0008C919697848F97968C919797858F9896C9
:1050D0008C919897868F99968C91878F0895FA0175
:1050E000E60FF71FE417F50721F08293892F90E070
:1050F000F9CF08959B01280F391F80E090E06217D7
:10510000730739F0982F8827FB014191BF01842B49
:10511000F6CF0895FA01E60FF71FE417F50729F017
:105120008293892F990F990BF8CF0895FB01208165
:10513000022E000C330B330F220B322F860F971FDA
:10514000E817F90729F0322F22274191242BF8CFB5
:10515000C9010895F901E40FF51FE217F30731F0D3
:105160006293672F782F892F9927F7CF0895FB0136
:105170009B01280F391F60E070E0CB01E217F307B5
:1051800049F0B82FA72F962F88274191BC01CD0158
:10519000642BF4CF0895FB014081042E000C550BC5
:1051A000660B770B770F440B542FBA018E0F9F1F9E
:1051B000E817F90739F0762F652F542F44272191EE
:1051C000422BF6CFCB01BA010895462F67E270E07B
:1051D0000C94E235462FFC01EC56FE4F608365E8E7
:1051E00070E00C94E23561E0F5CF60E0F3CF462F3C
:1051F000FC01EE56FE4F608363E870E00C94E235EC
:1052000061E0F5CF60E0F3CFFC01EB56FE4F21E00B
:10521000208341E066E870E00C94E235CF92DF92A3
:10522000EF92FF92CF93C62F46D36B017C018C2F58
:105230004ED3E82FA0E0B9E0A70196010E940F3BF2
:105240009B01AC0186E056954795379527958A9541
:10525000D1F7AE2FB0E00E940F3B26E096958795E0
:10526000779567952A95D1F7CF91FF90EF90DF90D2
:10527000CF900895AF92BF92CF92DF92EF92FF92BC
:105280000F93CF93DF935A01E90124E0660F771F54
:10529000881F991F2A95D1F728EE33E040E050E0AF
:1052A0000E94F33A69017A01B7FE05C066277727A5
:1052B0006A197B0902C060E070E0D7FF04C0D19595
:1052C000C195D10902C0C0E0D0E06C0F7D1F85E020
:1052D000660F771F8A95E1F7072E000C880B990B54
:1052E00028EE33E040E050E00E94F33A2C0D3D1DE3
:1052F0004E1D5F1DA02FB0E00E940F3B605F7F4FEF
:105300008F4F9F4F20E230E040E050E00E94F33AA0
:105310002115310581E04807510514F4C90102C087
:105320008FEF9FEFDF91CF910F91FF90EF90DF9084
:10533000CF90BF90AF9008950F930E94193B385FB4
:105340004F4F5F4F6F4F7F4F8F4F9F4F0CE00E942B
:10535000423BB901CA010F9108950F931F938A012F
:10536000550F220B330BDC01CB01800F911FA21FC5
:10537000B31F009724E0A207B10524F08FEF9FEF41
:10538000A3E0B0E0BC01CD0197FF03C060E070E096
:10539000CB011F910F9108950F931F93FC01CB0137
:1053A000BA019F013327890120E030E004C0000FDB
:1053B000111F221F331FFA95D2F7A90198012F5F01
:1053C0003F4F4F4F5F4F0E94193B385F4F4F5F4F2A
:1053D0006F4F7F4F8F4F9F4F0CE00E94423BB901B0
:1053E000CA011F910F910895CF92DF92EF92FF9221
:1053F0006115710581059105D1F0DC01CB010197A3
:10540000A109B10920E030E06C017D01CC24CD2858
:10541000CE28CF2839F0B695A795979587952F5F19
:105420003F4FF2CF322F2227820F931F02C080E01E
:1054300090E0FF90EF90DF90CF900895CF92DF92B1
:10544000EF92FF9269017A01F694E794D794C7949A
:10545000DC01CB01FCE0880F991FAA1FBB1FFA9546
:10546000D1F7BC01CD016C0D7D1D8E1D9F1D0E94CD
:10547000D13ACA01B901FF90EF90DF90CF90B4CF3D
:105480002F923F924F925F926F927F928F929F9254
:10549000AF92BF92CF92DF92EF92FF920F931F9342
:1054A000CF93DF93CDB7DEB728970FB6F894DEBF62
:1054B0000FBECDBFC114D10409F467C09A8289829E
:1054C000B886AF821601EB82FC820D831E834901F0
:1054D0005A016B017C01E981FA816681C1019EDE7E
:1054E0002B013C01DC01CB01B695A79597958795DB
:1054F0003CE0CC0CDD1CEE1CFF1C3A95D1F7BC0146
:10550000CD016C0D7D1D8E1D9F1DA30192010E947A
:10551000D13A2F3F31054105510529F020F02FEFF9
:1055200030E040E050E0EF81F8852783A30192014D
:10553000C501B40183DFE981FA8190838183A301EE
:1055400092016B817C818D819E8178DFE981FA8176
:10555000948385836185C10161DE6B017C019B01C0
:10556000AC01C501B4016ADFE981FA8192838383CA
:10557000A70196016B817C818D819E815FDFE9812E
:10558000FA819783808780E001C081EF28960FB66B
:10559000F894DEBF0FBECDBFDF91CF911F910F9169
:1055A000FF90EF90DF90CF90BF90AF909F908F9043
:1055B0007F906F905F904F903F902F90089588302C
:1055C00040F0660F660F660F6157681BFA01608333
:1055D00008959FE0961BF8E09F9F800D1124FA012B
:1055E00080830895982F92959F70FA0190838F7011
:1055F000FB018083089590E1699F800D1124FA01D9
:10560000808308952F923F924F925F926F927F9284
:105610008F929F92AF92BF92CF92DF92EF92FF92C2
:105620000F931F93CF93DF9300D01F92CDB7DEB7B8
:105630004C016B8319012A013801C501EFDD9B0183
:10564000AC018CE0220C331C441C551C8A95D1F70C
:10565000DA01C901B695A79597958795BC01CD014B
:10566000620D731D841D951D0E94D13AF401E35A09
:10567000FE4F2F3F31054105510521F018F08FEF06
:10568000808301C0208324018FE8481A8EEF580AD6
:105690008B81D2018C9340816BE470E0C4010E9445
:1056A000E235811107C0D2014C9160E670E0C4017F
:1056B0000E94E235F201908199839A8381110CC096
:1056C00002E010E020E030E0AE014F5F5F4F68E79E
:1056D00070E0C4010E941035D401D5967C926E9280
:1056E000D497811116C0A3016CE170E0C4010E943F
:1056F000ED3581110EC0A70164E670E0C4010E947F
:10570000ED35811106C0A60166E670E0C4010E9475
:10571000ED350F900F900F90DF91CF911F910F916A
:10572000FF90EF90DF90CF90BF90AF909F908F90C1
:105730007F906F905F904F903F902F900895FC0165
:10574000E956FD4F23E02083319610823196108276
:1057500031961082319610823196108231961082E5
:105760003196108211821282138234961182108235
:1057700080E00895FC01E756FD4F2FEF208334961B
:105780001082319610821182128213823496118215
:10579000108237972081222319F0E656F1402083AA
:1057A000FC01E456FD4F2081222319F0EA56F14016
:1057B0002083FC01E15AFE4F108280E00895CF93D0
:1057C000DF93DC01AB5CBE4F3C91FC01E556FD4F25
:1057D0003083E956F1402081EC01C456DD4F288327
:1057E0003F773C93AE59BE4F3C91330F330F23703C
:1057F000230F2083BD9621E02083EC5FFE4F2081A4
:10580000FA962083E454F140208380E0DF91CF9129
:105810000895CF92DF92EF92FF920F931F93CF9351
:10582000DF93EC01FC01E556FE4F208131818E555E
:105830009D4F6C01F6977F018E01005A1E4F211576
:10584000310521F1DE01A955BE4FFA966D917C918B
:1058500080819181680F791FCB01A0E0B0E07727AC
:10586000662740E050E00E94D13AC256DD4F2883BF
:1058700039834A835B83232B242B252B39F0F601B4
:1058800011821082F7011182108208C080E090E836
:10589000F60191838083F7019183808382E0F80190
:1058A000808380E0DF91CF911F910F91FF90EF9067
:1058B000DF90CF9008959C0140E050E060E070E000
:1058C00080E090E40E94D13ACA01B90108958F5F47
:1058D000880F0895282F30E087FF0FC080958770CC
:1058E000885FFB0180832058310963E03595279557
:1058F0006A95E1F7FA01208308958770FB018083A0
:105900008FE790E0821B930B23E0959587952A956E
:10591000E1F7FA01808308950F931F93CF93DF93EC
:105920006B30710528F1EA018C01FC0180818F77D1
:10593000888381818F70898382818F778A83838135
:1059400083708B8384818F778C834B5F5F4F62E0A2
:1059500070E085819681C3DBF80187818F83808524
:10596000888781858F73898782858A8780E001C0D7
:1059700086EFDF91CF911F910F9108950F931F93A1
:10598000CF93DF930B9728F1EA018B01FB01808114
:105990008F77888381818F70898382818F778A83D3
:1059A000838183708B8384818F778C836B5F7F4F40
:1059B00082E090E09FDB9E838D83F80187818F8357
:1059C0008085888781858F73898782858A8780E033
:1059D00001C086EFDF91CF911F910F910895EF9253
:1059E000FF920F931F93CF93DF93CDB7DEB72B9723
:1059F0000FB6F894DEBF0FBECDBF7B010BE010E009
:105A000020E030E0AE014F5F5F4F61E070E00E9448
:105A10007935811107C0A701BE016F5F7F4F8BE011
:105A200090E0ACDF2B960FB6F894DEBF0FBECDBF73
:105A3000DF91CF911F910F91FF90EF9008950F93F9
:105A40001F93CF93DF936731710508F458C0EA01C3
:105A50008C01FC01808188838181898382818A8392
:105A600083818B8384818C8385818F708D838681F4
:105A70008E8387818F738F83808583708887475F4C
:105A80005F4F62E070E08185928529DBAE01455F62
:105A90005F4F62E070E0F801838594853BDBAE01E7
:105AA000435F5F4F62E070E0F8018585968532DBE9
:105AB000AE01415F5F4F62E070E0F8018785908939
:105AC0000EDBAE014F5E5F4FF8018189928962E083
:105AD00070E09F711FDBAE014D5E5F4F62E070E0D2
