:100000007AC0000094C0000092C000000C94120A54
:100010000C94010A8CC000008AC0000088C0000057
:1000200086C0000084C0000082C000000C948110D3
:100030000C9460107CC000007AC0000078C0000002
:1000400076C0000074C0000072C0000070C00000E4
:100050006EC000006CC000006AC0000068C00000F4
:1000600066C0000064C0000062C0000060C0000004
:100070005EC000005CC000005AC0000058C0000014
:1000800056C000000C946B100C94761050C0000009
:100090004EC000004CC000004AC0000048C0000034
:1000A0000C942F0F44C0000042C0000040C000006C
:1000B0000C94440A0664EC1B3C04BC163E3BE5B9B8
:1000C0003CC93C37C29E5A3D660498083EEA69AA7C
:1000D000AA3E000000803F05A84CCDB2D44EB938EE
:1000E00036A9020C50B9918688083CA6AAAA2ABE55
:1000F000000000803F0011241FBECFEFD8E0DEBF1C
:10010000CDBF11E0A0E0B1E0EAE8F5E702C005905C
:100110000D92A236B107D9F726E0A2E6B1E001C000
:100120001D92A331B207E1F790D10C94C33A0C941D
:100130008C100C940E0EFF920F931F93CF93DF93AE
:1001400000D0CDB7DEB78C01F62E80910B01F801FF
:10015000808380910A01818380911701828380913D
:10016000160183838091190184836091120170913B
:100170001301CE0101960E94DE108981F80185836A
:100180008A81868380911801878360910E01709126
:100190000F01CE0101960E94DE108981F80180874F
:1001A0008A81818780911A01828780917601838775
:1001B00080910D0184878091740185878091700101
:1001C000868780910C01878780917301808B809155
:1001D0008801818B80918901828B80918A01838B38
:1001E00080918B01848BF1100AC080913702829537
:1001F0008F70858B8091380282958F70868B0F90DF
:100200000F90DF91CF911F910F91FF90089598B1BA
:1002100021E030E001C0220F8A95EAF7292B28B9A6
:1002200008958091FF0190910002982789279827CF
:1002300090930B0180930A01809101028093170132
:10024000809102028093160180910302809319012C
:100250008091040290910502982789279827A0E0B1
:10026000B0E08093120190931301A0931401B09316
:1002700015018091060280931801809107029091E8
:100280000802982789279827A0E0B0E080930E0104
:1002900090930F01A0931001B093110181E0909110
:1002A0000902911101C080E080931A0181E09091D0
:1002B0000A02911101C080E08093760180910B02C7
:1002C00080930D0181E090910C02911101C080E0BA
:1002D0008093740180910D028093700180910E02D1
:1002E00080930C0181E090910F02911101C080E098
:1002F0008093730180911002809388018091110294
:10030000809389018091120280938A018091130267
:1003100080938B010895CF93DF9345E150E06FEF19
:1003200071E080E490E00E94FA1065E170E08FEFE8
:1003300091E00E94E80DD82F4FE550E066E172E0B1
:1003400080E890E00E94FA106FE570E086E192E0AC
:100350000E94E80DC82FD11105C0D1E080910102A3
:100360008111D0E0C11111C08091160281110DC020
:1003700080911702811109C080911802811105C076
:10038000C1E0809119028111C0E085E590E00E94F2
:10039000E510D81759F020E044E064E670E080E012
:1003A00090E00E94311010926D010AC080EE90E042
:1003B0000E94E510C813EFCF34DF81E080936D0118
:1003C000DF91CF910895AF92CF92DF92EF92FF929B
:1003D0000F931F9369E076E08091ED019091EE011B
:1003E0000E942736429884E690E00E94FF0F82E048
:1003F0000EDF69E076E08091ED019091EE010E94C0
:10040000663482E08093060100910A0110910B018D
:10041000A0906D0186E1C82E82E0D82E98E8E92EE2
:1004200091E0F92E2091160140E069E076E080919C
:10043000ED019091EE010E9411351F910F91FF90F7
:10044000EF90DF90CF90AF90089573DE0E94481137
:100450000E94E21083B18095881F8827881F8093AF
:10046000720182E090E00E94E510813029F18091D4
:1004700072010E946E0AEC0190938D0180938C01B1
:10048000019641F581E090E00E94E51090E09093A4
:100490008D0180938C0109978037910520F0D093CE
:1004A0008D01C0938C0120E044E064EF71E080E0B6
:1004B00090E00E9431100EC081E090E00E94E510B3
:1004C00090E090938D0180938C0160E082E090E059
:1004D0000E94EC1060918C0170918D011616170628
:1004E0003CF020E04FEF64EF71E080E090E013C05B
:1004F000CB0108978137910540F481E00E940A10F2
:1005000080918C010E94250F08C020E04FEF64E627
:1005100070E080E090E00E94311078942698399A3B
:1005200081E075DE80916800816080936800809131
:100530006B00806480936B003B984398389A80915D
:10054000680082608093680080916C00886080936E
:100550006C0045E150E06FEF71E080E690E00E94B2
:10056000FA104FE550E066E172E080EF90E00E9403
:10057000FA106FE570E086E192E00E94E80DC82F66
:1005800065E170E08FEF91E00E94E80DD82F8111B6
:1005900005C0D1E0809101028111D0E0C11111C0EC
:1005A0008091160281110DC080911702811109C03E
:1005B00080911802811105C0C1E08091190281115A
:1005C000C0E085E790E00E94E510D81711F0A3DEA7
:1005D0000AC080E591E00E94E510C813F8CF81E0E1
:1005E00080936D011EDE40E150E06FEE71E080E22D
:1005F00090E00E94FA1085EA92E09093EE018093D9
:10060000ED0100910A0110910B01A0906D0136E1FE
:10061000C32E32E0D32E48E8E42E41E0F42E2091A0
:10062000160140E069E076E00E941135811108C0B2
:1006300021E04FEF65E070E080E090E00E94311033
:1006400060910D0170E042E050E08BED95E00E947A
:10065000500EC8EED3E060910A0170910B01CE01FB
:100660000E94DA3846E08EE891E00E94FB0B10927F
:10067000670180910C018C9F20018D9F500C1124EB
:10068000052C000C6608770880911801803711F45A
:100690000E94661180911901803711F40E948C111B
:1006A0003B98439A82E08093060169E076E080916E
:1006B000ED019091EE010E941B36C1E0D8E02EE1E1
:1006C000222E312C809164018111FCCF0E945511A2
:1006D0008091EC01882309F497C39091D701809110
:1006E0000A0691114DC18E3261F480917501882303
:1006F00009F488C3269A2E9A2698399A81E087DDD4
:100700000CC08F3261F480917501882309F47AC39B
:10071000269A2E982698399A4198399873C3893524
:1007200029F4C0936E01109274018CC0893719F4BA
:1007300010926E0167C3883621F4429810927301BB
:1007400061C3883449F582E062DD69E076E080913A
:10075000ED019091EE010E94663482E080930601E3
:1007600000910A0110910B01A0906D0186E1C82E45
:1007700082E0D82E98E8E92E91E0F92E209116011A
:1007800040E069E076E08091ED019091EE010E94F9
:100790001135C093730136C3883509F44BC08737D0
:1007A00009F045C061E08FEF91E0C5DC6FE570E0D6
:1007B00086E192E00E94E80D182F65E170E08FEF6E
:1007C00091E00E94E80D809314028091750146E14A
:1007D00050E06FEF71E0811118C080E690E00E9458
:1007E0001D1140E150E06FEE71E080E290E00E9468
:1007F0001D114FE550E066E172E080EF90E00E944D
:100800001D11612F80E591E00FC080E490E00E940F
:100810001D114FE550E066E172E080E890E00E9433
:100820001D11612F80EE90E00E94EC10EBC28A3720
:1008300019F471DDC8DDE6C2843551F4C09374014A
:1008400010926E01809172018111DCC283E679C041
:10085000843719F410927401D5C28B3451F469E0D5
:1008600076E08091ED019091EE010E94273641E003
:100870000BC08B3691F469E076E08091ED019091A8
:10088000EE010E94273640E069E076E08091ED01BC
:100890009091EE010E946F3470C1853769F5C09365
:1008A000640183E70E945A10482F69E076E0809146
:1008B000ED019091EE010E94793446E152E069E049
:1008C00076E08091ED019091EE010E949A3520E052
:1008D00081110AC041E068EC70E080E090E00E9485
:1008E0003110C0936D01E5C144E064EF71E080E038
:1008F00090E00E943110DDC1863419F4C0931A01D2
:1009000081C2863619F410921A017CC2863561F4D0
:1009100060910D0170E042E050E08BED95E00E94A7
:10092000500EC09376016EC2863719F4109276018C
:1009300069C2833611F0833739F410926E01109238
:100940007401809317011BC1833509F05BC280914C
:100950001701833709F056C269E076E08091ED0116
:100960009091EE010E94213680916E01882309F456
:1009700049C280917201882309F444C2419842C25D
:10098000913009F091C08130D1F4809195028111AC
:1009900039C260918C0181E00E940A1061E082E01E
:1009A00090E00E94EC10F89498E088E10FB6F8947B
:1009B000A895809360000FBE90936000FFCF8C34A9
:1009C00021F44091950250E0EFC0813729F48091E5
:1009D000950280930C0116C2813529F4809195020D
:1009E000809370010FC2893651F4809195029EEF79
:1009F000980F9B3008F006C280930D0103C28C361D
:100A0000B9F40E94AE118091950280931901739AF6
:100A1000809119018F3609F47398809119018636F7
:100A200009F4739A80911901803709F0EBC1AFC1C5
:100A30008736D1F40E948811809195028093180125
:100A40004098809118018F3611F480E0E0DB8091AE
:100A50001801863609F4409880911801803709F012
:100A6000D1C10E946611CEC18D3609F0CBC18091F3
:100A700095028093160169E076E08091ED019091F6
:100A8000EE010E94273620910A0130910B0108E8FF
:100A900011E04091160169E076E08091ED019091BE
:100AA000EE010E94D93469C0923009F022C18F361C
:100AB00091F4809195029091960298278927982722
:100AC000A0E0B0E080930E0190930F01A09310017D
:100AD000B093110197C1853691F480919502909160
:100AE0009602982789279827A0E0B0E0809312010A
:100AF00090931301A0931401B093150183C1823424
:100B000009F049C080919502909196029827892713
:100B100098278A30910518F48AE090E006C0893E53
:100B200023E0920710F088EE93E090930B018093FE
:100B30000A0169E076E08091ED019091EE010E945A
:100B4000273620910A0130910B0108E811E040910D
:100B5000160169E076E08091ED019091EE010E942E
:100B6000D93460910A0170910B0188EE93E00E94E4
:100B7000DA3846E08EE891E03ED6809117010E9477
:100B80005A10482F69E076E08091ED019091EE01D6
:100B90000E94793437C18734B1F440919502509165
:100BA0009602542745275427509309014093080182
:100BB0002091070169E076E08091ED019091EE01CE
:100BC0000E9497341FC1813651F5C0936401809112
:100BD00068008D7F8093680080916C00877F809390
:100BE0006C0083E70E945A10482F69E076E08091FC
:100BF000ED019091EE010E9479342091950230919F
:100C0000960232272327322746E152E069E076E058
:100C10008091ED019091EE010E94BB352CC0883788
:100C200009F0F0C0C0936401809168008D7F8093CB
:100C3000680080916C00877F80936C0083E70E943E
:100C40005A10482F69E076E08091ED019091EE0115
:100C50000E94793420919502309196023227232701
:100C6000322746E152E069E076E08091ED01909113
:100C7000EE010E94E63520E081110AC041E068ECF7
:100C800070E080E090E00E943110C0936D0107C0D9
:100C900044E064EF71E080E090E00E9431108091C8
:100CA000680082608093680080916C008860809307
:100CB0006C00809117010E945A10482F69E076E07D
:100CC0008091ED019091EE010E94793420910A010A
:100CD00030910B0108E811E04091160169E076E0DF
:100CE0008091ED019091EE010E94D934109264013F
:100CF00089C0943011F5803709F084C08091950245
:100D00008F7080938801809196028F708093890103
:100D1000809197028F7080938A01809198028F70E2
:100D200080938B0148E851E069E076E08091ED0125
:100D30009091EE010E94453465C0963009F055C08F
:100D4000833241F580919502813209F05BC0809138
:100D50009602833209F056C080919702813209F0E1
:100D600051C080919802833209F04CC08091990261
:100D7000813209F047C080919A02833209F042C063
:100D8000809175018C27809375018823D9F10E9489
:100D90008C1138C08C33B1F5809195028E3391F56A
:100DA000809196028C3371F5809197028E3351F5C4
:100DB000809198028C3331F5809199028E3311F530
:100DC00080919A028C33F1F4809175018823D1F0DF
:100DD00000E010E06FEFC8010E94EC100F5F1F4FA2
:100DE000011592E01907B1F70DC0903159F48E3614
:100DF00049F480E1E5E9F2E0AFEEB1E001900D9257
:100E00008A95E1F71092EC0180916501882319F130
:100E100080917401811108C080916E018823D9F0FE
:100E200080917201811117C01092650180910C01AF
:100E300028EE33E0829F2001839F500C1124052C63
:100E4000000C6608770869E076E08091ED019091EA
:100E5000EE010E941B3680916501811121C08091B5
:100E600072018823E9F0809174018823C9F031E090
:100E7000431A510861087108141415041604170464
:100E80007CF0C093650180910C0128EE33E0829FD5
:100E90002001839F500C1124052C000C6608770854
:100EA00080916701882309F4F3C18091170183368B
:100EB00011F40E94BF111092670180917401811199
:100EC0000CC080916E01882349F0809172018823C3
:100ED00029F080911701833609F441988091190116
:100EE0008D3629F480917501811101C0739880912C
:100EF00018018D3629F480917501811101C087D9BF
:100F000049ED51E069E076E08091ED019091EE01CC
:100F10000E94313680916E01811104C0909174015C
:100F20009923F1F0909172019923F9F08823E9F067
:100F300080911701833649F469E076E08091ED01F4
:100F40009091EE010E941B3610C0833771F469E066
:100F500076E08091ED019091EE010E94273605C068
:100F60008091060187FFE8CFE3CF8091EB0180936A
:100F70007F01843029F410927C0110927B0108C01B
:100F80008091E9019091EA0190937C0180937B012B
:100F90008091E5019091E601A091E701B091E8010F
:100FA000B0937E01A0937D018091DB019091DC01E3
:100FB000A091DD01B091DE01B0937A01A093790197
:100FC0008091DF019091E001A091E101B091E201F7
:100FD000B0937801A093770180917B0190917C017F
:100FE0008838934120F010927C0110927B0180910F
:100FF0007B0190917C0101974E9720F430927C0107
:1010000020927B0180917B0190917C0190938101E2
:1010100080938001909383018093820162E871E064
:101020008BED95E06BD680918201909183010097C2
:1010300009F454C020911A01222389F16EE871E06D
:101040000FD590938301809382018091680188235A
:1010500059F02091800130918101309383012093D8
:101060008201815080936801809182019091830177
:101070008938934130F480917D0190917E010797EA
:1010800070F08091680181110AC080918001909177
:1010900081019093830180938201D09368018091B4
:1010A00076018823D9F08091710160910D01861736
:1010B00060F420918001309181013093830120936D
:1010C00082018F5F8093710109C08091DB0590914F
:1010D000DC05B4D79093830180938201C0936F01A4
:1010E0008091060181110FC080911701E3D7482F2D
:1010F00069E076E08091ED019091EE010E947934F3
:101100008091060102C018161CF4815080930601DC
:10111000809175018111D5C0809119018437C9F47E
:1011200080918201909183018C0120E030E0409118
:101130001201509113016091140170911501401733
:1011400051076207730720F0892B11F0739801C0D3
:10115000739A809118018437D1F480918201909123
:1011600083018C0120E030E040910E0150910F018D
:1011700060911001709111014017510762077307C8
:1011800028F0892B19F080E042D801C04098809166
:1011900019018D3609F4739A809118018D3609F47E
:1011A00040988091740181110CC080916E01882358
:1011B00051F080917201882331F0809117018336BC
:1011C00011F481E024D88091EB018350823008F43F
:1011D00052C000918201109183014801A12CB12CD1
:1011E000C0901201D0901301E0901401F09015010D
:1011F000C814D904EA04FB0418F41092630117C060
:1012000001151105D1F3A7019601281939094A09D9
:101210005B09A4E6B0E00E942C39A70196012E518B
:101220003109410951090E94EE3820936301C090B1
:101230000E01D0900F01E0901001F0901101C81440
:10124000D904EA04FB04C8F0012BB9F0A701960108
:10125000281939094A095B09A4E6B0E00E942C3933
:10126000A70196012E513109410951090E94EE381A
:101270002093620104C01092630110926201809178
:1012800063010E94A511809162010E947F1114C028
:1012900080917401811110C080916601882361F0F2
:1012A000109266013B98439A69E076E08091ED01E7
:1012B0009091EE010E941B3680917501882309F4FC
:1012C00001CA8091690190916A0101968D30910562
:1012D00028F490936A018093690104C010926A0116
:1012E000109269018091690190916A01892B09F03E
:1012F000E9C990916B0180916C01992311F08150A3
:1013000001C08F5F80936C0180916C01843634F052
:1013100083E680936C01C0936B0106C087FF04C015
:1013200010926C0110926B0180916C010E94A511CA
:10133000C9C9CF93C42F91E09093EC0180930A0622
:1013400050E085E992E00E94B33AC093D701CF9173
:101350000895282FCB01223741F4609182017091CA
:1013600083012CD710926F013CC0223529F4609183
:101370007D0170917E0134C0253419F420917F01E4
:1013800004C0293431F420916F01FC01208381E0F5
:101390000895243651F420E1EFEEF1E0DB010190F5
:1013A0000D922A95E1F780E10895223629F460E054
:1013B0000E949B0087E108952A3629F460918001FC
:1013C000709181010DC0213429F4609177017091F1
:1013D000780106C02A3439F46091790170917A015C
:1013E000EDD682E008952E3451F42AE0E0E4F1E0F5
:1013F000DB0101900D922A95E1F78AE0089580E0E3
:1014000008951F920F920FB60F9211248F93339964
:1014100003C081E0809367018F910F900FBE0F9002
:101420001F9018951F920F920FB60F9211242F93B1
:101430003F934F935F936F937F938F939F93AF935C
:10144000BF93EF93FF9380916E01882339F01E9B29
:1014500004C081E00E94070101C041981E9903C0A9
:1014600081E080936501FF91EF91BF91AF919F91D2
:101470008F917F916F915F914F913F912F910F903D
:101480000FBE0F901F9018951F920F920FB60F92DC
:1014900011248F9381E0809366018F910F900FBE8E
:1014A0000F901F9018954AD04CD08823A9F08091B6
:1014B0001B018F5FA5D0BAD090E020911B01309125
:1014C0001C012F5F3F4F8217930721F481E098D0D2
:1014D00081E008958EEF94D080E008958823A1F0F4
:1014E00088E090E090931C0180931B01DCDF811168
:1014F00020C02FEF83EC99E0215080409040E1F72D
:1015000000C00000D0DF15C0A6D0F8D0882389F035
:101510005DD1282F30E030931C0120931B0140D176
:1015200055D1813019F38FEF9FEF90931C01809379
:101530001B0180911B0190911C01089539984198DD
:101540000895F894399840E251EA67E070E085E048
:101550008A95F1F7000096B1892F827091FD06C03F
:10156000415051096109710991F71BC0399A41989D
:10157000EFEBF3E03197F1F700C0000039983998AC
:10158000419AFAEBFA95F1F700C086B18695817021
:1015900091E08927E3E3F3E03197F1F700C0000021
:1015A00078940895F894399A419880FF08C080E1B2
:1015B0008A95F1F739988AEA8A95F1F709C080EAA5
:1015C0008A95F1F739983998419A8AE18A95F1F725
:1015D00000C078940895F894399A419880E18A95EA
:1015E000F1F739983998419A98E19A95F1F786B1CF
:1015F00092E99A95F1F700C07894869581700895E4
:101600000F931F93CF93DF93082FC8E0D0E011E032
:1016100081E0902F912309F480E0C4DF110F21971E
:10162000B9F7DF91CF911F910F9108950F931F93F9
:10163000CF93DF9308E010E0C0E0D1E0CCDF811170
:10164000CD2BDD0F01501109C9F78C2FDF91CF9100
:101650001F910F91089526982E980895269823B1EA
:1016600026FB222720F9462F572FBC0193B181E09A
:10167000392F307496FF80E0281791F041155105FD
:101680006105710519F4789480E00895311106C060
:101690004150510961097109282FE8CF81E008956F
:1016A000411551056105710599F7EDCF269823B1D4
:1016B00026FB222720F9462F572FBC0193B181E04A
:1016C000392F307496FF80E0281791F041155105AD
:1016D0006105710519F4789480E00895332331F0A1
:1016E0004150510961097109282FE8CF81E008951F
:1016F000411551056105710599F7EDCFF8942698CC
:1017000026982E9A60E271EA87E090E0A7DF8823AE
:1017100079F085E58A95F1F70000269A2E9887E101
:1017200091E00197F1F700C00000269826982E9AC4
:10173000789481E00895CF93C82FF894269826983E
:101740002E9A60E970ED83E090E0B0DF882371F0BD
:10175000C0FF04C088E78A95F1F708C0269A2E9842
:1017600088E78A95F1F7269826982E9A789481E052
:10177000CF910895F894269826982E9A60E970EDF6
:1017800083E090E093DF882341F088E78A95F1F7C2
:1017900083B186FB882780F901C080E078940895A2
:1017A0000F931F93CF93DF93082FC8E0D0E011E091
:1017B00081E0902F912309F480E0BDDF110F219784
:1017C000B9F7DF91CF911F910F9108950F931F9358
:1017D000CF93DF9308E010E0C0E0D1E0CBDF8111D0
:1017E000CD2BDD0F01501109C9F78C2FDF91CF915F
:1017F0001F910F9108952F923F924F925F926F9297
:101800007F928F929F92AF92BF92CF92DF92EF9290
:10181000FF920F931F93CF93DF93CDB7DEB76097FF
:101820000FB6F894DEBF0FBECDBF8C017E836D83F3
:1018300082E090E0D8018D939C93642F70E080E06B
:1018400090E00E943037F801668377838087918724
:101850002BED3FE049E450E40E94BE376B017C0170
:101860002D813E81B90180E090E00E9430379B01DC
:10187000AC01C701B6010E949C360E9427384B017B
:101880005C01D8011A966D937D938D939C931D975F
:101890009B01AC010E94BE376B017C01F801668799
:1018A0007787808B918BA5019401C501B4010E94BB
:1018B00038366F83788789879A87A701960160E019
:1018C00070E080E89FE30E9437369B01AC010E94E4
:1018D00038366B877C878D879E87188B0F87212CE6
:1018E000312CB101032C000C880B990B0E9432376C
:1018F0009B01AC010E94383620E030E040E85FE315
:101900000E9438362BED3FE049E450E40E94BE3798
:1019100020E030E040E05EE30E94BE370E942138C4
:1019200069837A838B839C832F81388549855A8587
:101930000E94BE372B013C019B01AC01C701B601DF
:101940000E94383620E030E040E85FE30E943836FD
:101950004B015C019B01AC01C701B6010E949C36A2
:10196000AF85B88956966D937D938D939C935997C7
:10197000A50194016B857C858D859E850E949C3692
:10198000EF85F889668F778F80A391A3A3019201D9
:10199000C701B6010E94373620E030E040E85FE33F
:1019A0000E9438369058A50194010E949C36AF855C
:1019B000B88996966D937D938D939C939997FD012D
:1019C00016A617A610AA11AAD6961D921D921D92B0
:1019D0001C92D997FE961082118212821382BFEF59
:1019E0002B1A3B0AEF85F8893496F88BEF87F2E0E3
:1019F0002F16310409F075CF89819A81AB81BC81A2
:101A0000F801828B938BA48BB58B82829382A48204
:101A1000B582EA5BFF4F2D813E812C30310518F4F1
:101A20001182108204C081E090E0918380836096EF
:101A30000FB6F894DEBF0FBECDBFDF91CF911F91DF
:101A40000F91FF90EF90DF90CF90BF90AF909F905D
:101A50008F907F906F905F904F903F902F90089560
:101A60002F923F924F925F926F927F928F929F92AE
:101A7000AF92BF92CF92DF92EF92FF920F931F939C
:101A8000CF93DF9300D000D000D0CDB7DEB77E83F8
:101A90006D83BC0180E090E00E9430376B017C01D7
:101AA000ED81FE81EA5BFF4F80819181892B09F4F2
:101AB00071C0AD81BE812D903C9000E010E08D8121
:101AC0009E8104969E838D83021513050CF062C0DF
:101AD000ED81FE8142A853A864A875A882AD93AD9C
:101AE000A4ADB5AD89839A83AB83BC83228D338D3E
:101AF000448D558DC301B2010E94BE374B015C017C
:101B0000ED81FE8122A133A144A155A169817A8191
:101B10008B819C810E94BE379B01AC01C501B40141
:101B20000E943836A70196010E9438364B015C01AD
:101B3000AD81BE819A966D937D938D939C939D9775
:101B4000A3019201C301B2010E943836A50194019C
:101B50000E94383629813A814B815C810E94383657
:101B6000ED81FE8122893389448955890E94BE37DF
:101B70006B017C01AD81BE81DA964D925D926D92D2
:101B80007C92DD97FD0182AA93AAA4AAB5AA0F5F51
:101B90001F4F95CFC701B6010E940437CB0126968F
:101BA0000FB6F894DEBF0FBECDBFDF91CF911F916E
:101BB0000F91FF90EF90DF90CF90BF90AF909F90EC
:101BC0008F907F906F905F904F903F902F900895EF
:101BD000680F791F20E030E08617970789F0FC0135
:101BE0004191CF01342748E050E037FF03C020582F
:101BF000F3E83F27220F331F41505109B1F7ECCFD3
:101C0000832F08953D9A459845983C9A4498449866
:101C1000BFC36998719868987098C8C38DE3809322
:101C200065008FEF8093640094B114B895B185B9C5
:101C300097B1907897B998B19F6798B99AB11AB847
:101C40009BB18BB98DB1807F8DB98EB18F608EB90C
:101C500026982E98279827982F9A38984098399840
:101C600041983A9A429A3B983B98439A53985B988A
:101C700055985D986B9A739A40E060E881E690E031
:101C800000D313BE15BEA1D3BDDFC3DF5498529855
:101C900050986A98569857982098219822980895B5
:101CA000CF92DF92EF92FF920F931F93CF93DF9328
:101CB000EC016B017A01649F8001659F100D749F98
:101CC000100D1124C8010E94923999838883080F4E
:101CD000191F1B830A83DD82CC821F821E82F98634
:101CE000E8869B878A879D878C87DF91CF911F919C
:101CF0000F91FF90EF90DF90CF900895CF93DF93F7
:101D0000EC018E819F812C813D8148855985821708
:101D1000930791F42C853D85240F351F3D872C8733
:101D2000EA81FB812E173F0721F4288139813D8705
:101D30002C8701979F838E838A859B850E94B33A67
:101D40002A853B8588859985820F931F9B878A8783
:101D50002A813B818217930721F4888199819B878F
:101D60008A878E819F8101969F838E83DF91CF9199
:101D700008950EC31092BC0094EA9093BC00909119
:101D8000BC0097FFFCCF9091B900987F983011F07C
:101D900081E008958093BB0084E88093BC0081EAD1
:101DA00096E8A1E0B0E02091BC0027FD04C00197B7
:101DB000A109B109C1F78091B900887F883111F07C
:101DC000803431F780E008958093BB0084E88093ED
:101DD000BC0081EA96E8A1E0B0E02091BC0027FDBC
:101DE00004C00197A109B109C1F79091B900987F8A
:101DF00081E0983209F480E0089584EC8093BC007F
:101E000081EA96E8A1E0B0E02091BC0027FD04C083
:101E10000197A109B109C1F78091BB00089584E839
:101E20008093BC0081EA96E8A1E0B0E02091BC007C
:101E300027FD04C00197A109B109C1F78091BB003A
:101E4000089584E98093BC0008959FEF9093D60194
:101E5000880F8093DA0085EC8093DC0008951F9250
:101E60000F920FB60F9211242F933F934F935F93CE
:101E70006F937F938F939F93AF93BF93EF93FF9352
:101E80008091D900887F883909F4A0C0F0F48037A8
:101E900009F4A1C088F4882309F498C0803609F0B9
:101EA0009AC08FEF8093D601109287011092D801CB
:101EB00081E0809386018FC0883809F487C080391B
:101EC000B1F0803809F087C012C0883B09F468C0BF
:101ED00038F4803A09F47FC0883A09F441C07BC0E5
:101EE000883C09F473C0883F09F075C06FC08091C9
:101EF000DB002091D6012F3F31F48093D60145D1EC
:101F0000811169C01DC09091D801E92FF0E0E7511F
:101F1000FA4F80839F5F9093D80180918501981735
:101F200078F080918501981307C04091850169EE92
:101F300075E0822FFED904C08091DC0085684CC01A
:101F40008091D601F4D08093850180918501811123
:101F500042C040E069EE75E08091D601EAD93BC00D
:101F60008091D60112D1882321F0809186018111C0
:101F700003C082E78093D60165E772E08091D601C5
:101F8000E8D9809384011092860180917502809334
:101F9000DB0081E0809387018091DC00856C1CC0B0
:101FA000E091870180918401E81760F4F0E0EB583C
:101FB000FD4F80818093DB00809187018F5F80934C
:101FC000870109C08FEF8093DB0005C08091DC00A2
:101FD0008B7B8093DC0085EC8093DC00FF91EF919C
:101FE000BF91AF919F918F917F916F915F914F9131
:101FF0003F912F910F900FBE0F901F901895009753
:1020000041F0EFECF7E03197F1F700C000000197E5
:10201000F6CF08951F93CF93DF93162FC82FD0E0EC
:10202000CE01D3D0811731F0612FCE01DF91CF9156
:102030001F91D2C0DF91CF911F910895FC0190E0D4
:1020400020E030E0961731F041915191240F351F77
:102050009F5FF8CF692F70E0C9010E94DA38CB0189
:1020600008950F931F93CF93DF93C42FD22F739AAA
:102070008B01CB01C4DFDD23B1F0CF3FA1F44CD104
:10208000C0E0C33608F0C0E08C2F5FD1C801B7DFD5
:10209000CF5FF7CFC801B3DF7398C801B0DF739A81
:1020A0001C160CF4C150C111F5CFDF91CF911F91D7
:1020B0000F91089591E0833609F490E0892F0895F7
:1020C0001F920F920FB60F92112440980F900FBEDF
:1020D0000F901F9018951F920F920FB60F92112418
:1020E00073980F900FBE0F901F9018951F920F922C
:1020F0000FB60F921124739A0F900FBE0F901F907E
:1021000018951F920F920FB60F921124409A0F90BC
:102110000FBE0F901F9018951F920F920FB60F923F
:10212000112400000F900FBE0F901F901895893654
:1021300011F194E9980F9230F0F0982F9F7D91352E
:10214000D1F08130C1F09734B1F08C34B1F08234E9
:10215000A1F08F3691F0982F9B7F913671F08837E0
:1021600061F0803761F0833261F08C3351F08E364C
:1021700051F480E1089581E0089582E0089584E0BB
:10218000089586E0089580E00895982F9F7D923508
:1021900099F0843689F0982F977F923669F097EB03
:1021A000980F923048F08E3439F0982F9B7F81E061
:1021B000913419F080E0089581E00895FC01708366
:1021C000618308951FBA80E00895F999FECF92BD0A
:1021D00081BDF89A80B50895F999FECF92BD81BD71
:1021E00060BD0FB6F8940F92FA9AF99A0F900FBE4D
:1021F00080E00895CF92DF92EF92FF920F931F93AA
:10220000CF93DF938B017A01EB016C01C61AD70AD9
:10221000C6018C0F9D1F2C2F201B30E02E153F0573
:1022200018F4D3DF8993F4CFDF91CF911F910F91F1
:10223000FF90EF90DF90CF900895CF92DF92EF92D2
:10224000FF920F931F93CF93DF938B017A01EB01E2
:102250006C01C61AD70AC6018C0F9D1F2C2F201B9C
:1022600030E02E153F0518F46991B6DFF4CF80E019
:10227000DF91CF911F910F91FF90EF90DF90CF9062
:1022800008952FB7F894FC01608340832FBF089511
:10229000EAE7F0E080818F77808380E880BFEEE717
:1022A000F0E080818F638083089583B7817F83BF4F
:1022B00083B7816083BF83B7816083BF889583B70D
:1022C0008E7F83BF83B78E7F83BF0895E4E6F0E0FF
:1022D0008081877F80838BE08093810083E690E01C
:1022E000909389008093880080E490E090938B0025
:1022F00080938A0086E080936F0080E008958336A3
:1023000008F082E690E090938B0080938A00089515
:1023100088E0809381000895E5E6F0E080818E7F7B
:1023200080838BE08093910083E690E09093990006
:102330008093980080E490E090939B0080939A00B3
:1023400086E08093710080E00895833608F082E68D
:1023500090E090939B0080939A00089588E080938A
:1023600091000895E5E6F0E08081877F808384E036
:102370008093A10081E08093720080E00895109224
:10238000A5001092A400089588E08093A10008950C
:10239000E4E6F0E080818F77808384E08093BC0066
:1023A00082E08093B8001092B9000895E5E6F0E06D
:1023B00080818F7D808385E48093DC008FE0809333
:1023C000DA001092DD0080E0089584B7877F84BF33
:1023D00041E268E180E690E054DF80E008952F92CA
:1023E0003F924F925F926F927F928F929F92AF92A5
:1023F000BF92CF92DF92EF92FF920F931F93CF93F2
:10240000DF93CDB7DEB760970FB6F894DEBF0FBE8F
:10241000CDBF3C01562E302E212E2F87388B809138
:102420003D0190913E01A0913F0189839A83AB8346
:10243000413031F0423011F481E003C082E001C04C
:1024400080E0E1E0F0E0EC0FFD1FE80FF11D4080BF
:10245000CE0101967C018E010B5F1F4F9E01275F0D
:102460003F4FAE01435F5F4F642DC3010E94B11E19
:10247000811124C089809A80AB80BC80CD80DE80B1
:10248000EF80F88409851A852B853C854D855E850E
:1024900098899F93EF85EF932F923F92642DC3010C
:1024A0000E94EC1E0F900F900F900F90811106C0AC
:1024B00090E2F3019283E65EFC4F508260960FB685
:1024C000F894DEBF0FBECDBFDF91CF911F910F916A
:1024D000FF90EF90DF90CF90BF90AF909F908F9044
:1024E0007F906F905F904F903F902F90089540E2C3
:1024F00053E060E070E00C946A314F925F926F920B
:102500007F92AF92BF92CF92DF92EF92FF920F93A2
:102510001F93CF93DF93CDB7DEB72E970FB6F89406
:10252000DEBF0FBECDBF413826E9520728E962075A
:10253000710508F065C02A013B015C01AE01425FF4
:102540005F4F65E00E94C61D81115BC0AE01435F15
:102550005F4F66E0C5010E94C61D811152C09E01F9
:10256000275F3F4FAE014B5F5F4FBE016F5F7F4FF5
:10257000C5010E94421D811144C08E85813041F009
:102580008D85813029F088EE93E0A0E0B0E004C0B2
:1025900088E893E1A0E0B0E084159505A605B705AD
:1025A00078F573016201C81AD90AEA0AFB0AC986DA
:1025B000DA86EB86FC8681E4C81682E4D8068FE0D2
:1025C000E806F104E8F40D811E812F8138854981E8
:1025D0005A816B817C81C5010E94F61C811111C05A
:1025E00049855A856B857C85F501458756876787C0
:1025F000708BE35EFC4F408251826282738201C025
:102600008CEF2E960FB6F894DEBF0FBECDBFDF91D4
:10261000CF911F910F91FF90EF90DF90CF90BF90DF
:10262000AF907F906F905F904F900895CF92DF9220
:10263000EF92FF92CF93DF93EC016A017B01CB0114
:10264000BA0126E0660F771F881F991F2A95D1F7D8
:1026500028EE33E040E050E00E94EE38BA01A901D4
:102660004C0D5D1D6E1D7F1DCE01DF91CF91FF9042
:10267000EF90DF90CF900C94DC1C7F928F929F9212
:10268000AF92BF92CF92DF92EF92FF920F931F9380
:10269000CF93DF93EC01742E48015901A0DE811124
:1026A00021C0FE01E45EFC4F7082A8EEB3E0A501FC
:1026B00094010E942C39AB01BC01CE011EDF8111B7
:1026C00011C0B701A601CE01DF91CF911F910F91EB
:1026D000FF90EF90DF90CF90BF90AF909F908F9042
:1026E0007F90A4CFDF91CF911F910F91FF90EF903A
:1026F000DF90CF90BF90AF909F908F907F90089584
:10270000CF92DF92EF92FF920F931F9320E2FC0192
:102710002283E45EFC4F23E020833197208328EE60
:10272000C22E23E0D22EE12CF12C09E210E020E0B1
:1027300030E043E064E0A1DF1F910F91FF90EF9044
:10274000DF90CF900895FF920F931F93CF93DF9365
:102750008C016230710580F4442381F0FB01EE0F9F
:10276000FF1FEE0FFF1FE80FF91FEB5DFC4F80818D
:102770009181A281B38105C08CEF2BC080E090E0F5
:10278000DC01F42EEB016130710569F0BC01CD0173
:102790003EE096958795779567953A95D1F7C8016C
:1027A0000E94A1200CC0BC01CD0129E0969587951F
:1027B000779567952A95D1F7C8010E94B220C00F7E
:1027C000D11FCF5DDC4F81E0F11001C080E0888334
:1027D00080E0DF91CF911F910F91FF900895CF92EC
:1027E000DF92EF92FF920F931F93CF93DF936230AC
:1027F0007105A8F569017A01EB018C01FC01E60F76
:10280000F71FEF5DFC4F808181110EC0CC0FDD1FE3
:10281000CC0FDD1FC00FD11FCB5DDC4FC882D9822A
:10282000EA82FB8280E01CC0CA01B901C130D10537
:1028300059F03EE096958795779567953A95D1F74B
:10284000C8010E94A120E2CF29E09695879577954F
:1028500067952A95D1F7C8010E94B220D7CF8CEF97
:10286000DF91CF911F910F91FF90EF90DF90CF906C
:1028700008950F931F93CF93DF931F92CDB7DEB7C9
:102880008C01AE014F5F5F4F6EE270E00E94BE337D
:10289000811115C04981416049836EE270E0C80131
:1028A0000E94A83381110BC061E0C8010E94B21FD1
:1028B000811105C094E0F801E65EFC4F9083198217
:1028C0006981623050F481111CC070E041E0C801A0
:1028D0003ADF99819F5F9983F3CF811112C020E085
:1028E00030E042E150E060E070E0C80178DF811143
:1028F00008C020E030E440E050E061E070E0C80152
:102900006EDF0F90DF91CF911F910F910895CF92BD
:10291000DF92EF92FF920F931F93CF93DF9300D03C
:1029200000D0CDB7DEB76C018B017A01611571055E
:10293000A9F06130710509F056C0BE016D5F7F4F8F
:102940000E94A8204B815C8160E070E029E0440F88
:10295000551F661F771F2A95D1F710C0BE016F5F04
:102960007F4F0E94972049815A8160E070E03EE0ED
:10297000440F551F661F771F3A95D1F7811134C058
:102980009801220F331F220F331F0C0D1D1D4115FF
:1029900051056105710599F4C20ED31EF601EB5D78
:1029A000FC4F4081518162817381F70140835183E3
:1029B00062837383F801EF5DFC4F108215C0F7014D
:1029C0004083518362837383C20ED31EF601EB5D95
:1029D000FC4F4083518362837383F801EF5DFC4FAA
:1029E00091E0908301C08CEF0F900F900F900F90AB
:1029F000DF91CF911F910F91FF90EF90DF90CF90DB
:102A00000895CF93DF9300D000D0CDB7DEB7FC019F
:102A1000DB017C9111969C91119712962C91129743
:102A200013963C91703140F4903130F4203148F4E9
:102A3000303110F480E001C08CEF271718F48CEFD0
:102A400025C08CEF9317D8F38111F9CF472F50E0B1
:102A5000420F511D4F5F5F4F559547954983432F57
:102A600050E0490F511D4F5F5F4F559547954A8381
:102A7000271B2B83931B9C83233008F39330F8F29E
:102A8000CF01BE016F5F7F4F0E94E41D0F900F903A
:102A90000F900F90DF91CF910895EF92FF920F93D7
:102AA0001F93CF93DF9300D000D0CDB7DEB78B015B
:102AB000BE016F5F7F4F0E94FE1D498150E0BA0149
:102AC000660F771F4B8150E09B01241B350B35951A
:102AD0002795D8012C932A8130E0220F331FEC81F7
:102AE000F0E0D901AE0FBF1F7D01F594E794D80146
:102AF0001196EC921197460F571F559547951296D0
:102B00004C9312972E1B3F0B3595279513962C93BC
:102B10000F900F900F900F90DF91CF911F910F9119
:102B2000FF90EF90089546E0FC0162810C94B9207B
:102B30000C94D521FC0162810C94602240ED57E099
:102B400060E070E00C949A318F929F92AF92BF92A6
:102B5000DF92EF92FF920F931F93CF93DF93CDB746
:102B6000DEB7CB57D1090FB6F894DEBF0FBECDBF8D
:102B70007C018B0143E150E06FEF70E0C8010E94DF
:102B8000BC3AAE014F5F5F4F62E0C7010E948223F3
:102B9000D82E8111B8C08B81F80180838C819DADC6
:102BA0009F71EC969FAFEC974BA55CA560E070E041
:102BB00099E0440F551F661F771F9A95D1F74283FE
:102BC0005383648375838FA498A8A12CB12C29E02A
:102BD000880C991CAA1CBB1C2A95D1F78682978267
:102BE000A086B18629893A89338722878FA898AC35
:102BF000A12CB12C39E0880C991CAA1CBB1C3A955D
:102C0000D1F784869586A686B7862BAD3CAD318BF1
:102C1000208B8D3041F020F48150833038F402C095
:102C2000813121F485E0F801828B02C0F801128A1B
:102C3000F801828981110EC0EC96EFADEC97E4505B
:102C4000E03128F4F0E0E55BFE4F808101C08FEFBA
:102C5000F801828BF701E35DFC4F80829182A282B2
:102C6000B38234964083518362837383AE014958A3
:102C70005F4F60E070E0C7014ADEF701EF5DFC4F97
:102C80008081813029F4EC96FFADEC97F63009F0A5
:102C900080E0F701ED5DFC4F8083AE0149585F4F46
:102CA00061E070E0C70133DEF701EE5DFC4F80812B
:102CB000813029F4EC969FADEC97943009F080E0D8
:102CC000F701EC5DFC4F8083F801828981111BC004
:102CD0008089918997FF17C0092E000CAA0BBB0BA6
:102CE00040912101509122016091230170912401B2
:102CF00084179507A607B7071CF48EE0828B03C0E4
:102D0000F801118A108A8D2DC558DF4F0FB6F8943F
:102D1000DEBF0FBECDBFDF91CF911F910F91FF900E
:102D2000EF90DF90BF90AF909F908F9008959F920B
:102D3000AF92BF92CF92DF92EF92FF920F931F93C9
:102D4000CF93DF93CDB7DEB76B970FB6F894DEBFA6
:102D50000FBECDBF5C0185E0898F83E08A8FF501CE
:102D6000E65EFC4F9080BE01655E7F4FC501C2D418
:102D700081110EC098EEC92E93E0D92EE12CF12CD2
:102D800009E210E020E030E043E0692DC50175DC88
:102D9000833E09F0C1C0C5010E9488278111BCC0D3
:102DA000C5010E9493278111B7C04AEF50E060E04F
:102DB00070E0C5010E94D4338111AEC041E061E8EA
:102DC00077E0C5010E94A8338111A6C045E063E801
:102DD00076E0C5010E94A83381119EC042E350E015
:102DE00060E070E0C5010E94D433811195C041E0DC
:102DF00060E877E0C5010E94A83381118DC044E0EE
:102E000050E064E877E0C5010E94B333811184C0CB
:102E1000CE0101966C0188E2F82E4F2D64E977E02F
:102E2000C5010E94A833811123C040E063E877E028
:102E3000C5010E94A83381111BC045E050E060E04D
:102E400070E0C5010E94D433811112C041E063E8F3
:102E500077E0C5010E94A83381110AC004E010E0A8
:102E600020E030E0A60160E977E0C5010E943F3331
:102E700094E0C90ED11CF394EEE2FE1619F0811114
:102E8000F7CFCBCF811148C041E063E877E0C501BF
:102E90000E94A833811140C040E061E877E0C5019D
:102EA0000E94A833811138C0C5010E949527811165
:102EB00033C0C5010E94862781112EC002E010E0B8
:102EC00020E030E0AE01475E5F4F64E170E0C50195
:102ED0000E94D632811120C0898DF50184A78A8D88
:102EE00085A706E010E020E030E0AE014F5E5F4FC6
:102EF0006DE070E0C5010E94D63281110DC0998944
:102F0000F50195A39A8996A39B8997A39C8990A77D
:102F10009D8991A79E8992A76B960FB6F894DEBF04
:102F20000FBECDBFDF91CF911F910F91FF90EF901A
:102F3000DF90CF90BF90AF909F900895611102C035
:102F40000C9485200C9440202F923F924F925F92D8
:102F50006F927F928F929F92AF92BF92CF92DF92A9
:102F6000EF92FF920F931F93CF93DF93CDB7DEB70E
:102F7000A3970FB6F894DEBF0FBECDBF7C01488F7C
:102F8000598F6A8F7B8FDC01D7961C921E92D69741
:102F9000D9961C921E92D897DB961C921E92DA97B5
:102FA000C0903901D0903A01809131019091320165
:102FB0001C0197FF03C0BFEF2B1A3B0A35942794DF
:102FC00091012F5F3F4F280E391E412C512C3201A9
:102FD0001C8A1D8A1E8A1F8A10E0AC01990F660B9D
:102FE000770B4C8F5D8F6E8F7F8FB901330F880BFE
:102FF000990B68A379A38AA39BA31C141D043CF01E
:103000008C899D89AE89BF89B7FF6FC0ADC0111192
:10301000F7CFC70188DD182F811150C0C7018EDDA1
:10302000182F81114BC0BE016F5F7F4FC7018CDD30
:10303000182F811143C0C7017DDD182F812C912CE1
:10304000540100E011113DC04C8D5D8D6E8D7F8D62
:1030500084169506A606B706A4F5802F90E0821583
:1030600093057CF5C7016ADD182F811125C0BE01CB
:103070006F5F7F4FC70168DD182F81111DC08B89DD
:10308000811117C089899A89092E000CAA0BBB0BE4
:103090002C893D894E895F89280F391F4A1F5B1F84
:1030A0002C8B3D8B4E8B5F8B3FEF831A930AA30AC9
:1030B000B30AC7013FDD182F0F5FC4CF812C912CBD
:1030C0005401480C591C6A1C7B1C68A179A18AA177
:1030D0009BA186169706A806B9060CF418EEC70140
:1030E00027DD71E0C71AD10888CFAFEFBFEFA3018A
:1030F00092010E942C392C893D894E895F89621783
:1031000073078407950784F111112FC041145104EE
:103110006104710451F1D301C201B595A79597954A
:103120008795280F391F4A1F5B1FCA01B901A301E8
:1031300092010E941039888D998D821B930BD701C3
:10314000D7961C921E92D697D9969C938E93D89719
:10315000DB969C938E93DA97B7016B5D7F4FC70127
:103160000E94932C182F01C010EE812FA3960FB64A
:10317000F894DEBF0FBECDBFDF91CF911F910F91AD
:10318000FF90EF90DF90CF90BF90AF909F908F9087
:103190007F906F905F904F903F902F900895CF93C6
:1031A000DF93CDB7DEB7C156D1090FB6F894DEBFB5
:1031B0000FBECDBF28E0FB017996DE015C96019041
:1031C0000D922A95E1F7FB0121A132A13DA32CA389
:1031D00023A134A13FA32EA32AE3B596DE0198963E
:1031E00001900D922A95E1F7FB01218532853F87F9
:1031F0002E8720812D8321812E8322812F8323817D
:1032000028872481298725812A8726812B87278162
:103210002C8720852D8725853685398B288B27851A
:1032200030893B8B2A8B218932893D8B2C8B2389DA
:1032300034893F8B2E8B25893689398F288F2789B2
:10324000308D3B8F2A8FBE016F5F7F4F07D3CF59E1
:10325000DF4F0FB6F894DEBF0FBECDBFDF91CF9129
:1032600008950F931F93CF93DF93CDB7DEB7C15669
:10327000D1090FB6F894DEBF0FBECDBF8B01BE01E2
:103280006F5F7F4F4BD398E0FE017C96D801599633
:1032900001900D929A95E1F72CA13DA1F80132A37E
:1032A00021A32EA13FA134A323A39AE3FE01B89644
:1032B000D801959601900D929A95E1F79D81F801BC
:1032C00090839E8191839F81928398859383998532
:1032D00094839A8595839B8596839C8597839D850A
:1032E000908728893989368725872A893B89308BB9
:1032F00027872C893D89328B218B2E893F89348BFE
:10330000238B288D398D368B258B2A8D3B8D308FE5
:10331000278B4E855F8560E070E041875287638729
:103320007487CF59DF4F0FB6F894DEBF0FBECDBF05
:10333000DF91CF911F910F9108952F923F924F925D
:103340005F926F927F928F929F92AF92BF92CF9235
:10335000DF92EF92FF920F931F93CF93DF93CDB73E
:10336000DEB7CB57D1090FB6F894DEBF0FBECDBF85
:1033700014161506160617060CF041C140932501D8
:10338000509326016093270170932801FC01E65EAB
:10339000FC4F2081243009F02EC18C01809029013E
:1033A000EC968FAEEC97B1D681112AC1C801BBDB78
:1033B000C801C4DBC801BEDBC801C0DBC801BADB81
:1033C00081111EC1E4961FAEE497812C912C54010B
:1033D000412C512C3201C12CD12C7601EB961CAE24
:1033E0001DAE1EAE1FAEEB97E4965FADE497EC9674
:1033F0008FADEC97581708F045C0C8019FDBBE01A0
:10340000605A7F4FC801A0DBC80194DBE3968FAD03
:10341000E39781112FC0E2968EAD9FADE297092E02
:10342000000CAA0BBB0BEB962CAD3DAD4EAD5FADCA
:10343000EB97280F391F4A1F5B1FEB962CAF3DAF50
:103440004EAF5FAFEB97A6968CAD9DADAEADBFAD69
:10345000A697480E591E6A1E7B1EAC962FACAC97E1
:10346000312CC20CD31CE11CF11C3FEF831A930AD0
:10347000A30AB30AE4964FADE4974F5FE4964FAFCB
:10348000E497B2CFC80191D781149104A104B1048B
:1034900009F4B3C0C60177276627A50194010E94ED
:1034A000EE3869017A0190E8D90EE11CF11C670140
:1034B000EE24FF242091250130912601409127011F
:1034C00050912801E7962CAF3DAF4EAF5FAFE79725
:1034D000C114D104E104F10409F462C0232B242BAC
:1034E000252B09F45DC0EB962CAD3DAD4EAD5FAD27
:1034F000EB97C90177276627A50194010E94EE3852
:10350000EB962CAF3DAF4EAF5FAFEB97E7962CAD90
:103510003DAD4EAD5FADE797D90199278827EB9672
:103520002CAD3DAD4EAD5FADEB97281739074A077F
:103530005B07B0F5C301B201A50194010E94EE380A
:10354000CA01B901A70196010E94EE3869017A010A
:10355000EB966CAD7DAD8EAD9FADEB97E7962CAD48
:103560003DAD4EAD5FADE7970E94EE3880E090E054
:10357000A1E0B0E04C015D01821A930AA40AB50AE9
:10358000A5019401C701B6010E94CB386B017C01F3
:1035900020E8D20EE11CF11C6701EE24FF2403C0D9
:1035A000C12CD12C7601BE016F5F7F4FC80159DE5F
:1035B000811126C0D701C601805C9F4FAF4FBF4F1E
:1035C0009C01AD0187E056954795379527958A95DB
:1035D000D1F7A8EEB3E00E942C396A877B878C87ED
:1035E0009D87BE016F5F7F4FC801D9DD811108C083
:1035F000C80146D505C088EF03C08AEE01C08CEF34
:10360000C558DF4F0FB6F894DEBF0FBECDBFDF91B8
:10361000CF911F910F91FF90EF90DF90CF90BF90CF
:10362000AF909F908F907F906F905F904F903F9062
:103630002F900895CF92DF92EF92FF920F931F93F6
:10364000CF93DF9300D01F92CDB7DEB77C01162F4A
:103650001B82AE014D5F5F4F60E370E00E94BE339E
:10366000970128563E4F6901811134C08B81F701C3
:10367000EE5BFE4F8083612FC7010E947827811186
:1036800029C0C7010E94B831811124C002E010E0B6
:1036900020E030E0AE014F5F5F4F69E870E0C701A6
:1036A0000E943F33811106C09981F60190839A816F
:1036B00031969083F60190819F71908381110EC0A5
:1036C000C7010E949727811109C060E0C7010E94CD
:1036D000782704C0F60190819F7190830F900F901E
:1036E0000F90DF91CF911F910F91FF90EF90DF909E
:1036F000CF9008954F925F926F927F928F929F9298
:10370000AF92BF92CF92DF92EF92FF920F931F93EF
:10371000CF93DF9300D000D000D0CDB7DEB74C01FF
:103720003B010E949327811180C0F401E05DFE4FB0
:10373000A080B18024018EEE480E511CF201C0849D
:10374000D184E284F384068117812281338144810C
:1037500055816181C4010E949529811166C0F201E1
:103760006081C40167DF811160C002E010E020E0E9
:1037700030E0AE014F5F5F4F69ED70E0C4010E9421
:103780003F33811152C08981F401EC59FD4F808390
:103790008A813196808302E010E020E030E0AE01C3
:1037A0004F5F5F4F64E170E0C4010E94D632811127
:1037B0003CC08981F40184A78A8185A706E010E0D6
:1037C00020E030E0AE014F5F5F4F6CEA70E0C40173
:1037D0000E943F33811129C006E010E020E030E074
:1037E000AE014F5F5F4F6DE070E0C4010E94D632C2
:1037F00081111BC09981F40195A39A8196A39B81A5
:1038000097A39C8190A79D8191A79E8192A7E8563E
:10381000FE4F90819F3031F0903131F09E3029F48D
:1038200084EE03C083EE01C082EEF301808326960E
:103830000FB6F894DEBF0FBECDBFDF91CF911F91C1
:103840000F91FF90EF90DF90CF90BF90AF909F903F
:103850008F907F906F905F904F900895CF93DF93FC
:10386000EC01DC019596FB01349687E101900D9205
:103870008A95E1F7DE01AA58BF4FFB017B9688E0ED
:1038800001900D928A95E1F7FE01E258FF4FDB01AE
:1038900095968D919C91969791838083DE01DC961D
:1038A000FB01B7968AE301900D928A95E1F76EA528
:1038B0007FA580E090E0FE01EC5FFE4F60837183A6
:1038C00082839383349628A939A931832083329641
:1038D0002AA93BA9318320833A962081211107C070
:1038E0001FA61EA619AA18AA1BAA1AAA13C0FE016F
:1038F000EB5EFE4F408151810E94402861157105A9
:10390000B1E08B07910520F06FEF7FEF80E090E052
:103910007FA76EA780E0DF91CF910895CF93DF93CB
:10392000EB01DB011496FC01B59627E101900D92A5
:103930002A95E1F7FC01EC5FFE4F408151816281E5
:1039400073814115510521E06207710528F02FEFC1
:103950003FEF3E872D8702C05E874D87FC01E85F01
:10396000FE4F20813181388B2F8732962081318123
:103970003A8B298BDE015B96E459F10928E001902E
:103980000D922A95E1F7FC01EC57FF4F2081318120
:103990003CA32BA33697208131813EA32DA3DE01CA
:1039A0009796E254F1098AE301900D928A95E1F726
:1039B00080E0DF91CF910895FC01E759FD4FA08190
:1039C000B181109711F481EF0895FC01418B528B66
:1039D000638B748BE558FE4F9A01AB010E942C3922
:1039E000608371838283938380E008954F925F9216
:1039F0006F927F928F929F92AF92BF92CF92DF92FF
:103A0000EF92FF920F931F93CF935C012A013B012A
:103A1000B901A801FC01E05DFE4FA081B1811097C2
:103A200011F481EF1FC0870176019A01AB01C30138
:103A3000B201F501458256826782708621873287FE
:103A400043875487E586F6860787108B4501C5E9CD
:103A50008C1ACEEF9C0ACAEAAC1ACEEFBC0A6D01F2
:103A60000E94D328CF911F910F91FF90EF90DF908C
:103A7000CF90BF90AF909F908F907F906F905F900E
:103A80004F9008958F929F92AF92BF92CF92DF9204
:103A9000EF92FF920F931F93CF93DF93FC01E05DB2
:103AA000FE4F0190F081E02D309711F481EF61C05D
:103AB00089017A016B01EC01DC01AF58BE4F6C91BA
:103AC000CF010E94A1274B015C01FE01E35AFE4F8A
:103AD000608170E080E090E0A50194010E942F28B1
:103AE000F6016083718382839383FE01E559FE4F63
:103AF000808190E0982F882731962081B501A4011C
:103B0000820F911D0E945F28F70160837183828379
:103B10009383FE01E159FE4F808190E0982F882722
:103B200031962081B501A401820F911D0E945F286A
:103B3000F8016083718382839383F6018081918190
:103B4000A281B3818D839E83AF83B887F701808183
:103B50009181A281B38189879A87AB87BC87F8015D
:103B600080819181A281B3818D879E87AF87B88B39
:103B700080E0DF91CF911F910F91FF90EF90DF9048
:103B8000CF90BF90AF909F908F9008959C01683028
:103B9000C8F481E0662329F0062E01C0880F0A943C
:103BA000EAF7F901E057FE4F90818923662331F04F
:103BB00090E002C0959587956A95E2F7FA018083B7
:103BC00080E008958CEF08950F931F93CF93DF93B8
:103BD0008C01EB01AC0142575E4F688189810E94E4
:103BE0007229A80141575E4F6B818A810E948E29FC
:103BF00080E0DF91CF911F910F9108950F931F9354
:103C0000CF93DF938C01EB016F5F7F4FFC01E25795
:103C1000FE4FAE0180810E94132BAE014D5F5F4FBE
:103C2000BE016E5F7F4FF801E157FE4F80810E9419
:103C3000852980E0DF91CF911F910F910895EF9238
:103C4000FF920F931F93CF93DF9300D0CDB7DEB7D2
:103C50007C018B011A821982FC01E351FE4FAE01F7
:103C60004E5F5F4FBE016F5F7F4F80810E94132BBD
:103C70008A81F801808389818183F701E251FE4FB7
:103C80008081982F92959F70F80193838F70828323
:103C900080E00F900F90DF91CF911F910F91FF90D7
:103CA000EF9008950F931F93CF93DF93EC01BC0126
:103CB000655D7E4F0E94982B81111FC0BE016B5D18
:103CC0007F4FCE010E94C32C811117C08E010D536E
:103CD0001E4FB801CE010E943B3181110EC0BE01C2
:103CE00062537F4FC8010E948026AE0147595D4F45
:103CF0006EED70E0CE010E94C933FE01E05DFE4F23
:103D0000208131812115304120F42CEC3CEB3183B2
:103D10002083811105C0BE0160587F4FCE018FDF27
:103D2000DE01AC57BF4F9C91911116C0AE014B57AD
:103D30005F4FFA01908191110FC09E0120583F4FB3
:103D4000F90190819295907F9C93CF57DF4F988196
:103D50009295907FFA019083DF91CF911F910F91FF
:103D60000895EF92FF920F931F936150653070F5A5
:103D7000FC01E655FF4F60817181FA017183608318
:103D8000FC01E255FF4F4081518162817381F9014D
:103D90004083518362837383FC01EA54FF4F408167
:103DA000518162817381F8014083518362837383FF
:103DB000FC01EE53FF4F80819181A281B381F70115
:103DC00080839183A283B38380E001C08CEF1F9135
:103DD0000F91FF90EF9008952F923F924F925F9234
:103DE0006F927F928F929F92AF92BF92CF92DF920B
:103DF000EF92FF920F931F93CF93DF93CDB7DEB770
:103E00002B970FB6F894DEBF0FBECDBF1C016B879A
:103E10005A8349830F83188729873A8726013701F8
:103E200028A139A14AA15BA12B833C834D835E83EA
:103E30006C013AECC31A3EEFD30ABC016A5A7E4FBA
:103E4000AC0145595E4F9C0120583E4F8C010E56E7
:103E50001E4F7C0186E8E80EF11CEB85D10111961E
:103E6000EC93119719964D925D926D927C921C97EE
:103E7000F10185869686A786B08A8B819C81AD816B
:103E8000BE81818B928BA38BB48BFB85F330A9F021
:103E900040F4F13079F0F23009F04AC0C6018ED614
:103EA00011C08B85843061F0853009F041C0C601B6
:103EB0000CD708C0C6019FD505C0C601B5D602C043
:103EC000C601E8D6811135C0E981FA81D601ED93AA
:103ED000FC93D1015696FC93EE93559775016401BE
:103EE000930182014F81588569857A85C1017EDD04
:103EF00081111FC04B815C816D817E81C1012B9638
:103F00000FB6F894DEBF0FBECDBFDF91CF911F91EA
:103F10000F91FF90EF90DF90CF90BF90AF909F9068
:103F20008F907F906F905F904F903F902F9044CDF7
:103F30008CEF2B960FB6F894DEBF0FBECDBFDF918E
:103F4000CF911F910F91FF90EF90DF90CF90BF9096
:103F5000AF909F908F907F906F905F904F903F9029
:103F60002F9008958F929F92AF92BF92CF92DF923F
:103F7000EF92FF920F931F93CF93DF93EC0181E0B9
:103F800089831A828B838C8388EE93E0A0E0B0E073
:103F90008D839E83AF83B88780ED97E0A0E0B0E08B
:103FA00089879A87AB87BC8788EC92E3A0E0B0E072
:103FB0008D879E87AF87B88B84E690E0A0E0B0E065
:103FC000898B9A8BAB8BBC8B80E09AE09E8B8D8B20
:103FD0001C8EFE01E258FF4F8BED97E091838083AA
:103FE000662311F0CE015EDECE0182519F4FEAD3EF
:103FF000CE0186509F4F01D4BE016C5F7E4FCE0133
:10400000859611D4CE01865E9E4F53D4CE018A5739
:104010009F4F70D4FE01EE5CFE4F8081837080580C
:1040200080838D849E84AF84B888C984DA84EB84CD
:10403000FC840D811E812F8138854D895E898C8994
:104040008F938B898F938A898F9389898F936981C5
:10405000CE01C2DE182FCE010E94322A0F900F909F
:104060000F900F90812FDF91CF911F910F91FF90B3
:10407000EF90DF90CF90BF90AF909F908F9008957A
:104080000F931F93CF93DF93EC01FC01EB5EFE4F88
:10409000408151818C010C5F1E4FD8016D917D9143
:1040A0008D919C91EDD761157105B1E08B0791055C
:1040B00020F06FEF7FEF80E090E07FA76EA7FE011A
:1040C000E85FFE4F4081518159AB48AB3296208169
:1040D00031813BAB2AAB3A9681E080833396D8019D
:1040E0006D917D918D919C91008157D7FE01E85E85
:1040F000FE4F91838083BE016B5D7F4FCE01DF91C8
:10410000CF911F910F910C94932CFC0117A616A62A
:1041100011AA10AA13AA12AAEC5EFE4F10823496BE
:1041200011821082BC016B5D7F4F0C94932C8B58D5
:104130009E4FFC0180819181FB019183808380E00F
:1041400008958B589E4FFC017183608380E0089531
:1041500089589E4FFC0180819181FB01918380836E
:1041600080E0089589589E4FFC017183608380E050
:1041700008958F929F92AF92BF92CF92DF92EF926B
:10418000FF920F931F93CF93DF93CDB7DEB7C45B3E
:10419000D1090FB6F894DEBF0FBECDBF7C01DC01A4
:1041A00012966C934C01BEE68B1ABEEF9B0AF4018B
:1041B00084818F70682B6483E454F109D701A85E71
:1041C000BE4F8D919C9191838083E55BFE4F8081F2
:1041D0008F3F09F41082D701A856BD4F8C918130D2
:1041E00081F58081811123C0A054B1408C91F701E9
:1041F000E656FD4F808380E28C93EA50F140808147
:10420000807671F4D701DA968D919C91DB97880FB7
:10421000991F880F991FD7969C938E93D69703C0AA
:10422000F70117AA16AA453060F445E00AC08130AC
:1042300041F4F701E656FD4F8081E254F14080835E
:1042400046E0EFEFE40FE63030F4F0E0E55AFE4FE1
:10425000C080D12C03C083E8C82ED12C08E810E020
:104260000C191D09FE013196CF01800F911F5F01CE
:104270008E179F0711F01192FBCF4630E0F0A50199
:104280004C195D094F5F5F4F6BE070E0C701855DC2
:104290009E4F0E94352B811174C0A5014C195D09F8
:1042A000435F5F4F67E170E0C70185960E94C72BAF
:1042B000882329F066C0453081F3443079F4A501A4
:1042C0004C195D094C5D5F4F60E270E0C7018A5C8C
:1042D0009E4F0E94F22C882319F053C04330E9F41A
:1042E000A5014C195D094C5B5F4F66E170E0C701A9
:1042F0008A5A9E4F0E945D2D811143C0A5014C1921
:104300005D09465A5F4F67E170E0C70185599E4FCE
:104310000E94B22D882329F034C0423079F344231F
:10432000E9F041E750E04C195D09D40114968C91F5
:10433000F701E058FE4F85FF08C0D7015F968C91CA
:10434000982F916090839387818B4A0D5B1D62E16A
:1043500070E0CF010E94022E811113C0A5014C19FB
:104360005D094D575F4F65E070E0C4010E94482E23
:10437000811107C020E030E0A501B601C7010E940D
:10438000D632CC54DF4F0FB6F894DEBF0FBECDBF90
:10439000DF91CF911F910F91FF90EF90DF90CF9021
:1043A000BF90AF909F908F900895FF920F931F93AF
:1043B000CF93DF93EC018C010A561E4FF8018081E8
:1043C0008F7080688083BE016E567E4FCE010E9442
:1043D000662EF82EF80180818F708083EE5FFE4F8D
:1043E0008081813019F4CE010E944D2A8F2DDF91FA
:1043F000CF911F910F91FF900895DF92EF92FF925E
:104400000F931F93CF93DF93CDB7DEB7C45BD10972
:104410000FB6F894DEBF0FBECDBF7C01D62E81E073
:10442000681731F092E0691731F00CE210E005C036
:104430000DE410E002C006E810E020E030E0AE013C
:104440004F5F5F4F68E870E0C7010E943F3391E023
:104450009D1568F4811125C0A7014F595D4FBE011C
:10446000615B7F4F88E390E00E94B92F02C0DD209E
:1044700061F0811116C0A701405C5D4FBE01635D14
:104480007F4F81E290E00E94502F81110AC0A70166
:1044900049565E4FBE016F5F7F4F8CE290E00E94F5
:1044A000922ECC54DF4F0FB6F894DEBF0FBECDBFB7
:1044B000DF91CF911F910F91FF90EF90DF900895C2
:1044C00043E057CE2F923F924F925F926F927F922E
:1044D0008F929F92AF92BF92CF92DF92EF92FF9214
:1044E0000F931F93CF93DF934B015C017A01690116
:1044F0001801FA018381F8018283E801249610E013
:1045000003E1412C48E0542E612C712C1883F701F3
:1045100093818181911106C0982F9F71993011F478
:1045200008AF02C08F7188AFF701113009F465C080
:104530008281873019F48289938908C0F701883015
:1045400019F48489958902C0848195819D878C871F
:10455000F701808991899FA38EA38689978999A75E
:1045600088A7808591859BA78AA782859385A0E0EF
:10457000B0E035E0880F991FAA1FBB1F3A95D1F70D
:104580000097F1E0AF07B10520F08FEF9FEFA0E0BB
:10459000B0E09BAB8AABF701848595859DAB8CAB76
:1045A000A685B785A50194010E942C397C5F8F4FA9
:1045B0009F4FA30192010E9410393FAB2EABF60131
:1045C00084819581A681B7818E8F9F8FA8A3B9A37F
:1045D00080859185A285B3858AA39BA3ACA3BDA347
:1045E00084859585A685B7858E879F87A88BB98B8F
:1045F00080819181A281B38157C0808D918D9D87EB
:104600008C87828D938D9FA38EA38FEF9FEF99A7A9
:1046100088A7848D958D9BA78AA7868D978DA0E00E
:10462000B0E025E0880F991FAA1FBB1F2A95D1F77C
:104630000097E1E0AE07B10520F08FEF9FEFA0E01B
:10464000B0E09BAB8AABF70180A191A19DAB8CAB95
:10465000A2A1B3A1A50194010E942C397C5F8F4FC8
:104660009F4FA30192010E9410393FAB2EABF60180
:1046700084899589A689B7898E8F9F8FA8A3B9A3AE
:10468000808D918DA28DB38D8AA39BA3ACA3BDA376
:10469000848D958DA68DB78D8E879F87A88BB98BBE
:1046A00080899189A289B3898A8F9B8FAC8FBD8FB6
:1046B000E9961F5F123009F029CFF1011382F7014B
:1046C00081818F718D3041F028F49FEF980F9330E6
:1046D00018F005C0813119F4F101838314AEDF9124
:1046E000CF911F910F91FF90EF90DF90CF90BF90EF
:1046F000AF909F908F907F906F905F904F903F9082
:104700002F900895AF92BF92CF92DF92EF92FF92D7
:104710000F931F93CF93DF93EC015A016C018CE54B
:10472000C81A8DEFD80ACE0168DEF82E81110FC0AD
:10473000FE01E258FF4F6081718180E090E08601C8
:104740009E01205C3D4FAE0149565E4FBBDEFE012F
:10475000E856FD4FE080E1E0EE121DC08E010756E5
:104760001D4FF1100FC0F8018081811106C0CE01EC
:10477000B9D6F82EF801E08205C0813019F482E044
:10478000F8018083F80180818F3F29F0F11003C088
:10479000CE01D2D6F82E8D8DF601808389A181833A
:1047A00086E7D50101900D928A95E1F78F2DDF9173
:1047B000CF911F910F91FF90EF90DF90CF90BF901E
:1047C000AF900895FC0188E080838BE0818388EEC0
:1047D00093E0A0E0B0E082839383A483B58380E07C
:1047E0009AE09783868380E095E09187808780E0D8
:1047F00094E19387828780E00895FC01108282E132
:1048000081838FE0828382E0838380EA9CE8A0E05A
:10481000B0E084839583A683B7838CE090E0918792
:10482000808780E008950F93CF93DF93DC01FB0135
:1048300019966D917C911A9780E090E06083718366
:10484000828393831B964D915C911C97558344837F
:104850001D962D913C911E97378326836087718723
:10486000828793875587448737872687128A118ADC
:10487000A0E4A38B611571058105910541F44115F3
:10488000510529F42115310511F4108A02C0A1E067
:10489000A08BA089A13031F4EF0100E47ED39D8B81
:1048A0008C8B02C0158A148A80E0DF91CF910F9122
:1048B0000895FC0180E09AE09183808388EE93E084
:1048C000A0E0B0E082839383A483B58388EC92E375
:1048D000A0E0B0E086839783A087B1878287938723
:1048E000A487B58788E0868788E2878789E0808B00
:1048F00080E00895FC0183E090E89183808381E06B
:1049000090E89383828381E490E8958384832EE00A
:1049100026839AE0978386E0808721879287838722
:1049200082E0848791E2958717861686108A28E6AA
:1049300031E0328B218B348B238B368B258B20EC13
:1049400030E0308F278B328F218F348F238F98E088
:10495000958F90E1968F91E0978F80A391A382A38A
:1049600013A280E09AE095A384A397A386A380E393
:1049700090E8A0E0B0E080A791A7A2A7B3A788EE37
:1049800093E0A0E0B0E084A795A7A6A7B7A780ED25
:1049900097E0A0E0B0E080AB91ABA2ABB3AB84AB4F
:1049A00095ABA6ABB7AB88E196EFA0E0B0E084AFE3
:1049B00095AFA6AFB7AFDF01A05CBF4F48EC52E3A5
:1049C00060E070E04D935D936D937C93139781E06D
:1049D00090E0A0E0B0E080AF91AFA2AFB3AFEC5BEE
:1049E000FF4F80E49FE1A0E0B0E080839183A28349
:1049F000B38380E00895CF92DF92EF92FF920F93FE
:104A00001F93CF93DF93FC01DB01690180E09AE003
:104A100091838083128213821482158216821782F8
:104A2000108611861286138681E1848792E095872D
:104A30001686978778E0708B118AE7018D8D828BBF
:104A40008E8D838B8F8D848B81E0858B168A178A60
:104A5000118E108E2FEF228F3889338F3C85348F43
:104A6000158E168E178E1C9211961C92119760E26D
:104A700012966C9312973BE013963C931397EE8536
:104A8000FF851596FC93EE93149716969C931697B4
:104A9000EDE01796EC931797ED851896EC93189721
:104AA00019961C9219971A968C931A971C961C9219
:104AB0001E921B971E961C921E921D97E0E0FCE82A
:104AC0005096FC93EE931F9751961C925197E8E3F2
:104AD0005296EC93529753962C93539754968C93EB
:104AE000FA011082EAE1DA011196EC93119712961D
:104AF0001C92129713966C93139714968C93149799
:104B00006CEC15966C93159716963C931697179622
:104B10008C93179765EF18966C93189769E0199620
:104B20006C931997EB89FC891B96FC93EE931A976B
:104B3000E98DFA8D1D96FC93EE931C971E967C933F
:104B40001E9778E71F967C93EA01188A198A1A8AB9
:104B50001B8A1C8AF60180831282118214821382BE
:104B60001582D70190964C91909746833783608742
:104B700017963C91179731871A963C911A9732876E
:104B8000838793963C919397348792963C9135878F
:104B900037EC368727872BED208B918BE801198224
:104BA0008A838B8381E28C8380E0DF91CF911F9198
:104BB0000F91FF90EF90DF90CF900895AF92BF924A
:104BC000CF92DF92EF92FF920F931F93CF93DF93D9
:104BD000EA01690110DF81111CC027E02E8395E0F6
:104BE0009987F701458956895B874A87438D548D9C
:104BF0005D874C8738E03E8738E33F87F60127839F
:104C00009087F7019085F6019187F7019385F6016A
:104C10009287DF91CF911F910F91FF90EF90DF90DE
:104C2000CF90BF90AF900895AF92BF92CF92DF9296
:104C3000EF92FF920F931F93CF93DF93EA016901E5
:104C4000DADE81111CC02FE02E839DE09987F701E9
:104C5000418952895B874A874789508D5D874C8798
:104C600038E03E8738EB3F87F60127839087F701CE
:104C70009681F6019187F7019185F6019287DF9180
:104C8000CF911F910F91FF90EF90DF90CF90BF9049
:104C9000AF900895CF92DF92EF92FF920F931F9300
:104CA000CF93DF936B01E901A6DE811105C092E08D
:104CB000F60192879BE3988BDF91CF911F910F9123
:104CC000FF90EF90DF90CF900895CF92DF92EF9218
:104CD000FF920F931F93CF93DF936B01E9018BDE5C
:104CE000811105C092E0F60192879BE5988BDF91D8
:104CF000CF911F910F91FF90EF90DF90CF9008958B
:104D0000DC01FB011A968C911A9780831B968C917B
:104D10001B9781831C968C911C9782831D968C9186
:104D20001D9783831E968C911E9784831F968C916A
:104D30001F97858350968C915097868351968C91BE
:104D40005197878352968C915297808753968C9176
:104D50005397818754968C915497828755968C915E
:104D60005597838756968C915697848757968C9142
:104D70005797858758968C915897868759968C9126
:104D8000599787875A968C915A97808B5B968C910E
:104D90005B97818B5C968C915C97828B5D968C91F6
:104DA0005D97838B5E968C915E97848B5F968C91DA
:104DB0005F97858B90968C919097868B91968C912E
:104DC0009197878B92968C919297808F93968C91E6
:104DD0009397818F94968C919497828F95968C91CE
:104DE0009597838F96968C919697848F97968C91B2
:104DF0009797858F98968C919897868F99968C9196
:104E0000878F0895FA01E60FF71FE417F50721F0E1
:104E10008293892F90E0F9CF08959B01280F391FC5
:104E200080E090E06217730739F0982F8827FB0124
:104E30004191BF01842BF6CF0895FA01E60FF71FC9
:104E4000E417F50729F08293892F990F990BF8CF72
:104E50000895FB012081022E000C330B330F220B2F
:104E6000322F860F971FE817F90729F0322F2227D4
:104E70004191242BF8CFC9010895F901E40FF51FE2
:104E8000E217F30731F06293672F782F892F992764
:104E9000F7CF0895FB019B01280F391F60E070E0F8
:104EA000CB01E217F30749F0B82FA72F962F8827D9
:104EB0004191BC01CD01642BF4CF0895FB014081E9
:104EC000042E000C550B660B770B770F440B542FF9
:104ED000BA018E0F9F1FE817F90739F0762F652F5B
:104EE000542F44272191422BF6CFCB01BA010895CC
:104EF000462F67E270E00C94A833462FFC01EC5675
:104F0000FE4F608365E870E00C94A83361E0F5CF54
:104F100060E0F3CF462FFC01EE56FE4F608363E85E
:104F200070E00C94A83361E0F5CF60E0F3CFFC01B2
:104F3000EB56FE4F21E0208341E066E870E00C94E0
:104F4000A833CF92DF92EF92FF92CF93C62F5CD31C
:104F50006B017C018C2F64D3E82FA0E0B9E0A7019E
:104F600096010E942C399B01AC0186E0569547952D
:104F7000379527958A95D1F7AE2FB0E00E942C394E
:104F800026E096958795779567952A95D1F7CF91E5
:104F9000FF90EF90DF90CF900895AF92BF92CF92A5
:104FA000DF92EF92FF920F93CF93DF935A01E901C3
:104FB00024E0660F771F881F991F2A95D1F728EEE6
:104FC00033E040E050E00E94103969017A01B7FEF9
:104FD00005C0662777276A197B0902C060E070E088
:104FE000D7FF04C0D195C195D10902C0C0E0D0E07F
:104FF0006C0F7D1F85E0660F771F8A95E1F7072EFE
:10500000000C880B990B28EE33E040E050E00E9442
:1050100010392C0D3D1D4E1D5F1DA02FB0E00E94CC
:105020002C39605F7F4F8F4F9F4F20E230E040E090
:1050300050E00E9410392115310581E048075105E3
:1050400014F4C90102C08FEF9FEFDF91CF910F9150
:10505000FF90EF90DF90CF90BF90AF9008950F93A7
:105060000E943639385F4F4F5F4F6F4F7F4F8F4FE2
:105070009F4F0CE00E945F39B901CA010F9108955A
:105080000F931F938A01550F220B330BDC01CB01C9
:10509000800F911FA21FB31F009724E0A207B10544
:1050A00024F08FEF9FEFA3E0B0E0BC01CD0197FFAC
:1050B00003C060E070E0CB011F910F9108950F9342
:1050C0001F93FC01CB01BA019F013327890120E026
:1050D00030E004C0000F111F221F331FFA95D2F7D2
:1050E000A90198012F5F3F4F4F4F5F4F0E94363904
:1050F000385F4F4F5F4F6F4F7F4F8F4F9F4F0CE089
:105100000E945F39B901CA011F910F910895CF9292
:10511000DF92EF92FF926115710581059105D1F043
:10512000DC01CB010197A109B10920E030E06C015D
:105130007D01CC24CD28CE28CF2839F0B695A7956F
:10514000979587952F5F3F4FF2CF322F2227820FFF
:10515000931F02C080E090E0FF90EF90DF90CF902F
:105160000895CF92DF92EF92FF9269017A01F6944F
:10517000E794D794C794DC01CB01FCE0880F991F1A
:10518000AA1FBB1FFA95D1F7BC01CD016C0D7D1D87
:105190008E1D9F1D0E94EE38CA01B901FF90EF904D
:1051A000DF90CF90B4CF2F923F924F925F926F9249
:1051B0007F928F929F92AF92BF92CF92DF92EF92A7
:1051C000FF920F931F93CF93DF93CDB7DEB728974E
:1051D0000FB6F894DEBF0FBECDBFC114D10409F4E1
:1051E00067C09A828982B886AF821601EB82FC8200
:1051F0000D831E8349015A016B017C01E981FA810B
:105200006681C1019EDE2B013C01DC01CB01B6951C
:10521000A795979587953CE0CC0CDD1CEE1CFF1CF8
:105220003A95D1F7BC01CD016C0D7D1D8E1D9F1DE2
:10523000A30192010E94EE382F3F3105410551052F
:1052400029F020F02FEF30E040E050E0EF81F885CA
:105250002783A3019201C501B40183DFE981FA81AB
:1052600090838183A30192016B817C818D819E81DA
:1052700078DFE981FA81948385836185C10161DEEC
:105280006B017C019B01AC01C501B4016ADFE981BE
:10529000FA8192838383A70196016B817C818D8142
:1052A0009E815FDFE981FA819783808780E001C07A
:1052B00081EF28960FB6F894DEBF0FBECDBFDF9109
:1052C000CF911F910F91FF90EF90DF90CF90BF9003
:1052D000AF909F908F907F906F905F904F903F9096
:1052E0002F900895883040F0660F660F660F615763
:1052F000681BFA01608308959FE0961BF8E09F9F6A
:10530000800D1124FA0180830895982F92959F7043
:10531000FA0190838F70FB018083089590E1699F6B
:10532000800D1124FA01808308952F923F924F92AD
:105330005F926F927F928F929F92AF92BF92CF9225
:10534000DF92EF92FF920F931F93CF93DF9300D0E2
:105350001F92CDB7DEB74C016B8319012A013801CA
:10536000C501EFDD9B01AC018CE0220C331C441C19
:10537000551C8A95D1F7DA01C901B695A79597957D
:105380008795BC01CD01620D731D841D951D0E9482
:10539000EE38F401E35AFE4F2F3F31054105510528
:1053A00021F018F08FEF808301C0208324018FE863
:1053B000481A8EEF580A8B81D2018C9340816BE49E
:1053C00070E0C4010E94A833811107C0D2014C9142
:1053D00060E670E0C4010E94A833F20190819983D5
:1053E0009A8381110CC002E010E020E030E0AE01B1
:1053F0004F5F5F4F68E770E0C4010E94D632D4016E
:10540000D5967C926E92D497811116C0A3016CE15F
:1054100070E0C4010E94B33381110EC0A70164E69D
:1054200070E0C4010E94B333811106C0A60166E694
:1054300070E0C4010E94B3330F900F900F90DF9182
:10544000CF911F910F91FF90EF90DF90CF90BF9081
:10545000AF909F908F907F906F905F904F903F9014
:105460002F900895FC01E956FD4F23E020833196EB
:1054700010823196108231961082319610823196C8
:10548000108231961082319610821182128213821C
:1054900034961182108280E00895FC01E756FD4F9A
:1054A0002FEF20833496108231961082118212825F
:1054B000138234961182108237972081222319F0AB
:1054C000E656F1402083FC01E456FD4F2081222363
:1054D00019F0EA56F1402083FC01E15AFE4F108298
:1054E00080E00895CF93DF93DC01AB5CBE4F3C912D
:1054F000FC01E556FD4F3083E956F1402081EC0177
:10550000C456DD4F28833F773C93AE59BE4F3C9144
:10551000330F330F2370230F2083BD9621E02083A8
:10552000EC5FFE4F2081FA962083E454F140208303
:1055300080E0DF91CF910895CF92DF92EF92FF92BA
:105540000F931F93CF93DF93EC01FC01E556FE4FC1
:10555000208131818E559D4F6C01F6977F018E0120
:10556000005A1E4F21153105D1F1EE5BFF4F6081CE
:105570007181389780819181680F791FCB01A0E0FC
:10558000B0E07727662740E050E00E94EE38FE0149
:10559000E256FD4F20833183428353832115310529
:1055A00041055105E1F0CA5CDE4F68817981CB018C
:1055B000A0E0B0E0772766270E94EE38211531057C
:1055C000F1E04F07510520F02FEF3FEF40E050E0B2
:1055D000F60131832083F7013183208308C080E006
:1055E00090E8F60191838083F7019183808382E0C4
:1055F000F801808380E0DF91CF911F910F91FF90A0
:10560000EF90DF90CF9008959C0140E050E060E083
:1056100070E080E090E40E94EE38CA01B90108957C
:105620008F5F880F0895282F30E087FF0FC0809587
:105630008770885FFB0180832058310963E03595CE
:1056400027956A95E1F7FA01208308958770FB0199
:1056500080838FE790E0821B930B23E095958795DD
:105660002A95E1F7FA01808308950F931F93CF9352
:10567000DF936B30710528F1EA018C01FC01808118
:105680008F77888381818F70898382818F778A83E6
:10569000838183708B8384818F778C834B5F5F4F93
:1056A00062E070E085819681ADDBF80187818F83B0
:1056B0008085888781858F73898782858A8780E046
:1056C00001C086EFDF91CF911F910F9108950F9345
:1056D0001F93CF93DF930B9728F1EA018B01FB0116
:1056E00080818F77888381818F70898382818F7792
:1056F0008A83838183708B8384818F778C836B5FB4
:105700007F4F82E090E089DB9E838D83F801878163
:105710008F838085888781858F73898782858A8733
:1057200080E001C086EFDF91CF911F910F91089526
:10573000EF92FF920F931F93CF93DF93CDB7DEB716
:105740002B970FB6F894DEBF0FBECDBF7B010BE0E9
:1057500010E020E030E0AE014F5F5F4F61E070E0AD
:105760008ED7811107C0A701BE016F5F7F4F8BE00D
:1057700090E0ADDF2B960FB6F894DEBF0FBECDBF25
:10578000DF91CF911F910F91FF90EF9008950F93AC
:105790001F93CF93DF936731710508F458C0EA0176
:1057A0008C01FC01808188838181898382818A8345
:1057B00083818B8384818C8385818F708D838681A7
:1057C0008E8387818F738F83808583708887475FFF
:1057D0005F4F62E070E08185928514DBAE01455F2A
:1057E0005F4F62E070E0F8018385948526DBAE01AF
:1057F000435F5F4F62E070E0F801858596851DDBB1
:10580000AE01415F5F4F62E070E0F80187859089EB
:10581000F9DAAE014F5E5F4FF8018189928962E04B
:1058200070E09F710ADBAE014D5E5F4F62E070E099
:10583000F8018389948901DBAE014B5E5F4F62E022
:1058400070E0F80185899689F8DA80E001C086EF7A
:10585000DF91CF911F910F9108950F931F93CF93D5
:10586000DF93479708F459C08A01EB018881FA0158
:105870008083898181838A8182838B8183838C81E8
:1058800084838D818F7085838E8186838F818F73D2
:105890008783888583708087675F7F4F82E090E091
:1058A000BCDAF80192878187BE01655F7F4F82E095
:1058B00090E0CFDAF80194878387BE01635F7F4F62
:1058C00082E090E0C6DAF80196878587BE01615FC5
:1058D0007F4F82E090E0A1DAF801908B8787BE01CC
:1058E0006F5E7F4F82E090E0B4DA9F71F801928B97
:1058F000818BBE016D5E7F4F82E090E0AADAF801F5
:10590000948B838BBE016B5E7F4F82E090E0A1DAC7
:10591000F801968B858B80E001C086EFDF91CF91F7
:105920001F910F910895EF92FF920F931F93CF93C2
:10593000DF93CDB7DEB767970FB6F894DEBF0FBE23
:10594000CDBF7C01CB01AE014F5F5F4F67E170E0DF
:105950001EDF81110BC007E110E020E030E0AE0156
:105960004F5F5F4F6DE070E0C70120D667960FB6BE
:10597000F894DEBF0FBECDBFDF91CF911F910F9185
:10598000FF90EF900895EF92FF920F931F93CF93A4
:10599000DF93CDB7DEB767970FB6F894DEBF0FBEC3
:1059A000CDBF7B0107E110E020E030E0AE014F5FAA
:1059B0005F4F6DE070E063D6811107C0A701BE01A3
:1059C0006F5F7F4F87E190E048DF67960FB6F894EE
:1059D000DEBF0FBECDBFDF91CF911F910F91FF9022
:1059E000EF9008950F931F93CF93DF93603271056B
:1059F00008F45DC0EA018C0162E070E0FC01808186
:105A0000918100DAF801828181708A8383818F70AD
:105A10008B8384818F708C8385818F718D83868148
:105A20008F778E8387818F778F838085817088873A
:105A300081858987828581708A87838583708B873A
:105A400084858F718C87858583708D87868583702B
:105A50008E87878587708F8780898F71888B8189F2
:105A60008170898B82898A8B83898B8B84898C8BCB
:105A700085898D8B86898E8B87898F8BAE01485E59
:105A80005F4F62E070E0808D918DBCD9F801828D0E
:105A90008A8F838D8B8F848D8F708C8F858D8D8F6A
:105AA000868D8F708E8F878D8F8F80E001C086EFFF
:105AB000DF91CF911F910F9108950F931F93CF9373
:105AC000DF936631710508F447C0EA018C01FC01DF
:105AD000808188838181898382818A8383818F7792
